{
  "_format": "hh-sol-artifact-1",
  "contractName": "LightGovernanceToken",
  "sourceName": "contracts/LightGovernanceToken.sol",
  "abi": [
    {
      "inputs": [],
      "stateMutability": "nonpayable",
      "type": "constructor"
    },
    {
      "anonymous": false,
      "inputs": [
        {
          "indexed": true,
          "internalType": "address",
          "name": "owner",
          "type": "address"
        },
        {
          "indexed": true,
          "internalType": "address",
          "name": "spender",
          "type": "address"
        },
        {
          "indexed": false,
          "internalType": "uint256",
          "name": "value",
          "type": "uint256"
        }
      ],
      "name": "Approval",
      "type": "event"
    },
    {
      "anonymous": false,
      "inputs": [
        {
          "indexed": true,
          "internalType": "address",
          "name": "user",
          "type": "address"
        },
        {
          "indexed": false,
          "internalType": "uint256",
          "name": "amount",
          "type": "uint256"
        },
        {
          "indexed": false,
          "internalType": "uint256",
          "name": "lockPeriod",
          "type": "uint256"
        },
        {
          "indexed": false,
          "internalType": "uint256",
          "name": "multiplier",
          "type": "uint256"
        }
      ],
      "name": "GovernanceStaked",
      "type": "event"
    },
    {
      "anonymous": false,
      "inputs": [
        {
          "indexed": true,
          "internalType": "address",
          "name": "user",
          "type": "address"
        },
        {
          "indexed": false,
          "internalType": "uint256",
          "name": "amount",
          "type": "uint256"
        },
        {
          "indexed": false,
          "internalType": "uint256",
          "name": "penalty",
          "type": "uint256"
        }
      ],
      "name": "GovernanceUnstaked",
      "type": "event"
    },
    {
      "anonymous": false,
      "inputs": [
        {
          "indexed": true,
          "internalType": "address",
          "name": "previousOwner",
          "type": "address"
        },
        {
          "indexed": true,
          "internalType": "address",
          "name": "newOwner",
          "type": "address"
        }
      ],
      "name": "OwnershipTransferred",
      "type": "event"
    },
    {
      "anonymous": false,
      "inputs": [
        {
          "indexed": false,
          "internalType": "address",
          "name": "account",
          "type": "address"
        }
      ],
      "name": "Paused",
      "type": "event"
    },
    {
      "anonymous": false,
      "inputs": [
        {
          "indexed": true,
          "internalType": "uint256",
          "name": "proposalId",
          "type": "uint256"
        }
      ],
      "name": "ProposalCancelled",
      "type": "event"
    },
    {
      "anonymous": false,
      "inputs": [
        {
          "indexed": true,
          "internalType": "uint256",
          "name": "proposalId",
          "type": "uint256"
        },
        {
          "indexed": true,
          "internalType": "address",
          "name": "proposer",
          "type": "address"
        },
        {
          "indexed": false,
          "internalType": "string",
          "name": "title",
          "type": "string"
        }
      ],
      "name": "ProposalCreated",
      "type": "event"
    },
    {
      "anonymous": false,
      "inputs": [
        {
          "indexed": true,
          "internalType": "uint256",
          "name": "proposalId",
          "type": "uint256"
        },
        {
          "indexed": false,
          "internalType": "bool",
          "name": "success",
          "type": "bool"
        }
      ],
      "name": "ProposalExecuted",
      "type": "event"
    },
    {
      "anonymous": false,
      "inputs": [
        {
          "indexed": true,
          "internalType": "address",
          "name": "from",
          "type": "address"
        },
        {
          "indexed": true,
          "internalType": "address",
          "name": "to",
          "type": "address"
        },
        {
          "indexed": false,
          "internalType": "uint256",
          "name": "value",
          "type": "uint256"
        }
      ],
      "name": "Transfer",
      "type": "event"
    },
    {
      "anonymous": false,
      "inputs": [
        {
          "indexed": false,
          "internalType": "address",
          "name": "account",
          "type": "address"
        }
      ],
      "name": "Unpaused",
      "type": "event"
    },
    {
      "anonymous": false,
      "inputs": [
        {
          "indexed": true,
          "internalType": "address",
          "name": "voter",
          "type": "address"
        },
        {
          "indexed": true,
          "internalType": "uint256",
          "name": "proposalId",
          "type": "uint256"
        },
        {
          "indexed": false,
          "internalType": "enum LightGovernanceToken.VoteChoice",
          "name": "choice",
          "type": "uint8"
        },
        {
          "indexed": false,
          "internalType": "uint256",
          "name": "weight",
          "type": "uint256"
        },
        {
          "indexed": false,
          "internalType": "string",
          "name": "reason",
          "type": "string"
        }
      ],
      "name": "VoteCast",
      "type": "event"
    },
    {
      "inputs": [],
      "name": "MIN_PROPOSAL_THRESHOLD",
      "outputs": [
        {
          "internalType": "uint256",
          "name": "",
          "type": "uint256"
        }
      ],
      "stateMutability": "view",
      "type": "function"
    },
    {
      "inputs": [],
      "name": "TOTAL_SUPPLY",
      "outputs": [
        {
          "internalType": "uint256",
          "name": "",
          "type": "uint256"
        }
      ],
      "stateMutability": "view",
      "type": "function"
    },
    {
      "inputs": [
        {
          "internalType": "address",
          "name": "owner",
          "type": "address"
        },
        {
          "internalType": "address",
          "name": "spender",
          "type": "address"
        }
      ],
      "name": "allowance",
      "outputs": [
        {
          "internalType": "uint256",
          "name": "",
          "type": "uint256"
        }
      ],
      "stateMutability": "view",
      "type": "function"
    },
    {
      "inputs": [
        {
          "internalType": "address",
          "name": "spender",
          "type": "address"
        },
        {
          "internalType": "uint256",
          "name": "amount",
          "type": "uint256"
        }
      ],
      "name": "approve",
      "outputs": [
        {
          "internalType": "bool",
          "name": "",
          "type": "bool"
        }
      ],
      "stateMutability": "nonpayable",
      "type": "function"
    },
    {
      "inputs": [
        {
          "internalType": "address",
          "name": "account",
          "type": "address"
        }
      ],
      "name": "balanceOf",
      "outputs": [
        {
          "internalType": "uint256",
          "name": "",
          "type": "uint256"
        }
      ],
      "stateMutability": "view",
      "type": "function"
    },
    {
      "inputs": [
        {
          "internalType": "uint256",
          "name": "amount",
          "type": "uint256"
        }
      ],
      "name": "burn",
      "outputs": [],
      "stateMutability": "nonpayable",
      "type": "function"
    },
    {
      "inputs": [
        {
          "internalType": "address",
          "name": "account",
          "type": "address"
        },
        {
          "internalType": "uint256",
          "name": "amount",
          "type": "uint256"
        }
      ],
      "name": "burnFrom",
      "outputs": [],
      "stateMutability": "nonpayable",
      "type": "function"
    },
    {
      "inputs": [
        {
          "internalType": "uint256",
          "name": "proposalId",
          "type": "uint256"
        }
      ],
      "name": "cancelProposal",
      "outputs": [],
      "stateMutability": "nonpayable",
      "type": "function"
    },
    {
      "inputs": [
        {
          "internalType": "uint256",
          "name": "proposalId",
          "type": "uint256"
        },
        {
          "internalType": "enum LightGovernanceToken.VoteChoice",
          "name": "choice",
          "type": "uint8"
        },
        {
          "internalType": "string",
          "name": "reason",
          "type": "string"
        }
      ],
      "name": "castVote",
      "outputs": [],
      "stateMutability": "nonpayable",
      "type": "function"
    },
    {
      "inputs": [],
      "name": "decimals",
      "outputs": [
        {
          "internalType": "uint8",
          "name": "",
          "type": "uint8"
        }
      ],
      "stateMutability": "view",
      "type": "function"
    },
    {
      "inputs": [
        {
          "internalType": "address",
          "name": "spender",
          "type": "address"
        },
        {
          "internalType": "uint256",
          "name": "subtractedValue",
          "type": "uint256"
        }
      ],
      "name": "decreaseAllowance",
      "outputs": [
        {
          "internalType": "bool",
          "name": "",
          "type": "bool"
        }
      ],
      "stateMutability": "nonpayable",
      "type": "function"
    },
    {
      "inputs": [
        {
          "internalType": "uint256",
          "name": "proposalId",
          "type": "uint256"
        }
      ],
      "name": "executeProposal",
      "outputs": [],
      "stateMutability": "nonpayable",
      "type": "function"
    },
    {
      "inputs": [
        {
          "internalType": "uint256",
          "name": "proposalId",
          "type": "uint256"
        }
      ],
      "name": "getProposal",
      "outputs": [
        {
          "internalType": "address",
          "name": "proposer",
          "type": "address"
        },
        {
          "internalType": "string",
          "name": "title",
          "type": "string"
        },
        {
          "internalType": "string",
          "name": "description",
          "type": "string"
        },
        {
          "internalType": "uint256",
          "name": "startTime",
          "type": "uint256"
        },
        {
          "internalType": "uint256",
          "name": "endTime",
          "type": "uint256"
        },
        {
          "internalType": "uint256",
          "name": "forVotes",
          "type": "uint256"
        },
        {
          "internalType": "uint256",
          "name": "againstVotes",
          "type": "uint256"
        },
        {
          "internalType": "uint256",
          "name": "abstainVotes",
          "type": "uint256"
        },
        {
          "internalType": "bool",
          "name": "executed",
          "type": "bool"
        },
        {
          "internalType": "bool",
          "name": "cancelled",
          "type": "bool"
        }
      ],
      "stateMutability": "view",
      "type": "function"
    },
    {
      "inputs": [
        {
          "internalType": "uint256",
          "name": "proposalId",
          "type": "uint256"
        }
      ],
      "name": "getProposalState",
      "outputs": [
        {
          "internalType": "enum LightGovernanceToken.ProposalState",
          "name": "",
          "type": "uint8"
        }
      ],
      "stateMutability": "view",
      "type": "function"
    },
    {
      "inputs": [
        {
          "internalType": "address",
          "name": "user",
          "type": "address"
        }
      ],
      "name": "getUserGovernanceStakes",
      "outputs": [
        {
          "components": [
            {
              "internalType": "uint256",
              "name": "amount",
              "type": "uint256"
            },
            {
              "internalType": "uint256",
              "name": "startTime",
              "type": "uint256"
            },
            {
              "internalType": "uint256",
              "name": "lockPeriod",
              "type": "uint256"
            },
            {
              "internalType": "uint256",
              "name": "multiplier",
              "type": "uint256"
            },
            {
              "internalType": "bool",
              "name": "active",
              "type": "bool"
            }
          ],
          "internalType": "struct LightGovernanceToken.GovernanceStake[]",
          "name": "",
          "type": "tuple[]"
        }
      ],
      "stateMutability": "view",
      "type": "function"
    },
    {
      "inputs": [
        {
          "internalType": "address",
          "name": "account",
          "type": "address"
        }
      ],
      "name": "getVotingPower",
      "outputs": [
        {
          "internalType": "uint256",
          "name": "",
          "type": "uint256"
        }
      ],
      "stateMutability": "view",
      "type": "function"
    },
    {
      "inputs": [],
      "name": "governance",
      "outputs": [
        {
          "internalType": "uint256",
          "name": "votingDelay",
          "type": "uint256"
        },
        {
          "internalType": "uint256",
          "name": "votingPeriod",
          "type": "uint256"
        },
        {
          "internalType": "uint256",
          "name": "proposalThreshold",
          "type": "uint256"
        },
        {
          "internalType": "uint256",
          "name": "quorumThreshold",
          "type": "uint256"
        },
        {
          "internalType": "uint256",
          "name": "executionDelay",
          "type": "uint256"
        },
        {
          "internalType": "uint256",
          "name": "gracePeriod",
          "type": "uint256"
        }
      ],
      "stateMutability": "view",
      "type": "function"
    },
    {
      "inputs": [
        {
          "internalType": "address",
          "name": "",
          "type": "address"
        },
        {
          "internalType": "uint256",
          "name": "",
          "type": "uint256"
        }
      ],
      "name": "governanceStakes",
      "outputs": [
        {
          "internalType": "uint256",
          "name": "amount",
          "type": "uint256"
        },
        {
          "internalType": "uint256",
          "name": "startTime",
          "type": "uint256"
        },
        {
          "internalType": "uint256",
          "name": "lockPeriod",
          "type": "uint256"
        },
        {
          "internalType": "uint256",
          "name": "multiplier",
          "type": "uint256"
        },
        {
          "internalType": "bool",
          "name": "active",
          "type": "bool"
        }
      ],
      "stateMutability": "view",
      "type": "function"
    },
    {
      "inputs": [
        {
          "internalType": "address",
          "name": "spender",
          "type": "address"
        },
        {
          "internalType": "uint256",
          "name": "addedValue",
          "type": "uint256"
        }
      ],
      "name": "increaseAllowance",
      "outputs": [
        {
          "internalType": "bool",
          "name": "",
          "type": "bool"
        }
      ],
      "stateMutability": "nonpayable",
      "type": "function"
    },
    {
      "inputs": [],
      "name": "name",
      "outputs": [
        {
          "internalType": "string",
          "name": "",
          "type": "string"
        }
      ],
      "stateMutability": "view",
      "type": "function"
    },
    {
      "inputs": [],
      "name": "owner",
      "outputs": [
        {
          "internalType": "address",
          "name": "",
          "type": "address"
        }
      ],
      "stateMutability": "view",
      "type": "function"
    },
    {
      "inputs": [],
      "name": "pause",
      "outputs": [],
      "stateMutability": "nonpayable",
      "type": "function"
    },
    {
      "inputs": [],
      "name": "paused",
      "outputs": [
        {
          "internalType": "bool",
          "name": "",
          "type": "bool"
        }
      ],
      "stateMutability": "view",
      "type": "function"
    },
    {
      "inputs": [],
      "name": "proposalCount",
      "outputs": [
        {
          "internalType": "uint256",
          "name": "",
          "type": "uint256"
        }
      ],
      "stateMutability": "view",
      "type": "function"
    },
    {
      "inputs": [
        {
          "internalType": "address",
          "name": "",
          "type": "address"
        }
      ],
      "name": "proposalCounts",
      "outputs": [
        {
          "internalType": "uint256",
          "name": "",
          "type": "uint256"
        }
      ],
      "stateMutability": "view",
      "type": "function"
    },
    {
      "inputs": [],
      "name": "proposalThreshold",
      "outputs": [
        {
          "internalType": "uint256",
          "name": "",
          "type": "uint256"
        }
      ],
      "stateMutability": "view",
      "type": "function"
    },
    {
      "inputs": [
        {
          "internalType": "uint256",
          "name": "",
          "type": "uint256"
        }
      ],
      "name": "proposals",
      "outputs": [
        {
          "internalType": "uint256",
          "name": "id",
          "type": "uint256"
        },
        {
          "internalType": "address",
          "name": "proposer",
          "type": "address"
        },
        {
          "internalType": "string",
          "name": "title",
          "type": "string"
        },
        {
          "internalType": "string",
          "name": "description",
          "type": "string"
        },
        {
          "internalType": "uint256",
          "name": "startTime",
          "type": "uint256"
        },
        {
          "internalType": "uint256",
          "name": "endTime",
          "type": "uint256"
        },
        {
          "internalType": "uint256",
          "name": "forVotes",
          "type": "uint256"
        },
        {
          "internalType": "uint256",
          "name": "againstVotes",
          "type": "uint256"
        },
        {
          "internalType": "uint256",
          "name": "abstainVotes",
          "type": "uint256"
        },
        {
          "internalType": "bool",
          "name": "executed",
          "type": "bool"
        },
        {
          "internalType": "bool",
          "name": "cancelled",
          "type": "bool"
        }
      ],
      "stateMutability": "view",
      "type": "function"
    },
    {
      "inputs": [
        {
          "internalType": "string",
          "name": "title",
          "type": "string"
        },
        {
          "internalType": "string",
          "name": "description",
          "type": "string"
        }
      ],
      "name": "propose",
      "outputs": [
        {
          "internalType": "uint256",
          "name": "",
          "type": "uint256"
        }
      ],
      "stateMutability": "nonpayable",
      "type": "function"
    },
    {
      "inputs": [],
      "name": "renounceOwnership",
      "outputs": [],
      "stateMutability": "nonpayable",
      "type": "function"
    },
    {
      "inputs": [
        {
          "internalType": "uint256",
          "name": "amount",
          "type": "uint256"
        },
        {
          "internalType": "uint256",
          "name": "lockPeriod",
          "type": "uint256"
        }
      ],
      "name": "stakeForGovernance",
      "outputs": [],
      "stateMutability": "nonpayable",
      "type": "function"
    },
    {
      "inputs": [],
      "name": "symbol",
      "outputs": [
        {
          "internalType": "string",
          "name": "",
          "type": "string"
        }
      ],
      "stateMutability": "view",
      "type": "function"
    },
    {
      "inputs": [
        {
          "internalType": "address",
          "name": "",
          "type": "address"
        }
      ],
      "name": "totalGovernanceStaked",
      "outputs": [
        {
          "internalType": "uint256",
          "name": "",
          "type": "uint256"
        }
      ],
      "stateMutability": "view",
      "type": "function"
    },
    {
      "inputs": [],
      "name": "totalStaked",
      "outputs": [
        {
          "internalType": "uint256",
          "name": "",
          "type": "uint256"
        }
      ],
      "stateMutability": "view",
      "type": "function"
    },
    {
      "inputs": [],
      "name": "totalSupply",
      "outputs": [
        {
          "internalType": "uint256",
          "name": "",
          "type": "uint256"
        }
      ],
      "stateMutability": "view",
      "type": "function"
    },
    {
      "inputs": [
        {
          "internalType": "address",
          "name": "to",
          "type": "address"
        },
        {
          "internalType": "uint256",
          "name": "amount",
          "type": "uint256"
        }
      ],
      "name": "transfer",
      "outputs": [
        {
          "internalType": "bool",
          "name": "",
          "type": "bool"
        }
      ],
      "stateMutability": "nonpayable",
      "type": "function"
    },
    {
      "inputs": [
        {
          "internalType": "address",
          "name": "from",
          "type": "address"
        },
        {
          "internalType": "address",
          "name": "to",
          "type": "address"
        },
        {
          "internalType": "uint256",
          "name": "amount",
          "type": "uint256"
        }
      ],
      "name": "transferFrom",
      "outputs": [
        {
          "internalType": "bool",
          "name": "",
          "type": "bool"
        }
      ],
      "stateMutability": "nonpayable",
      "type": "function"
    },
    {
      "inputs": [
        {
          "internalType": "address",
          "name": "newOwner",
          "type": "address"
        }
      ],
      "name": "transferOwnership",
      "outputs": [],
      "stateMutability": "nonpayable",
      "type": "function"
    },
    {
      "inputs": [],
      "name": "unpause",
      "outputs": [],
      "stateMutability": "nonpayable",
      "type": "function"
    },
    {
      "inputs": [
        {
          "internalType": "uint256",
          "name": "stakeIndex",
          "type": "uint256"
        }
      ],
      "name": "unstakeFromGovernance",
      "outputs": [],
      "stateMutability": "nonpayable",
      "type": "function"
    },
    {
      "inputs": [
        {
          "internalType": "uint256",
          "name": "_votingDelay",
          "type": "uint256"
        },
        {
          "internalType": "uint256",
          "name": "_votingPeriod",
          "type": "uint256"
        },
        {
          "internalType": "uint256",
          "name": "_proposalThreshold",
          "type": "uint256"
        },
        {
          "internalType": "uint256",
          "name": "_quorumThreshold",
          "type": "uint256"
        }
      ],
      "name": "updateGovernanceConfig",
      "outputs": [],
      "stateMutability": "nonpayable",
      "type": "function"
    },
    {
      "inputs": [],
      "name": "votingDelay",
      "outputs": [
        {
          "internalType": "uint256",
          "name": "",
          "type": "uint256"
        }
      ],
      "stateMutability": "view",
      "type": "function"
    },
    {
      "inputs": [],
      "name": "votingPeriod",
      "outputs": [
        {
          "internalType": "uint256",
          "name": "",
          "type": "uint256"
        }
      ],
      "stateMutability": "view",
      "type": "function"
    }
  ],
  "bytecode": "0x60806040523480156200001157600080fd5b506040518060400160405280601481526020017f4c69676874476f7665726e616e6365546f6b656e00000000000000000000000081525060405180604001604052806005815260200164131251d21560da1b815250816003908162000077919062000391565b50600462000086828262000391565b505050620000a36200009d6200014860201b60201c565b6200014c565b6005805460ff60a01b1916905560016006556040805160c081018252611c2080825261c4e06020830181905269d3c21bcecceda10000009383018490526a034f086f3b33b684000000606084018190526202a300608085018190526212750060a0909501859052600793909355600891909155600993909355600a92909255600b91909155600c5562000142336a52b7d2dcc80cd2e40000006200019e565b62000485565b3390565b600580546001600160a01b038381166001600160a01b0319831681179093556040519116919082907f8be0079c531659141344cd1fd0a4f28419497f9722a3daafe3b4186f6b6457e090600090a35050565b6001600160a01b038216620001fa5760405162461bcd60e51b815260206004820152601f60248201527f45524332303a206d696e7420746f20746865207a65726f20616464726573730060448201526064015b60405180910390fd5b620002086000838362000273565b80600260008282546200021c91906200045d565b90915550506001600160a01b038216600081815260208181526040808320805486019055518481527fddf252ad1be2c89b69c2b068fc378daa952ba7f163c4a11628f55a4df523b3ef910160405180910390a35050565b6200027d62000295565b620002908383836001600160e01b038416565b505050565b620002a9600554600160a01b900460ff1690565b15620002eb5760405162461bcd60e51b815260206004820152601060248201526f14185d5cd8589b194e881c185d5cd95960821b6044820152606401620001f1565b565b634e487b7160e01b600052604160045260246000fd5b600181811c908216806200031857607f821691505b6020821081036200033957634e487b7160e01b600052602260045260246000fd5b50919050565b601f8211156200029057600081815260208120601f850160051c81016020861015620003685750805b601f850160051c820191505b81811015620003895782815560010162000374565b505050505050565b81516001600160401b03811115620003ad57620003ad620002ed565b620003c581620003be845462000303565b846200033f565b602080601f831160018114620003fd5760008415620003e45750858301515b600019600386901b1c1916600185901b17855562000389565b600085815260208120601f198616915b828110156200042e578886015182559484019460019091019084016200040d565b50858210156200044d5787850151600019600388901b60f8161c191681555b5050505050600190811b01905550565b808201808211156200047f57634e487b7160e01b600052601160045260246000fd5b92915050565b61294080620004956000396000f3fe608060405234801561001057600080fd5b506004361061025e5760003560e01c8063715018a611610146578063a457c2d7116100c3578063c7f758a811610087578063c7f758a814610597578063da35c664146105c0578063dd62ed3e146105c9578063e0a8f6f5146105dc578063edb109d0146105ef578063f2fde38b1461060257600080fd5b8063a457c2d714610536578063a9059cbb14610549578063b58131b01461055c578063b7d8201e14610564578063bb4d44361461058457600080fd5b80638456cb591161010a5780638456cb59146104d95780638da5cb5b146104e1578063902d55a5146104fc5780639080936f1461050e57806395d89b411461052e57600080fd5b8063715018a614610467578063791f5d231461046f57806379cc6790146104805780637af988ef14610493578063817b1cd2146104d057600080fd5b80633932abb1116101df5780634ef13ac9116101a35780634ef13ac91461039b5780634f066ffd146103ae578063594c53f0146103c15780635aa6e675146103e15780635c975abb1461042c57806370a082311461043e57600080fd5b80633932abb114610352578063395093511461035a5780633f4ba83a1461036d57806342966c6814610375578063470b76221461038857600080fd5b80631156e126116102265780631156e126146102f557806318160ddd146103155780631c4afc571461031d57806323b872dd14610330578063313ce5671461034357600080fd5b8063013cf08b1461026357806302a251a31461029657806306fdde03146102a8578063095ea7b3146102bd5780630d61b519146102e0575b600080fd5b610276610271366004612229565b610615565b60405161028d9b9a99989796959493929190612288565b60405180910390f35b6008545b60405190815260200161028d565b6102b061078b565b60405161028d9190612308565b6102d06102cb36600461233e565b61081d565b604051901515815260200161028d565b6102f36102ee366004612229565b610837565b005b61029a610303366004612368565b600f6020526000908152604090205481565b60025461029a565b61029a61032b366004612426565b610a1e565b6102d061033e36600461248a565b610be5565b6040516012815260200161028d565b60075461029a565b6102d061036836600461233e565b610c09565b6102f3610c2b565b6102f3610383366004612229565b610c3d565b6102f36103963660046124c6565b610c4a565b6102f36103a9366004612229565b610f33565b6102f36103bc366004612523565b611104565b6103d46103cf366004612368565b611358565b60405161028d9190612545565b600754600854600954600a54600b54600c546103ff95949392919086565b604080519687526020870195909552938501929092526060840152608083015260a082015260c00161028d565b600554600160a01b900460ff166102d0565b61029a61044c366004612368565b6001600160a01b031660009081526020819052604090205490565b6102f36113fe565b61029a69d3c21bcecceda100000081565b6102f361048e36600461233e565b611410565b6104a66104a136600461233e565b611425565b6040805195865260208601949094529284019190915260608301521515608082015260a00161028d565b61029a60145481565b6102f3611476565b6005546040516001600160a01b03909116815260200161028d565b61029a6a52b7d2dcc80cd2e400000081565b61052161051c366004612229565b611486565b60405161028d91906125cb565b6102b0611583565b6102d061054436600461233e565b611592565b6102d061055736600461233e565b61160d565b60095461029a565b61029a610572366004612368565b60136020526000908152604090205481565b61029a610592366004612368565b61161b565b6105aa6105a5366004612229565b6116fb565b60405161028d9a999897969594939291906125e5565b61029a600e5481565b61029a6105d736600461265d565b6118d2565b6102f36105ea366004612229565b6118fd565b6102f36105fd366004612690565b611a7e565b6102f3610610366004612368565b611ae8565b600d6020526000908152604090208054600182015460028301805492936001600160a01b0390921692610647906126c2565b80601f0160208091040260200160405190810160405280929190818152602001828054610673906126c2565b80156106c05780601f10610695576101008083540402835291602001916106c0565b820191906000526020600020905b8154815290600101906020018083116106a357829003601f168201915b5050505050908060030180546106d5906126c2565b80601f0160208091040260200160405190810160405280929190818152602001828054610701906126c2565b801561074e5780601f106107235761010080835404028352916020019161074e565b820191906000526020600020905b81548152906001019060200180831161073157829003601f168201915b5050506004840154600585015460068601546007870154600888015460099098015496979396929550909350919060ff808216916101009004168b565b60606003805461079a906126c2565b80601f01602080910402602001604051908101604052809291908181526020018280546107c6906126c2565b80156108135780601f106107e857610100808354040283529160200191610813565b820191906000526020600020905b8154815290600101906020018083116107f657829003601f168201915b5050505050905090565b60003361082b818585611b5e565b60019150505b92915050565b61083f611c83565b6000811180156108515750600e548111155b6108765760405162461bcd60e51b815260040161086d906126f6565b60405180910390fd5b6000818152600d60205260409020600981015460ff16156108cc5760405162461bcd60e51b815260206004820152601060248201526f105b1c9958591e48195e1958dd5d195960821b604482015260640161086d565b6009810154610100900460ff161561091b5760405162461bcd60e51b8152602060048201526012602482015271141c9bdc1bdcd85b0818d85b98d95b1b195960721b604482015260640161086d565b806005015442116109645760405162461bcd60e51b8152602060048201526013602482015272566f74696e67207374696c6c2061637469766560681b604482015260640161086d565b600061096f83611486565b90506004816007811115610985576109856125b5565b146109d25760405162461bcd60e51b815260206004820152601760248201527f50726f706f73616c206e6f74207375636365737366756c000000000000000000604482015260640161086d565b60098201805460ff1916600190811790915560405190815283907f948f4a9cd986f1118c3fbd459f7a22b23c0693e1ca3ef06a6a8be5aa7d39cc039060200160405180910390a2505050565b6000610a28611c83565b600954610a343361161b565b1015610a825760405162461bcd60e51b815260206004820152601960248201527f496e73756666696369656e7420766f74696e6720706f77657200000000000000604482015260640161086d565b60008351118015610a94575060008251115b610ae05760405162461bcd60e51b815260206004820152601e60248201527f5469746c6520616e64206465736372697074696f6e2072657175697265640000604482015260640161086d565b6000600e60008154610af190612736565b91829055506000818152600d602052604090208181556001810180546001600160a01b0319163317905590915060028101610b2c868261279d565b5060038101610b3b858261279d565b50600754610b4a90600c61285d565b610b549042612874565b6004820155600854610b6790600c61285d565b8160040154610b769190612874565b6005820155336000908152600f60205260408120805491610b9683612736565b9190505550336001600160a01b0316827f7585f467599d0f008985f231af99293be388626ac16ca59505c2f8f88969cd6387604051610bd59190612308565b60405180910390a3509392505050565b600033610bf3858285611cd0565b610bfe858585611d4a565b506001949350505050565b60003361082b818585610c1c83836118d2565b610c269190612874565b611b5e565b610c33611ef9565b610c3b611f53565b565b610c473382611fa8565b50565b610c52611c83565b600083118015610c645750600e548311155b610c805760405162461bcd60e51b815260040161086d906126f6565b6000838152600d602052604090206004810154421015610cd75760405162461bcd60e51b8152602060048201526012602482015271159bdd1a5b99c81b9bdd081cdd185c9d195960721b604482015260640161086d565b8060050154421115610d1a5760405162461bcd60e51b815260206004820152600c60248201526b159bdd1a5b99c8195b99195960a21b604482015260640161086d565b336000908152600a8201602052604090205460ff1615610d6c5760405162461bcd60e51b815260206004820152600d60248201526c105b1c9958591e481d9bdd1959609a1b604482015260640161086d565b600981015460ff16158015610d8b57506009810154610100900460ff16155b610dcd5760405162461bcd60e51b815260206004820152601360248201527250726f706f73616c206e6f742061637469766560681b604482015260640161086d565b6000610dd83361161b565b905060008111610e1c5760405162461bcd60e51b815260206004820152600f60248201526e2737903b37ba34b733903837bbb2b960891b604482015260640161086d565b336000908152600a8301602090815260408083208054600160ff199182168117909255600b870190935292208054879391921690836002811115610e6257610e626125b5565b02179055506001846002811115610e7b57610e7b6125b5565b03610e9f5780826006016000828254610e949190612874565b90915550610ee69050565b6000846002811115610eb357610eb36125b5565b03610ecc5780826007016000828254610e949190612874565b80826008016000828254610ee09190612874565b90915550505b84336001600160a01b03167fb8e138887d0aa13bab447e82de9d5c1777041ecd21ca36ba824ff1e6c07ddda4868487604051610f2493929190612887565b60405180910390a35050505050565b610f3b6120e3565b610f43611c83565b336000908152601260205260409020548110610f975760405162461bcd60e51b8152602060048201526013602482015272092dcecc2d8d2c840e6e8c2d6ca40d2dcc8caf606b1b604482015260640161086d565b336000908152601260205260408120805483908110610fb857610fb86128bf565b60009182526020909120600590910201600481015490915060ff166110125760405162461bcd60e51b815260206004820152601060248201526f5374616b65206e6f742061637469766560801b604482015260640161086d565b80546002820154600183015460009161102a91612874565b421015905060008161104457611041600a846128d5565b90505b600061105082856128f7565b60048601805460ff19169055336000908152601360205260408120805492935086929091906110809084906128f7565b92505081905550836014600082825461109991906128f7565b909155506110aa9050303383611d4a565b81156110ba576110ba3083611fa8565b604080518281526020810184905233917f26e5b68ad11dfc7fd13ab0d8818a19db27e1274d86286aa9727284310599aeec910160405180910390a25050505050610c476001600655565b61110c6120e3565b611114611c83565b600082116111645760405162461bcd60e51b815260206004820181905260248201527f416d6f756e74206d7573742062652067726561746572207468616e207a65726f604482015260640161086d565b62278d008110156111b75760405162461bcd60e51b815260206004820152601a60248201527f4d696e696d756d20333020646179206c6f636b20706572696f64000000000000604482015260640161086d565b3360009081526020819052604090205482111561120d5760405162461bcd60e51b8152602060048201526014602482015273496e73756666696369656e742062616c616e636560601b604482015260640161086d565b60646301e133808210611223575061012c611243565b62ed4e008210611235575060c8611243565b6276a7008210611243575060965b61124e333085611d4a565b6040805160a0810182528481524260208083019182528284018681526060840186815260016080860181815233600081815260128752898120805480860182559082528782208a51600590920201908155975193880193909355935160028701559151600386015590516004909401805460ff1916941515949094179093558252601390529182208054919286926112e7908490612874565b9250508190555083601460008282546113009190612874565b9091555050604080518581526020810185905290810183905233907ff387bce02866889e1712d23dd0f9a91e1e1c7eb515c6a02db5900d3c3e4045439060600160405180910390a250506113546001600655565b5050565b6001600160a01b0381166000908152601260209081526040808320805482518185028101850190935280835260609492939192909184015b828210156113f35760008481526020908190206040805160a081018252600586029092018054835260018082015484860152600282015492840192909252600381015460608401526004015460ff16151560808301529083529092019101611390565b505050509050919050565b611406611ef9565b610c3b600061213c565b61141b823383611cd0565b6113548282611fa8565b6012602052816000526040600020818154811061144157600080fd5b600091825260209091206005909102018054600182015460028301546003840154600490940154929550909350919060ff1685565b61147e611ef9565b610c3b61218e565b600080821180156114995750600e548211155b6114b55760405162461bcd60e51b815260040161086d906126f6565b6000828152600d602052604090206009810154610100900460ff16156114de5750600292915050565b600981015460ff16156114f45750600792915050565b80600401544210156115095750600092915050565b8060050154421161151d5750600192915050565b60008160080154826007015483600601546115389190612874565b6115429190612874565b600a54909150811015611559575060039392505050565b816007015482600601541115611573575060049392505050565b5060039392505050565b50919050565b60606004805461079a906126c2565b600033816115a082866118d2565b9050838110156116005760405162461bcd60e51b815260206004820152602560248201527f45524332303a2064656372656173656420616c6c6f77616e63652062656c6f77604482015264207a65726f60d81b606482015260840161086d565b610bfe8286868403611b5e565b60003361082b818585611d4a565b6001600160a01b0381166000908152602081815260408083205460129092528220825b81548110156116f257818181548110611659576116596128bf565b600091825260209091206004600590920201015460ff16156116e0576064828281548110611689576116896128bf565b9060005260206000209060050201600301548383815481106116ad576116ad6128bf565b9060005260206000209060050201600001546116c9919061285d565b6116d391906128d5565b6116dd9084612874565b92505b806116ea81612736565b91505061163e565b50909392505050565b60006060806000806000806000806000808b11801561171c5750600e548b11155b6117385760405162461bcd60e51b815260040161086d906126f6565b60008b8152600d6020526040902060018101546004820154600583015460068401546007850154600886015460098701546002880180546001600160a01b0390981697909660038a01969095909490939092909160ff808316926101009004169089906117a4906126c2565b80601f01602080910402602001604051908101604052809291908181526020018280546117d0906126c2565b801561181d5780601f106117f25761010080835404028352916020019161181d565b820191906000526020600020905b81548152906001019060200180831161180057829003601f168201915b50505050509850878054611830906126c2565b80601f016020809104026020016040519081016040528092919081815260200182805461185c906126c2565b80156118a95780601f1061187e576101008083540402835291602001916118a9565b820191906000526020600020905b81548152906001019060200180831161188c57829003601f168201915b505050505097509a509a509a509a509a509a509a509a509a509a50509193959799509193959799565b6001600160a01b03918216600090815260016020908152604080832093909416825291909152205490565b60008111801561190f5750600e548111155b61192b5760405162461bcd60e51b815260040161086d906126f6565b6000818152600d6020526040902060018101546001600160a01b031633148061195e57506005546001600160a01b031633145b61199b5760405162461bcd60e51b815260206004820152600e60248201526d139bdd08185d5d1a1bdc9a5e995960921b604482015260640161086d565b600981015460ff16156119f05760405162461bcd60e51b815260206004820152601f60248201527f43616e6e6f742063616e63656c2065786563757465642070726f706f73616c00604482015260640161086d565b6009810154610100900460ff1615611a3e5760405162461bcd60e51b8152602060048201526011602482015270105b1c9958591e4818d85b98d95b1b1959607a1b604482015260640161086d565b60098101805461ff00191661010017905560405182907f416e669c63d9a3a5e36ee7cc7e2104b8db28ccd286aa18966e98fa230c73b08c90600090a25050565b611a86611ef9565b69d3c21bcecceda1000000821015611ad45760405162461bcd60e51b81526020600482015260116024820152705468726573686f6c6420746f6f206c6f7760781b604482015260640161086d565b600793909355600891909155600955600a55565b611af0611ef9565b6001600160a01b038116611b555760405162461bcd60e51b815260206004820152602660248201527f4f776e61626c653a206e6577206f776e657220697320746865207a65726f206160448201526564647265737360d01b606482015260840161086d565b610c478161213c565b6001600160a01b038316611bc05760405162461bcd60e51b8152602060048201526024808201527f45524332303a20617070726f76652066726f6d20746865207a65726f206164646044820152637265737360e01b606482015260840161086d565b6001600160a01b038216611c215760405162461bcd60e51b815260206004820152602260248201527f45524332303a20617070726f766520746f20746865207a65726f206164647265604482015261737360f01b606482015260840161086d565b6001600160a01b0383811660008181526001602090815260408083209487168084529482529182902085905590518481527f8c5be1e5ebec7d5bd14f71427d1e84f3dd0314c0f7b2291e5b200ac8c7c3b92591015b60405180910390a3505050565b600554600160a01b900460ff1615610c3b5760405162461bcd60e51b815260206004820152601060248201526f14185d5cd8589b194e881c185d5cd95960821b604482015260640161086d565b6000611cdc84846118d2565b90506000198114611d445781811015611d375760405162461bcd60e51b815260206004820152601d60248201527f45524332303a20696e73756666696369656e7420616c6c6f77616e6365000000604482015260640161086d565b611d448484848403611b5e565b50505050565b6001600160a01b038316611dae5760405162461bcd60e51b815260206004820152602560248201527f45524332303a207472616e736665722066726f6d20746865207a65726f206164604482015264647265737360d81b606482015260840161086d565b6001600160a01b038216611e105760405162461bcd60e51b815260206004820152602360248201527f45524332303a207472616e7366657220746f20746865207a65726f206164647260448201526265737360e81b606482015260840161086d565b611e1b8383836121d1565b6001600160a01b03831660009081526020819052604090205481811015611e935760405162461bcd60e51b815260206004820152602660248201527f45524332303a207472616e7366657220616d6f756e7420657863656564732062604482015265616c616e636560d01b606482015260840161086d565b6001600160a01b03848116600081815260208181526040808320878703905593871680835291849020805487019055925185815290927fddf252ad1be2c89b69c2b068fc378daa952ba7f163c4a11628f55a4df523b3ef910160405180910390a3611d44565b6005546001600160a01b03163314610c3b5760405162461bcd60e51b815260206004820181905260248201527f4f776e61626c653a2063616c6c6572206973206e6f7420746865206f776e6572604482015260640161086d565b611f5b6121d9565b6005805460ff60a01b191690557f5db9ee0a495bf2e6ff9c91a7834c1ba4fdd244a5e8aa4e537bd38aeae4b073aa335b6040516001600160a01b03909116815260200160405180910390a1565b6001600160a01b0382166120085760405162461bcd60e51b815260206004820152602160248201527f45524332303a206275726e2066726f6d20746865207a65726f206164647265736044820152607360f81b606482015260840161086d565b612014826000836121d1565b6001600160a01b038216600090815260208190526040902054818110156120885760405162461bcd60e51b815260206004820152602260248201527f45524332303a206275726e20616d6f756e7420657863656564732062616c616e604482015261636560f01b606482015260840161086d565b6001600160a01b0383166000818152602081815260408083208686039055600280548790039055518581529192917fddf252ad1be2c89b69c2b068fc378daa952ba7f163c4a11628f55a4df523b3ef9101611c76565b505050565b6002600654036121355760405162461bcd60e51b815260206004820152601f60248201527f5265656e7472616e637947756172643a207265656e7472616e742063616c6c00604482015260640161086d565b6002600655565b600580546001600160a01b038381166001600160a01b0319831681179093556040519116919082907f8be0079c531659141344cd1fd0a4f28419497f9722a3daafe3b4186f6b6457e090600090a35050565b612196611c83565b6005805460ff60a01b1916600160a01b1790557f62e78cea01bee320cd4e420270b5ea74000d11b0c9f74754ebdbfc544b05a258611f8b3390565b6120de611c83565b600554600160a01b900460ff16610c3b5760405162461bcd60e51b815260206004820152601460248201527314185d5cd8589b194e881b9bdd081c185d5cd95960621b604482015260640161086d565b60006020828403121561223b57600080fd5b5035919050565b6000815180845260005b818110156122685760208185018101518683018201520161224c565b506000602082860101526020601f19601f83011685010191505092915050565b8b81526001600160a01b038b166020820152610160604082018190526000906122b38382018d612242565b905082810360608401526122c7818c612242565b608084019a909a52505060a081019690965260c086019490945260e08501929092526101008401521515610120830152151561014090910152949350505050565b60208152600061231b6020830184612242565b9392505050565b80356001600160a01b038116811461233957600080fd5b919050565b6000806040838503121561235157600080fd5b61235a83612322565b946020939093013593505050565b60006020828403121561237a57600080fd5b61231b82612322565b634e487b7160e01b600052604160045260246000fd5b600082601f8301126123aa57600080fd5b813567ffffffffffffffff808211156123c5576123c5612383565b604051601f8301601f19908116603f011681019082821181831017156123ed576123ed612383565b8160405283815286602085880101111561240657600080fd5b836020870160208301376000602085830101528094505050505092915050565b6000806040838503121561243957600080fd5b823567ffffffffffffffff8082111561245157600080fd5b61245d86838701612399565b9350602085013591508082111561247357600080fd5b5061248085828601612399565b9150509250929050565b60008060006060848603121561249f57600080fd5b6124a884612322565b92506124b660208501612322565b9150604084013590509250925092565b6000806000606084860312156124db57600080fd5b833592506020840135600381106124f157600080fd5b9150604084013567ffffffffffffffff81111561250d57600080fd5b61251986828701612399565b9150509250925092565b6000806040838503121561253657600080fd5b50508035926020909101359150565b602080825282518282018190526000919060409081850190868401855b828110156125a857815180518552868101518786015285810151868601526060808201519086015260809081015115159085015260a09093019290850190600101612562565b5091979650505050505050565b634e487b7160e01b600052602160045260246000fd5b60208101600883106125df576125df6125b5565b91905290565b6001600160a01b038b1681526101406020820181905260009061260a8382018d612242565b9050828103604084015261261e818c612242565b606084019a909a525050608081019690965260a086019490945260c085019290925260e084015215156101008301521515610120909101529392505050565b6000806040838503121561267057600080fd5b61267983612322565b915061268760208401612322565b90509250929050565b600080600080608085870312156126a657600080fd5b5050823594602084013594506040840135936060013592509050565b600181811c908216806126d657607f821691505b60208210810361157d57634e487b7160e01b600052602260045260246000fd5b60208082526010908201526f125b9d985b1a59081c1c9bdc1bdcd85b60821b604082015260600190565b634e487b7160e01b600052601160045260246000fd5b60006001820161274857612748612720565b5060010190565b601f8211156120de57600081815260208120601f850160051c810160208610156127765750805b601f850160051c820191505b8181101561279557828155600101612782565b505050505050565b815167ffffffffffffffff8111156127b7576127b7612383565b6127cb816127c584546126c2565b8461274f565b602080601f83116001811461280057600084156127e85750858301515b600019600386901b1c1916600185901b178555612795565b600085815260208120601f198616915b8281101561282f57888601518255948401946001909101908401612810565b508582101561284d5787850151600019600388901b60f8161c191681555b5050505050600190811b01905550565b808202811582820484141761083157610831612720565b8082018082111561083157610831612720565b600060038510612899576128996125b5565b848252836020830152606060408301526128b66060830184612242565b95945050505050565b634e487b7160e01b600052603260045260246000fd5b6000826128f257634e487b7160e01b600052601260045260246000fd5b500490565b818103818111156108315761083161272056fea26469706673582212209baa720c03999cf22e7f751dd1e90e64b7303393d281adcb7fee53c8228f8f7764736f6c63430008130033",
  "linkReferences": {},
  "deployedLinkReferences": {}
}