{
  "_format": "hh-sol-artifact-1",
  "contractName": "VeriToken",
  "sourceName": "contracts/VeriToken.sol",
  "abi": [
    {
      "inputs": [],
      "stateMutability": "nonpayable",
      "type": "constructor"
    },
    {
      "anonymous": false,
      "inputs": [
        {
          "indexed": true,
          "internalType": "address",
          "name": "owner",
          "type": "address"
        },
        {
          "indexed": true,
          "internalType": "address",
          "name": "spender",
          "type": "address"
        },
        {
          "indexed": false,
          "internalType": "uint256",
          "name": "value",
          "type": "uint256"
        }
      ],
      "name": "Approval",
      "type": "event"
    },
    {
      "anonymous": false,
      "inputs": [
        {
          "indexed": true,
          "internalType": "address",
          "name": "previousOwner",
          "type": "address"
        },
        {
          "indexed": true,
          "internalType": "address",
          "name": "newOwner",
          "type": "address"
        }
      ],
      "name": "OwnershipTransferred",
      "type": "event"
    },
    {
      "anonymous": false,
      "inputs": [
        {
          "indexed": false,
          "internalType": "address",
          "name": "account",
          "type": "address"
        }
      ],
      "name": "Paused",
      "type": "event"
    },
    {
      "anonymous": false,
      "inputs": [
        {
          "indexed": false,
          "internalType": "string",
          "name": "parameter",
          "type": "string"
        },
        {
          "indexed": false,
          "internalType": "uint256",
          "name": "oldValue",
          "type": "uint256"
        },
        {
          "indexed": false,
          "internalType": "uint256",
          "name": "newValue",
          "type": "uint256"
        }
      ],
      "name": "TokenomicsUpdated",
      "type": "event"
    },
    {
      "anonymous": false,
      "inputs": [
        {
          "indexed": true,
          "internalType": "address",
          "name": "from",
          "type": "address"
        },
        {
          "indexed": false,
          "internalType": "uint256",
          "name": "amount",
          "type": "uint256"
        },
        {
          "indexed": false,
          "internalType": "string",
          "name": "reason",
          "type": "string"
        }
      ],
      "name": "TokensBurned",
      "type": "event"
    },
    {
      "anonymous": false,
      "inputs": [
        {
          "indexed": true,
          "internalType": "address",
          "name": "to",
          "type": "address"
        },
        {
          "indexed": false,
          "internalType": "uint256",
          "name": "amount",
          "type": "uint256"
        },
        {
          "indexed": false,
          "internalType": "string",
          "name": "reason",
          "type": "string"
        }
      ],
      "name": "TokensMinted",
      "type": "event"
    },
    {
      "anonymous": false,
      "inputs": [
        {
          "indexed": true,
          "internalType": "address",
          "name": "staker",
          "type": "address"
        },
        {
          "indexed": false,
          "internalType": "uint256",
          "name": "amount",
          "type": "uint256"
        },
        {
          "indexed": false,
          "internalType": "uint256",
          "name": "duration",
          "type": "uint256"
        }
      ],
      "name": "TokensStaked",
      "type": "event"
    },
    {
      "anonymous": false,
      "inputs": [
        {
          "indexed": true,
          "internalType": "address",
          "name": "staker",
          "type": "address"
        },
        {
          "indexed": false,
          "internalType": "uint256",
          "name": "amount",
          "type": "uint256"
        },
        {
          "indexed": false,
          "internalType": "uint256",
          "name": "rewards",
          "type": "uint256"
        },
        {
          "indexed": false,
          "internalType": "uint256",
          "name": "penalty",
          "type": "uint256"
        }
      ],
      "name": "TokensUnstaked",
      "type": "event"
    },
    {
      "anonymous": false,
      "inputs": [
        {
          "indexed": true,
          "internalType": "address",
          "name": "from",
          "type": "address"
        },
        {
          "indexed": true,
          "internalType": "address",
          "name": "to",
          "type": "address"
        },
        {
          "indexed": false,
          "internalType": "uint256",
          "name": "value",
          "type": "uint256"
        }
      ],
      "name": "Transfer",
      "type": "event"
    },
    {
      "anonymous": false,
      "inputs": [
        {
          "indexed": false,
          "internalType": "address",
          "name": "account",
          "type": "address"
        }
      ],
      "name": "Unpaused",
      "type": "event"
    },
    {
      "anonymous": false,
      "inputs": [
        {
          "indexed": true,
          "internalType": "address",
          "name": "verifier",
          "type": "address"
        },
        {
          "indexed": true,
          "internalType": "address",
          "name": "subject",
          "type": "address"
        },
        {
          "indexed": false,
          "internalType": "string",
          "name": "credentialType",
          "type": "string"
        },
        {
          "indexed": false,
          "internalType": "uint256",
          "name": "cost",
          "type": "uint256"
        },
        {
          "indexed": false,
          "internalType": "uint256",
          "name": "reward",
          "type": "uint256"
        }
      ],
      "name": "VerificationProcessed",
      "type": "event"
    },
    {
      "inputs": [],
      "name": "INITIAL_SUPPLY",
      "outputs": [
        {
          "internalType": "uint256",
          "name": "",
          "type": "uint256"
        }
      ],
      "stateMutability": "view",
      "type": "function"
    },
    {
      "inputs": [],
      "name": "MAX_SUPPLY",
      "outputs": [
        {
          "internalType": "uint256",
          "name": "",
          "type": "uint256"
        }
      ],
      "stateMutability": "view",
      "type": "function"
    },
    {
      "inputs": [],
      "name": "MIN_SUPPLY",
      "outputs": [
        {
          "internalType": "uint256",
          "name": "",
          "type": "uint256"
        }
      ],
      "stateMutability": "view",
      "type": "function"
    },
    {
      "inputs": [
        {
          "internalType": "address",
          "name": "owner",
          "type": "address"
        },
        {
          "internalType": "address",
          "name": "spender",
          "type": "address"
        }
      ],
      "name": "allowance",
      "outputs": [
        {
          "internalType": "uint256",
          "name": "",
          "type": "uint256"
        }
      ],
      "stateMutability": "view",
      "type": "function"
    },
    {
      "inputs": [
        {
          "internalType": "address",
          "name": "spender",
          "type": "address"
        },
        {
          "internalType": "uint256",
          "name": "amount",
          "type": "uint256"
        }
      ],
      "name": "approve",
      "outputs": [
        {
          "internalType": "bool",
          "name": "",
          "type": "bool"
        }
      ],
      "stateMutability": "nonpayable",
      "type": "function"
    },
    {
      "inputs": [
        {
          "internalType": "address",
          "name": "account",
          "type": "address"
        }
      ],
      "name": "balanceOf",
      "outputs": [
        {
          "internalType": "uint256",
          "name": "",
          "type": "uint256"
        }
      ],
      "stateMutability": "view",
      "type": "function"
    },
    {
      "inputs": [
        {
          "internalType": "uint256",
          "name": "amount",
          "type": "uint256"
        }
      ],
      "name": "burn",
      "outputs": [],
      "stateMutability": "nonpayable",
      "type": "function"
    },
    {
      "inputs": [
        {
          "internalType": "address",
          "name": "account",
          "type": "address"
        },
        {
          "internalType": "uint256",
          "name": "amount",
          "type": "uint256"
        }
      ],
      "name": "burnFrom",
      "outputs": [],
      "stateMutability": "nonpayable",
      "type": "function"
    },
    {
      "inputs": [
        {
          "internalType": "uint256",
          "name": "amount",
          "type": "uint256"
        },
        {
          "internalType": "string",
          "name": "reason",
          "type": "string"
        }
      ],
      "name": "burnWithReason",
      "outputs": [],
      "stateMutability": "nonpayable",
      "type": "function"
    },
    {
      "inputs": [],
      "name": "calculateHealthScore",
      "outputs": [
        {
          "internalType": "uint256",
          "name": "",
          "type": "uint256"
        }
      ],
      "stateMutability": "view",
      "type": "function"
    },
    {
      "inputs": [
        {
          "internalType": "uint256",
          "name": "amount",
          "type": "uint256"
        },
        {
          "internalType": "uint256",
          "name": "duration",
          "type": "uint256"
        },
        {
          "internalType": "uint256",
          "name": "apy",
          "type": "uint256"
        }
      ],
      "name": "calculateStakingReward",
      "outputs": [
        {
          "internalType": "uint256",
          "name": "",
          "type": "uint256"
        }
      ],
      "stateMutability": "pure",
      "type": "function"
    },
    {
      "inputs": [],
      "name": "decimals",
      "outputs": [
        {
          "internalType": "uint8",
          "name": "",
          "type": "uint8"
        }
      ],
      "stateMutability": "view",
      "type": "function"
    },
    {
      "inputs": [
        {
          "internalType": "address",
          "name": "spender",
          "type": "address"
        },
        {
          "internalType": "uint256",
          "name": "subtractedValue",
          "type": "uint256"
        }
      ],
      "name": "decreaseAllowance",
      "outputs": [
        {
          "internalType": "bool",
          "name": "",
          "type": "bool"
        }
      ],
      "stateMutability": "nonpayable",
      "type": "function"
    },
    {
      "inputs": [
        {
          "internalType": "address",
          "name": "user",
          "type": "address"
        },
        {
          "internalType": "uint256",
          "name": "stakeIndex",
          "type": "uint256"
        }
      ],
      "name": "emergencyWithdrawStake",
      "outputs": [],
      "stateMutability": "nonpayable",
      "type": "function"
    },
    {
      "inputs": [],
      "name": "getRecentBurnAmount",
      "outputs": [
        {
          "internalType": "uint256",
          "name": "",
          "type": "uint256"
        }
      ],
      "stateMutability": "view",
      "type": "function"
    },
    {
      "inputs": [],
      "name": "getTokenStatistics",
      "outputs": [
        {
          "internalType": "uint256",
          "name": "_totalSupply",
          "type": "uint256"
        },
        {
          "internalType": "uint256",
          "name": "_maxSupply",
          "type": "uint256"
        },
        {
          "internalType": "uint256",
          "name": "_minSupply",
          "type": "uint256"
        },
        {
          "internalType": "uint256",
          "name": "_totalBurned",
          "type": "uint256"
        },
        {
          "internalType": "uint256",
          "name": "_totalMinted",
          "type": "uint256"
        },
        {
          "internalType": "uint256",
          "name": "_totalStaked",
          "type": "uint256"
        },
        {
          "internalType": "uint256",
          "name": "_totalTransactions",
          "type": "uint256"
        },
        {
          "internalType": "uint256",
          "name": "_totalVerifications",
          "type": "uint256"
        },
        {
          "internalType": "uint256",
          "name": "_activeStakers",
          "type": "uint256"
        }
      ],
      "stateMutability": "view",
      "type": "function"
    },
    {
      "inputs": [
        {
          "internalType": "address",
          "name": "user",
          "type": "address"
        }
      ],
      "name": "getUserStakes",
      "outputs": [
        {
          "components": [
            {
              "internalType": "uint256",
              "name": "amount",
              "type": "uint256"
            },
            {
              "internalType": "uint256",
              "name": "startTime",
              "type": "uint256"
            },
            {
              "internalType": "uint256",
              "name": "endTime",
              "type": "uint256"
            },
            {
              "internalType": "uint256",
              "name": "apy",
              "type": "uint256"
            },
            {
              "internalType": "bool",
              "name": "active",
              "type": "bool"
            }
          ],
          "internalType": "struct VeriToken.Stake[]",
          "name": "",
          "type": "tuple[]"
        }
      ],
      "stateMutability": "view",
      "type": "function"
    },
    {
      "inputs": [
        {
          "internalType": "string",
          "name": "credentialType",
          "type": "string"
        }
      ],
      "name": "getVerificationCost",
      "outputs": [
        {
          "internalType": "uint256",
          "name": "",
          "type": "uint256"
        }
      ],
      "stateMutability": "view",
      "type": "function"
    },
    {
      "inputs": [
        {
          "internalType": "address",
          "name": "account",
          "type": "address"
        }
      ],
      "name": "getVotingPower",
      "outputs": [
        {
          "internalType": "uint256",
          "name": "",
          "type": "uint256"
        }
      ],
      "stateMutability": "view",
      "type": "function"
    },
    {
      "inputs": [
        {
          "internalType": "address",
          "name": "spender",
          "type": "address"
        },
        {
          "internalType": "uint256",
          "name": "addedValue",
          "type": "uint256"
        }
      ],
      "name": "increaseAllowance",
      "outputs": [
        {
          "internalType": "bool",
          "name": "",
          "type": "bool"
        }
      ],
      "stateMutability": "nonpayable",
      "type": "function"
    },
    {
      "inputs": [
        {
          "internalType": "address",
          "name": "to",
          "type": "address"
        },
        {
          "internalType": "uint256",
          "name": "amount",
          "type": "uint256"
        },
        {
          "internalType": "string",
          "name": "reason",
          "type": "string"
        }
      ],
      "name": "mint",
      "outputs": [],
      "stateMutability": "nonpayable",
      "type": "function"
    },
    {
      "inputs": [],
      "name": "name",
      "outputs": [
        {
          "internalType": "string",
          "name": "",
          "type": "string"
        }
      ],
      "stateMutability": "view",
      "type": "function"
    },
    {
      "inputs": [],
      "name": "owner",
      "outputs": [
        {
          "internalType": "address",
          "name": "",
          "type": "address"
        }
      ],
      "stateMutability": "view",
      "type": "function"
    },
    {
      "inputs": [],
      "name": "pause",
      "outputs": [],
      "stateMutability": "nonpayable",
      "type": "function"
    },
    {
      "inputs": [],
      "name": "paused",
      "outputs": [
        {
          "internalType": "bool",
          "name": "",
          "type": "bool"
        }
      ],
      "stateMutability": "view",
      "type": "function"
    },
    {
      "inputs": [],
      "name": "processDailyRewards",
      "outputs": [],
      "stateMutability": "nonpayable",
      "type": "function"
    },
    {
      "inputs": [
        {
          "internalType": "address",
          "name": "verifier",
          "type": "address"
        },
        {
          "internalType": "address",
          "name": "subject",
          "type": "address"
        },
        {
          "internalType": "string",
          "name": "credentialType",
          "type": "string"
        }
      ],
      "name": "processVerification",
      "outputs": [],
      "stateMutability": "nonpayable",
      "type": "function"
    },
    {
      "inputs": [],
      "name": "renounceOwnership",
      "outputs": [],
      "stateMutability": "nonpayable",
      "type": "function"
    },
    {
      "inputs": [
        {
          "internalType": "uint256",
          "name": "amount",
          "type": "uint256"
        },
        {
          "internalType": "uint256",
          "name": "duration",
          "type": "uint256"
        }
      ],
      "name": "stake",
      "outputs": [],
      "stateMutability": "nonpayable",
      "type": "function"
    },
    {
      "inputs": [
        {
          "internalType": "address",
          "name": "",
          "type": "address"
        }
      ],
      "name": "stakedBalances",
      "outputs": [
        {
          "internalType": "uint256",
          "name": "",
          "type": "uint256"
        }
      ],
      "stateMutability": "view",
      "type": "function"
    },
    {
      "inputs": [],
      "name": "stats",
      "outputs": [
        {
          "internalType": "uint256",
          "name": "totalBurned",
          "type": "uint256"
        },
        {
          "internalType": "uint256",
          "name": "totalMinted",
          "type": "uint256"
        },
        {
          "internalType": "uint256",
          "name": "totalStaked",
          "type": "uint256"
        },
        {
          "internalType": "uint256",
          "name": "totalTransactions",
          "type": "uint256"
        },
        {
          "internalType": "uint256",
          "name": "totalVerifications",
          "type": "uint256"
        },
        {
          "internalType": "uint256",
          "name": "activeStakers",
          "type": "uint256"
        },
        {
          "internalType": "uint256",
          "name": "blockNumber",
          "type": "uint256"
        }
      ],
      "stateMutability": "view",
      "type": "function"
    },
    {
      "inputs": [],
      "name": "symbol",
      "outputs": [
        {
          "internalType": "string",
          "name": "",
          "type": "string"
        }
      ],
      "stateMutability": "view",
      "type": "function"
    },
    {
      "inputs": [],
      "name": "tokenomics",
      "outputs": [
        {
          "internalType": "uint256",
          "name": "transactionBurnRate",
          "type": "uint256"
        },
        {
          "internalType": "uint256",
          "name": "verificationBurnRate",
          "type": "uint256"
        },
        {
          "internalType": "uint256",
          "name": "stakingBurnRate",
          "type": "uint256"
        },
        {
          "internalType": "uint256",
          "name": "validatorRewardRate",
          "type": "uint256"
        },
        {
          "internalType": "uint256",
          "name": "loyaltyRewardRate",
          "type": "uint256"
        },
        {
          "internalType": "uint256",
          "name": "developmentFundRate",
          "type": "uint256"
        },
        {
          "internalType": "uint256",
          "name": "maxBurnPerBlock",
          "type": "uint256"
        },
        {
          "internalType": "uint256",
          "name": "maxMintPerBlock",
          "type": "uint256"
        },
        {
          "internalType": "uint256",
          "name": "burnToMintRatio",
          "type": "uint256"
        },
        {
          "internalType": "uint256",
          "name": "stakingAPY",
          "type": "uint256"
        },
        {
          "internalType": "uint256",
          "name": "minStakingAmount",
          "type": "uint256"
        },
        {
          "internalType": "uint256",
          "name": "stakingLockPeriod",
          "type": "uint256"
        },
        {
          "internalType": "uint256",
          "name": "proposalCost",
          "type": "uint256"
        },
        {
          "internalType": "uint256",
          "name": "votingPower",
          "type": "uint256"
        }
      ],
      "stateMutability": "view",
      "type": "function"
    },
    {
      "inputs": [],
      "name": "totalSupply",
      "outputs": [
        {
          "internalType": "uint256",
          "name": "",
          "type": "uint256"
        }
      ],
      "stateMutability": "view",
      "type": "function"
    },
    {
      "inputs": [
        {
          "internalType": "address",
          "name": "to",
          "type": "address"
        },
        {
          "internalType": "uint256",
          "name": "amount",
          "type": "uint256"
        }
      ],
      "name": "transfer",
      "outputs": [
        {
          "internalType": "bool",
          "name": "",
          "type": "bool"
        }
      ],
      "stateMutability": "nonpayable",
      "type": "function"
    },
    {
      "inputs": [
        {
          "internalType": "address",
          "name": "from",
          "type": "address"
        },
        {
          "internalType": "address",
          "name": "to",
          "type": "address"
        },
        {
          "internalType": "uint256",
          "name": "amount",
          "type": "uint256"
        }
      ],
      "name": "transferFrom",
      "outputs": [
        {
          "internalType": "bool",
          "name": "",
          "type": "bool"
        }
      ],
      "stateMutability": "nonpayable",
      "type": "function"
    },
    {
      "inputs": [
        {
          "internalType": "address",
          "name": "newOwner",
          "type": "address"
        }
      ],
      "name": "transferOwnership",
      "outputs": [],
      "stateMutability": "nonpayable",
      "type": "function"
    },
    {
      "inputs": [],
      "name": "unpause",
      "outputs": [],
      "stateMutability": "nonpayable",
      "type": "function"
    },
    {
      "inputs": [
        {
          "internalType": "uint256",
          "name": "stakeIndex",
          "type": "uint256"
        }
      ],
      "name": "unstake",
      "outputs": [],
      "stateMutability": "nonpayable",
      "type": "function"
    },
    {
      "inputs": [
        {
          "internalType": "string",
          "name": "parameter",
          "type": "string"
        },
        {
          "internalType": "uint256",
          "name": "newValue",
          "type": "uint256"
        }
      ],
      "name": "updateTokenomics",
      "outputs": [],
      "stateMutability": "nonpayable",
      "type": "function"
    },
    {
      "inputs": [
        {
          "internalType": "string",
          "name": "credentialType",
          "type": "string"
        },
        {
          "internalType": "uint256",
          "name": "newCost",
          "type": "uint256"
        }
      ],
      "name": "updateVerificationCost",
      "outputs": [],
      "stateMutability": "nonpayable",
      "type": "function"
    },
    {
      "inputs": [
        {
          "internalType": "address",
          "name": "",
          "type": "address"
        },
        {
          "internalType": "uint256",
          "name": "",
          "type": "uint256"
        }
      ],
      "name": "userStakes",
      "outputs": [
        {
          "internalType": "uint256",
          "name": "amount",
          "type": "uint256"
        },
        {
          "internalType": "uint256",
          "name": "startTime",
          "type": "uint256"
        },
        {
          "internalType": "uint256",
          "name": "endTime",
          "type": "uint256"
        },
        {
          "internalType": "uint256",
          "name": "apy",
          "type": "uint256"
        },
        {
          "internalType": "bool",
          "name": "active",
          "type": "bool"
        }
      ],
      "stateMutability": "view",
      "type": "function"
    },
    {
      "inputs": [
        {
          "internalType": "string",
          "name": "",
          "type": "string"
        }
      ],
      "name": "verificationCosts",
      "outputs": [
        {
          "internalType": "uint256",
          "name": "",
          "type": "uint256"
        }
      ],
      "stateMutability": "view",
      "type": "function"
    }
  ],
  "bytecode": "0x60806040523480156200001157600080fd5b50604051806040016040528060098152602001682b32b934aa37b5b2b760b91b815250604051806040016040528060048152602001635645524960e01b815250816003908162000062919062000575565b50600462000071828262000575565b5050506200008e62000088620003b060201b60201c565b620003b4565b6005805460ff60a01b191690556001600655604080516101c0810182526064808252603260208301819052600a8385018190526014606085018190526080850182905260a0850182905269d3c21bcecceda100000060c086018190526969e10de76676d080000060e0870181905260c861010088018190526101f46101208901819052683635c9adc5dea000006101408a0181905262278d006101608b0181905269021e19e0c9bab24000006101808c0181905268056bc75e2d631000006101a0909c018c905260079a909a556008989098556009879055858755600b879055600c96909655600d93909355600e91909155600f556010556011919091556012919091556013919091558190559051601e90620001bf906d62617369635f6964656e7469747960901b8152600e0190565b90815260408051918290036020018220929092556a6b79635f6c6576656c5f3160a81b8152601e600b808301829052835192839003602b9081018420681b1ae4d6e2ef50000090556a35bcb1afb632bb32b62f9960a91b845283820183905284519384900381018420683635c9adc5dea0000090556a6b79635f6c6576656c5f3360a81b8452908301829052835192839003018220686c6b935b8bbd40000090557f627573696e6573735f766572696669636174696f6e00000000000000000000008252601582018190528251918290036035018220685150ae84a8cdf0000090557f70726f647563745f61757468656e7469636974790000000000000000000000008252601482018190528251918290036034018220681043561a882930000090556f3d35b82fbb32b934b334b1b0ba34b7b760811b825260108201529051908190036030019020680ad78ebc5ac6200000905560006200032f60056b033b2e3c9fd0803ce800000062000641565b90506200033d338262000406565b601681905560405133907f9d89e36eadf856db0ad9ffb5a569e07f95634dddd9501141ecf04820484ad0dc90620003a190848152604060208201819052601290820152713337bab73232b92fb0b63637b1b0ba34b7b760711b606082015260800190565b60405180910390a2506200068c565b3390565b600580546001600160a01b038381166001600160a01b0319831681179093556040519116919082907f8be0079c531659141344cd1fd0a4f28419497f9722a3daafe3b4186f6b6457e090600090a35050565b6001600160a01b038216620004615760405162461bcd60e51b815260206004820152601f60248201527f45524332303a206d696e7420746f20746865207a65726f206164647265737300604482015260640160405180910390fd5b806002600082825462000475919062000664565b90915550506001600160a01b038216600081815260208181526040808320805486019055518481527fddf252ad1be2c89b69c2b068fc378daa952ba7f163c4a11628f55a4df523b3ef910160405180910390a35050565b505050565b634e487b7160e01b600052604160045260246000fd5b600181811c90821680620004fc57607f821691505b6020821081036200051d57634e487b7160e01b600052602260045260246000fd5b50919050565b601f821115620004cc57600081815260208120601f850160051c810160208610156200054c5750805b601f850160051c820191505b818110156200056d5782815560010162000558565b505050505050565b81516001600160401b03811115620005915762000591620004d1565b620005a981620005a28454620004e7565b8462000523565b602080601f831160018114620005e15760008415620005c85750858301515b600019600386901b1c1916600185901b1785556200056d565b600085815260208120601f198616915b828110156200061257888601518255948401946001909101908401620005f1565b5085821015620006315787850151600019600388901b60f8161c191681555b5050505050600190811b01905550565b6000826200065f57634e487b7160e01b600052601260045260246000fd5b500490565b808201808211156200068657634e487b7160e01b600052601160045260246000fd5b92915050565b612b8a806200069c6000396000f3fe608060405234801561001057600080fd5b50600436106102695760003560e01c80635b8e82641161015157806398425171116100c3578063bb4d443611610087578063bb4d44361461064b578063d3fc98641461065e578063d80528ae14610671578063dd62ed3e146106c8578063f2fde38b146106db578063fbda31b0146106ee57600080fd5b806398425171146105cd5780639f3148a9146105d5578063a457c2d7146105e8578063a9059cbb146105fb578063b5d5b5fa1461060e57600080fd5b80637b0472f0116101155780637b0472f01461055c57806380b01b611461056f578063842e2981146105825780638456cb59146105a25780638da5cb5b146105aa57806395d89b41146105c557600080fd5b80635b8e8264146104db5780635c975abb1461050657806370a0823114610518578063715018a61461054157806379cc67901461054957600080fd5b80632ff2e9dc116101ea57806335917c64116101ae57806335917c64146103e257806339509351146103f45780633f4ba83a1461040757806342966c681461040f5780634ac7251d14610422578063558ee223146104c857600080fd5b80632ff2e9dc14610392578063313ce567146103a55780633194dc5e146103b457806332cb6b0c146103c757806333d2499d146103da57600080fd5b806318160ddd1161023157806318160ddd1461033e57806319086feb146103465780631b8d14011461035957806323b872dd1461036c5780632e17de781461037f57600080fd5b806306fdde031461026e57806308a415571461028c578063091273a7146102d8578063095ea7b3146102ed5780631460fa8714610310575b600080fd5b6102766106f6565b60405161028391906125af565b60405180910390f35b610294610788565b60408051998a5260208a0198909852968801959095526060870193909352608086019190915260a085015260c084015260e083015261010082015261012001610283565b6102eb6102e6366004612665565b6107e4565b005b6103006102fb3660046126c8565b6109a9565b6040519015158152602001610283565b61033061031e3660046126f2565b601d6020526000908152604090205481565b604051908152602001610283565b600254610330565b61033061035436600461270d565b6109c3565b61033061036736600461274a565b610a07565b61030061037a366004612776565b610a48565b6102eb61038d3660046127b2565b610a72565b6103306b033b2e3c9fd0803ce800000081565b60405160128152602001610283565b6102eb6103c23660046126c8565b610d59565b6103306b1027e72f1f1281308800000081565b601554610330565b6103306a52b7d2dcc80cd2e400000081565b6103006104023660046126c8565b610ea9565b6102eb610ecb565b6102eb61041d3660046127b2565b610edd565b600754600854600954600a54600b54600c54600d54600e54600f546010546011546012546013546014546104609d9c9b9a999897969594939291908e565b604080519e8f5260208f019d909d529b8d019a909a5260608c019890985260808b019690965260a08a019490945260c089019290925260e08801526101008701526101208601526101408501526101608401526101808301526101a08201526101c001610283565b6102eb6104d63660046127cb565b610ee7565b6103306104e936600461270d565b8051602081830181018051601e8252928201919093012091525481565b600554600160a01b900460ff16610300565b6103306105263660046126f2565b6001600160a01b031660009081526020819052604090205490565b6102eb61113f565b6102eb6105573660046126c8565b611151565b6102eb61056a366004612829565b61116a565b6102eb61057d36600461284b565b6113d5565b6105956105903660046126f2565b611582565b6040516102839190612890565b6102eb611628565b6005546040516001600160a01b039091168152602001610283565b610276611638565b6102eb611647565b6102eb6105e336600461284b565b61166d565b6103006105f63660046126c8565b6116ea565b6103006106093660046126c8565b611770565b61062161061c3660046126c8565b611785565b6040805195865260208601949094529284019190915260608301521515608082015260a001610283565b6103306106593660046126f2565b6117d6565b6102eb61066c366004612900565b611813565b601554601654601754601854601954601a54601b546106939695949392919087565b604080519788526020880196909652948601939093526060850191909152608084015260a083015260c082015260e001610283565b6103306106d6366004612941565b611b2e565b6102eb6106e93660046126f2565b611b59565b610330611bcf565b60606003805461070590612974565b80601f016020809104026020016040519081016040528092919081815260200182805461073190612974565b801561077e5780601f106107535761010080835404028352916020019161077e565b820191906000526020600020905b81548152906001019060200180831161076157829003601f168201915b5050505050905090565b600080600080600080600080600061079f60025490565b601554601654601754601854601954601a54959f6b1027e72f1f128130880000009f506a52b7d2dcc80cd2e40000009e50949c50929a50909850965094509092509050565b6107ec611d17565b600082116108415760405162461bcd60e51b815260206004820181905260248201527f416d6f756e74206d7573742062652067726561746572207468616e207a65726f60448201526064015b60405180910390fd5b336000908152602081905260409020548211156108975760405162461bcd60e51b8152602060048201526014602482015273496e73756666696369656e742062616c616e636560601b6044820152606401610838565b6a52b7d2dcc80cd2e4000000826108ad60025490565b6108b791906129c4565b10156109055760405162461bcd60e51b815260206004820181905260248201527f43616e6e6f74206275726e2062656c6f77206d696e696d756d20737570706c796044820152606401610838565b600d548211156109575760405162461bcd60e51b815260206004820152601c60248201527f45786365656473207065722d626c6f636b206275726e206c696d6974000000006044820152606401610838565b6109613383611d64565b816015600001600082825461097691906129d7565b90915550506040513390600080516020612b358339815191529061099d90859085906129ea565b60405180910390a25050565b6000336109b7818585611e97565b60019150505b92915050565b600080601e836040516109d69190612a03565b9081526020016040518091039020549050600081116109fe5768056bc75e2d63100000610a00565b805b9392505050565b600080612710610a178487612a1f565b610a219190612a36565b905060006301e13380610a348684612a1f565b610a3e9190612a36565b9695505050505050565b6000610a52611d17565b33610a5e858285611fb3565b610a69858585612027565b95945050505050565b610a7a612189565b610a82611d17565b336000908152601c60205260409020548110610ad65760405162461bcd60e51b8152602060048201526013602482015272092dcecc2d8d2c840e6e8c2d6ca40d2dcc8caf606b1b6044820152606401610838565b336000908152601c60205260408120805483908110610af757610af7612a58565b60009182526020909120600590910201600481015490915060ff16610b515760405162461bcd60e51b815260206004820152601060248201526f5374616b65206e6f742061637469766560801b6044820152606401610838565b8054600282015442818110159160009111610b7a576001840154610b7590426129c4565b610b8e565b83600101548460020154610b8e91906129c4565b90506000610ba184838760030154610a07565b9050600083610bb857610bb5601486612a36565b90505b6000610bc482876129c4565b60048801805460ff19169055336000908152601d6020526040812080549293508892909190610bf49084906129c4565b909155505060178054879190600090610c0e9084906129c4565b90915550610c1f90503033836121e2565b600083118015610c4e57506b1027e72f1f1281308800000083610c4160025490565b610c4b91906129d7565b11155b15610c7857610c5d338461230c565b8260156001016000828254610c7291906129d7565b90915550505b8115610d0257610c883083611d64565b8160156000016000828254610c9d91906129d7565b90915550506040513090600080516020612b3583398151915290610cf9908581526040602082018190526017908201527f6561726c795f756e7374616b696e675f70656e616c7479000000000000000000606082015260800190565b60405180910390a25b604080518281526020810185905290810183905233907fba28b0c1ecdb762c56c12f6843b89de0bd02ac5a10b2f1e5f0e4f2bf23d76a1c9060600160405180910390a250505050505050610d566001600655565b50565b610d616123cb565b6001600160a01b0382166000908152601c60205260409020548110610dbe5760405162461bcd60e51b8152602060048201526013602482015272092dcecc2d8d2c840e6e8c2d6ca40d2dcc8caf606b1b6044820152606401610838565b6001600160a01b0382166000908152601c60205260408120805483908110610de857610de8612a58565b60009182526020909120600590910201600481015490915060ff16610e425760405162461bcd60e51b815260206004820152601060248201526f5374616b65206e6f742061637469766560801b6044820152606401610838565b805460048201805460ff191690556001600160a01b0384166000908152601d602052604081208054839290610e789084906129c4565b909155505060178054829190600090610e929084906129c4565b90915550610ea390503085836121e2565b50505050565b6000336109b7818585610ebc8383611b2e565b610ec691906129d7565b611e97565b610ed36123cb565b610edb612425565b565b610d563382611d64565b610eef6123cb565b610ef7611d17565b6000610f02826109c3565b905080610f24856001600160a01b031660009081526020819052604090205490565b1015610f805760405162461bcd60e51b815260206004820152602560248201527f496e73756666696369656e742062616c616e636520666f72207665726966696360448201526430ba34b7b760d91b6064820152608401610838565b610f8a8482611d64565b8060156000016000828254610f9f91906129d7565b9091555050600a5460009061271090610fb89084612a1f565b610fc29190612a36565b90506b1027e72f1f1281308800000081610fdb60025490565b610fe591906129d7565b1161100f57610ff4858261230c565b806015600101600082825461100991906129d7565b90915550505b6019805490600061101f83612a6e565b9190505550836001600160a01b0316856001600160a01b03167f73af6d4c0d49c107d61057c2c8eadee429c2160bfc1acfaf3f454639fdd9e64185858560405161106b93929190612a87565b60405180910390a3846001600160a01b0316600080516020612b35833981519152836040516110c5918152604060208201819052601190820152703b32b934b334b1b0ba34b7b72fb13ab93760791b606082015260800190565b60405180910390a2846001600160a01b03167f9d89e36eadf856db0ad9ffb5a569e07f95634dddd9501141ecf04820484ad0dc826040516111309181526040602082018190526010908201526f1d985b1a59185d1bdc97dc995dd85c9960821b606082015260800190565b60405180910390a25050505050565b6111476123cb565b610edb600061247a565b61115c823383611fb3565b6111668282611d64565b5050565b611172612189565b61117a611d17565b6011548210156111cc5760405162461bcd60e51b815260206004820152601c60248201527f42656c6f77206d696e696d756d207374616b696e6720616d6f756e74000000006044820152606401610838565b336000908152602081905260409020548211156112225760405162461bcd60e51b8152602060048201526014602482015273496e73756666696369656e742062616c616e636560601b6044820152606401610838565b60125481101561127f5760405162461bcd60e51b815260206004820152602260248201527f4475726174696f6e2062656c6f77206d696e696d756d206c6f636b20706572696044820152611bd960f21b6064820152608401610838565b61128a3330846121e2565b60006040518060a0016040528084815260200142815260200183426112af91906129d7565b815260105460208083019190915260016040928301819052336000818152601c845284812080548085018255908252848220875160059092020190815586850151938101939093558585015160028401556060860151600384015560808601516004909301805460ff1916931515939093179092558152601d909152908120805492935085929091906113439084906129d7565b90915550506017805484919060009061135d9084906129d7565b9091555050336000908152601c602052604090205460010361138f57601a805490600061138983612a6e565b91905055505b604080518481526020810184905233917fdd2a19c3bdd089cbe77c04f5655f83de0504d6140d12c8667646f55d0557c4dc910160405180910390a2506111666001600655565b6113dd6123cb565b6040805180820190915260138152727472616e73616374696f6e4275726e5261746560681b6020918201528251908301206000907f4d6527e8084927457a37e2cbd096d1a66ba61ad2f14c0052ac37790c261d52cc0161144557506007805490829055611542565b60408051808201909152600a8152697374616b696e6741505960b01b6020918201528351908401207f02391613cb379bccae74089472d6b399303897ba5e215c6d1b49068db6dcf774016114a157506010805490829055611542565b60408051808201909152601381527219dbdd995c9b985b98d9551a1c995cda1bdb19606a1b6020918201528351908401207fa2c4e64a6997a78c11a08c9818160f3582501ee23b1a2eddaa84b5e5abc753870161150657506013805490829055611542565b60405162461bcd60e51b815260206004820152601160248201527024b73b30b634b2103830b930b6b2ba32b960791b6044820152606401610838565b7fbb13b39cdd51634b3a5263e84b984b0d4d5ceea41cdd6ca5a1f474f5bd1d9dfa83828460405161157593929190612a87565b60405180910390a1505050565b6001600160a01b0381166000908152601c60209081526040808320805482518185028101850190935280835260609492939192909184015b8282101561161d5760008481526020908190206040805160a081018252600586029092018054835260018082015484860152600282015492840192909252600381015460608401526004015460ff161515608083015290835290920191016115ba565b505050509050919050565b6116306123cb565b610edb6124cc565b60606004805461070590612974565b61164f6123cb565b6105a06015600601600082825461166691906129d7565b9091555050565b6116756123cb565b600081116116c55760405162461bcd60e51b815260206004820152601e60248201527f436f7374206d7573742062652067726561746572207468616e207a65726f00006044820152606401610838565b80601e836040516116d69190612a03565b908152604051908190036020019020555050565b600033816116f88286611b2e565b9050838110156117585760405162461bcd60e51b815260206004820152602560248201527f45524332303a2064656372656173656420616c6c6f77616e63652062656c6f77604482015264207a65726f60d81b6064820152608401610838565b6117658286868403611e97565b506001949350505050565b600061177a611d17565b610a00338484612027565b601c60205281600052604060002081815481106117a157600080fd5b600091825260209091206005909102018054600182015460028301546003840154600490940154929550909350919060ff1685565b6014546001600160a01b0382166000908152601d60209081526040808320549183905282205491929161180991906129d7565b6109bd9190612a36565b61181b6123cb565b611823611d17565b6001600160a01b0383166118795760405162461bcd60e51b815260206004820152601b60248201527f43616e6e6f74206d696e7420746f207a65726f206164647265737300000000006044820152606401610838565b600082116118c95760405162461bcd60e51b815260206004820181905260248201527f416d6f756e74206d7573742062652067726561746572207468616e207a65726f6044820152606401610838565b6b1027e72f1f12813088000000826118e060025490565b6118ea91906129d7565b11156119315760405162461bcd60e51b815260206004820152601660248201527545786365656473206d6178696d756d20737570706c7960501b6044820152606401610838565b600e548211156119835760405162461bcd60e51b815260206004820152601c60248201527f45786365656473207065722d626c6f636b206d696e74206c696d6974000000006044820152606401610838565b60408051808201909152601481527334b734ba34b0b62fb234b9ba3934b13aba34b7b760611b6020918201528151908201207fe83ed2c8271a1a572dc2c79c3fdccebc40fb99921f1bb5d3d6cf0f52fb35885614801590611a3357506040805180820190915260128152713337bab73232b92fb0b63637b1b0ba34b7b760711b6020918201528151908201207fde88975e8465a411eaa09825b399c34e071b80ed2eb3170f4e4af3d163fc91a114155b15611ac0576000611a4360155490565b600f54909150600090611a5883612710612a1f565b611a629190612a36565b90508084111580611a71575081155b611abd5760405162461bcd60e51b815260206004820152601a60248201527f45786365656473206275726e2d746f2d6d696e7420726174696f0000000000006044820152606401610838565b50505b611aca838361230c565b8160156001016000828254611adf91906129d7565b92505081905550826001600160a01b03167f9d89e36eadf856db0ad9ffb5a569e07f95634dddd9501141ecf04820484ad0dc8383604051611b219291906129ea565b60405180910390a2505050565b6001600160a01b03918216600090815260016020908152604080832093909416825291909152205490565b611b616123cb565b6001600160a01b038116611bc65760405162461bcd60e51b815260206004820152602660248201527f4f776e61626c653a206e6577206f776e657220697320746865207a65726f206160448201526564647265737360d01b6064820152608401610838565b610d568161247a565b6016546000908103611be15750603290565b60165460155460009190611bf6906064612a1f565b611c009190612a36565b90506000611c0d60025490565b601754611c1b906064612a1f565b611c259190612a36565b905060006b1027e72f1f12813088000000611c3f60025490565b611c4a906064612a1f565b611c549190612a36565b9050600060968411611c7c576096611c6d856064612a1f565b611c779190612a36565b611c7f565b60645b90506000601e8411611ca757601e611c98856064612a1f565b611ca29190612a36565b611caa565b60645b9050600060328410611cc657611cc18460646129c4565b611cc9565b60645b90506064611cd882601e612a1f565b611ce384601e612a1f565b611cee866028612a1f565b611cf891906129d7565b611d0291906129d7565b611d0c9190612a36565b965050505050505090565b600554600160a01b900460ff1615610edb5760405162461bcd60e51b815260206004820152601060248201526f14185d5cd8589b194e881c185d5cd95960821b6044820152606401610838565b6001600160a01b038216611dc45760405162461bcd60e51b815260206004820152602160248201527f45524332303a206275726e2066726f6d20746865207a65726f206164647265736044820152607360f81b6064820152608401610838565b6001600160a01b03821660009081526020819052604090205481811015611e385760405162461bcd60e51b815260206004820152602260248201527f45524332303a206275726e20616d6f756e7420657863656564732062616c616e604482015261636560f01b6064820152608401610838565b6001600160a01b0383166000818152602081815260408083208686039055600280548790039055518581529192917fddf252ad1be2c89b69c2b068fc378daa952ba7f163c4a11628f55a4df523b3ef91015b60405180910390a3505050565b6001600160a01b038316611ef95760405162461bcd60e51b8152602060048201526024808201527f45524332303a20617070726f76652066726f6d20746865207a65726f206164646044820152637265737360e01b6064820152608401610838565b6001600160a01b038216611f5a5760405162461bcd60e51b815260206004820152602260248201527f45524332303a20617070726f766520746f20746865207a65726f206164647265604482015261737360f01b6064820152608401610838565b6001600160a01b0383811660008181526001602090815260408083209487168084529482529182902085905590518481527f8c5be1e5ebec7d5bd14f71427d1e84f3dd0314c0f7b2291e5b200ac8c7c3b9259101611e8a565b6000611fbf8484611b2e565b90506000198114610ea3578181101561201a5760405162461bcd60e51b815260206004820152601d60248201527f45524332303a20696e73756666696369656e7420616c6c6f77616e63650000006044820152606401610838565b610ea38484848403611e97565b60006001600160a01b03841661204f5760405162461bcd60e51b815260040161083890612aac565b6001600160a01b0383166120755760405162461bcd60e51b815260040161083890612af1565b600754600090612710906120899085612a1f565b6120939190612a36565b905060006120a182856129c4565b90506000821180156120d157506a52b7d2dcc80cd2e4000000826120c460025490565b6120ce91906129c4565b10155b1561215a576120e08683611d64565b81601560000160008282546120f591906129d7565b92505081905550856001600160a01b0316600080516020612b358339815191528360405161214d9181526040602082018190526010908201526f3a3930b739b0b1ba34b7b72fb13ab93760811b606082015260800190565b60405180910390a261215d565b50825b6121688686836121e2565b6018805490600061217883612a6e565b909155506001979650505050505050565b6002600654036121db5760405162461bcd60e51b815260206004820152601f60248201527f5265656e7472616e637947756172643a207265656e7472616e742063616c6c006044820152606401610838565b6002600655565b6001600160a01b0383166122085760405162461bcd60e51b815260040161083890612aac565b6001600160a01b03821661222e5760405162461bcd60e51b815260040161083890612af1565b6001600160a01b038316600090815260208190526040902054818110156122a65760405162461bcd60e51b815260206004820152602660248201527f45524332303a207472616e7366657220616d6f756e7420657863656564732062604482015265616c616e636560d01b6064820152608401610838565b6001600160a01b03848116600081815260208181526040808320878703905593871680835291849020805487019055925185815290927fddf252ad1be2c89b69c2b068fc378daa952ba7f163c4a11628f55a4df523b3ef910160405180910390a3610ea3565b6001600160a01b0382166123625760405162461bcd60e51b815260206004820152601f60248201527f45524332303a206d696e7420746f20746865207a65726f2061646472657373006044820152606401610838565b806002600082825461237491906129d7565b90915550506001600160a01b038216600081815260208181526040808320805486019055518481527fddf252ad1be2c89b69c2b068fc378daa952ba7f163c4a11628f55a4df523b3ef910160405180910390a35050565b6005546001600160a01b03163314610edb5760405162461bcd60e51b815260206004820181905260248201527f4f776e61626c653a2063616c6c6572206973206e6f7420746865206f776e65726044820152606401610838565b61242d61250f565b6005805460ff60a01b191690557f5db9ee0a495bf2e6ff9c91a7834c1ba4fdd244a5e8aa4e537bd38aeae4b073aa335b6040516001600160a01b03909116815260200160405180910390a1565b600580546001600160a01b038381166001600160a01b0319831681179093556040519116919082907f8be0079c531659141344cd1fd0a4f28419497f9722a3daafe3b4186f6b6457e090600090a35050565b6124d4611d17565b6005805460ff60a01b1916600160a01b1790557f62e78cea01bee320cd4e420270b5ea74000d11b0c9f74754ebdbfc544b05a25861245d3390565b600554600160a01b900460ff16610edb5760405162461bcd60e51b815260206004820152601460248201527314185d5cd8589b194e881b9bdd081c185d5cd95960621b6044820152606401610838565b60005b8381101561257a578181015183820152602001612562565b50506000910152565b6000815180845261259b81602086016020860161255f565b601f01601f19169290920160200192915050565b602081526000610a006020830184612583565b634e487b7160e01b600052604160045260246000fd5b600082601f8301126125e957600080fd5b813567ffffffffffffffff80821115612604576126046125c2565b604051601f8301601f19908116603f0116810190828211818310171561262c5761262c6125c2565b8160405283815286602085880101111561264557600080fd5b836020870160208301376000602085830101528094505050505092915050565b6000806040838503121561267857600080fd5b82359150602083013567ffffffffffffffff81111561269657600080fd5b6126a2858286016125d8565b9150509250929050565b80356001600160a01b03811681146126c357600080fd5b919050565b600080604083850312156126db57600080fd5b6126e4836126ac565b946020939093013593505050565b60006020828403121561270457600080fd5b610a00826126ac565b60006020828403121561271f57600080fd5b813567ffffffffffffffff81111561273657600080fd5b612742848285016125d8565b949350505050565b60008060006060848603121561275f57600080fd5b505081359360208301359350604090920135919050565b60008060006060848603121561278b57600080fd5b612794846126ac565b92506127a2602085016126ac565b9150604084013590509250925092565b6000602082840312156127c457600080fd5b5035919050565b6000806000606084860312156127e057600080fd5b6127e9846126ac565b92506127f7602085016126ac565b9150604084013567ffffffffffffffff81111561281357600080fd5b61281f868287016125d8565b9150509250925092565b6000806040838503121561283c57600080fd5b50508035926020909101359150565b6000806040838503121561285e57600080fd5b823567ffffffffffffffff81111561287557600080fd5b612881858286016125d8565b95602094909401359450505050565b602080825282518282018190526000919060409081850190868401855b828110156128f357815180518552868101518786015285810151868601526060808201519086015260809081015115159085015260a090930192908501906001016128ad565b5091979650505050505050565b60008060006060848603121561291557600080fd5b61291e846126ac565b925060208401359150604084013567ffffffffffffffff81111561281357600080fd5b6000806040838503121561295457600080fd5b61295d836126ac565b915061296b602084016126ac565b90509250929050565b600181811c9082168061298857607f821691505b6020821081036129a857634e487b7160e01b600052602260045260246000fd5b50919050565b634e487b7160e01b600052601160045260246000fd5b818103818111156109bd576109bd6129ae565b808201808211156109bd576109bd6129ae565b8281526040602082015260006127426040830184612583565b60008251612a1581846020870161255f565b9190910192915050565b80820281158282048414176109bd576109bd6129ae565b600082612a5357634e487b7160e01b600052601260045260246000fd5b500490565b634e487b7160e01b600052603260045260246000fd5b600060018201612a8057612a806129ae565b5060010190565b606081526000612a9a6060830186612583565b60208301949094525060400152919050565b60208082526025908201527f45524332303a207472616e736665722066726f6d20746865207a65726f206164604082015264647265737360d81b606082015260800190565b60208082526023908201527f45524332303a207472616e7366657220746f20746865207a65726f206164647260408201526265737360e81b60608201526080019056fefad31924d655455395c87544c8aa1ffdb5a7505a22a3c2e03f28003b6556a75fa2646970667358221220d40c01fbec2d3d2c51e4a744ab93acc7163f90ca77070057fa1045be806b0c2364736f6c63430008130033",
  "linkReferences": {},
  "deployedLinkReferences": {}
}