{"contracts/VeriToken.sol":{"VeriToken":{"abi":[{"inputs":[],"stateMutability":"nonpayable","type":"constructor"},{"anonymous":false,"inputs":[{"indexed":true,"internalType":"address","name":"owner","type":"address"},{"indexed":true,"internalType":"address","name":"spender","type":"address"},{"indexed":false,"internalType":"uint256","name":"value","type":"uint256"}],"name":"Approval","type":"event"},{"anonymous":false,"inputs":[{"indexed":true,"internalType":"address","name":"previousOwner","type":"address"},{"indexed":true,"internalType":"address","name":"newOwner","type":"address"}],"name":"OwnershipTransferred","type":"event"},{"anonymous":false,"inputs":[{"indexed":false,"internalType":"address","name":"account","type":"address"}],"name":"Paused","type":"event"},{"anonymous":false,"inputs":[{"indexed":false,"internalType":"string","name":"parameter","type":"string"},{"indexed":false,"internalType":"uint256","name":"oldValue","type":"uint256"},{"indexed":false,"internalType":"uint256","name":"newValue","type":"uint256"}],"name":"TokenomicsUpdated","type":"event"},{"anonymous":false,"inputs":[{"indexed":true,"internalType":"address","name":"from","type":"address"},{"indexed":false,"internalType":"uint256","name":"amount","type":"uint256"},{"indexed":false,"internalType":"string","name":"reason","type":"string"}],"name":"TokensBurned","type":"event"},{"anonymous":false,"inputs":[{"indexed":true,"internalType":"address","name":"to","type":"address"},{"indexed":false,"internalType":"uint256","name":"amount","type":"uint256"},{"indexed":false,"internalType":"string","name":"reason","type":"string"}],"name":"TokensMinted","type":"event"},{"anonymous":false,"inputs":[{"indexed":true,"internalType":"address","name":"staker","type":"address"},{"indexed":false,"internalType":"uint256","name":"amount","type":"uint256"},{"indexed":false,"internalType":"uint256","name":"duration","type":"uint256"}],"name":"TokensStaked","type":"event"},{"anonymous":false,"inputs":[{"indexed":true,"internalType":"address","name":"staker","type":"address"},{"indexed":false,"internalType":"uint256","name":"amount","type":"uint256"},{"indexed":false,"internalType":"uint256","name":"rewards","type":"uint256"},{"indexed":false,"internalType":"uint256","name":"penalty","type":"uint256"}],"name":"TokensUnstaked","type":"event"},{"anonymous":false,"inputs":[{"indexed":true,"internalType":"address","name":"from","type":"address"},{"indexed":true,"internalType":"address","name":"to","type":"address"},{"indexed":false,"internalType":"uint256","name":"value","type":"uint256"}],"name":"Transfer","type":"event"},{"anonymous":false,"inputs":[{"indexed":false,"internalType":"address","name":"account","type":"address"}],"name":"Unpaused","type":"event"},{"anonymous":false,"inputs":[{"indexed":true,"internalType":"address","name":"verifier","type":"address"},{"indexed":true,"internalType":"address","name":"subject","type":"address"},{"indexed":false,"internalType":"string","name":"credentialType","type":"string"},{"indexed":false,"internalType":"uint256","name":"cost","type":"uint256"},{"indexed":false,"internalType":"uint256","name":"reward","type":"uint256"}],"name":"VerificationProcessed","type":"event"},{"inputs":[],"name":"INITIAL_SUPPLY","outputs":[{"internalType":"uint256","name":"","type":"uint256"}],"stateMutability":"view","type":"function"},{"inputs":[],"name":"MAX_SUPPLY","outputs":[{"internalType":"uint256","name":"","type":"uint256"}],"stateMutability":"view","type":"function"},{"inputs":[],"name":"MIN_SUPPLY","outputs":[{"internalType":"uint256","name":"","type":"uint256"}],"stateMutability":"view","type":"function"},{"inputs":[{"internalType":"address","name":"owner","type":"address"},{"internalType":"address","name":"spender","type":"address"}],"name":"allowance","outputs":[{"internalType":"uint256","name":"","type":"uint256"}],"stateMutability":"view","type":"function"},{"inputs":[{"internalType":"address","name":"spender","type":"address"},{"internalType":"uint256","name":"amount","type":"uint256"}],"name":"approve","outputs":[{"internalType":"bool","name":"","type":"bool"}],"stateMutability":"nonpayable","type":"function"},{"inputs":[{"internalType":"address","name":"account","type":"address"}],"name":"balanceOf","outputs":[{"internalType":"uint256","name":"","type":"uint256"}],"stateMutability":"view","type":"function"},{"inputs":[{"internalType":"uint256","name":"amount","type":"uint256"}],"name":"burn","outputs":[],"stateMutability":"nonpayable","type":"function"},{"inputs":[{"internalType":"address","name":"account","type":"address"},{"internalType":"uint256","name":"amount","type":"uint256"}],"name":"burnFrom","outputs":[],"stateMutability":"nonpayable","type":"function"},{"inputs":[{"internalType":"uint256","name":"amount","type":"uint256"},{"internalType":"string","name":"reason","type":"string"}],"name":"burnWithReason","outputs":[],"stateMutability":"nonpayable","type":"function"},{"inputs":[],"name":"calculateHealthScore","outputs":[{"internalType":"uint256","name":"","type":"uint256"}],"stateMutability":"view","type":"function"},{"inputs":[{"internalType":"uint256","name":"amount","type":"uint256"},{"internalType":"uint256","name":"duration","type":"uint256"},{"internalType":"uint256","name":"apy","type":"uint256"}],"name":"calculateStakingReward","outputs":[{"internalType":"uint256","name":"","type":"uint256"}],"stateMutability":"pure","type":"function"},{"inputs":[],"name":"decimals","outputs":[{"internalType":"uint8","name":"","type":"uint8"}],"stateMutability":"view","type":"function"},{"inputs":[{"internalType":"address","name":"spender","type":"address"},{"internalType":"uint256","name":"subtractedValue","type":"uint256"}],"name":"decreaseAllowance","outputs":[{"internalType":"bool","name":"","type":"bool"}],"stateMutability":"nonpayable","type":"function"},{"inputs":[{"internalType":"address","name":"user","type":"address"},{"internalType":"uint256","name":"stakeIndex","type":"uint256"}],"name":"emergencyWithdrawStake","outputs":[],"stateMutability":"nonpayable","type":"function"},{"inputs":[],"name":"getRecentBurnAmount","outputs":[{"internalType":"uint256","name":"","type":"uint256"}],"stateMutability":"view","type":"function"},{"inputs":[],"name":"getTokenStatistics","outputs":[{"internalType":"uint256","name":"_totalSupply","type":"uint256"},{"internalType":"uint256","name":"_maxSupply","type":"uint256"},{"internalType":"uint256","name":"_minSupply","type":"uint256"},{"internalType":"uint256","name":"_totalBurned","type":"uint256"},{"internalType":"uint256","name":"_totalMinted","type":"uint256"},{"internalType":"uint256","name":"_totalStaked","type":"uint256"},{"internalType":"uint256","name":"_totalTransactions","type":"uint256"},{"internalType":"uint256","name":"_totalVerifications","type":"uint256"},{"internalType":"uint256","name":"_activeStakers","type":"uint256"}],"stateMutability":"view","type":"function"},{"inputs":[{"internalType":"address","name":"user","type":"address"}],"name":"getUserStakes","outputs":[{"components":[{"internalType":"uint256","name":"amount","type":"uint256"},{"internalType":"uint256","name":"startTime","type":"uint256"},{"internalType":"uint256","name":"endTime","type":"uint256"},{"internalType":"uint256","name":"apy","type":"uint256"},{"internalType":"bool","name":"active","type":"bool"}],"internalType":"struct VeriToken.Stake[]","name":"","type":"tuple[]"}],"stateMutability":"view","type":"function"},{"inputs":[{"internalType":"string","name":"credentialType","type":"string"}],"name":"getVerificationCost","outputs":[{"internalType":"uint256","name":"","type":"uint256"}],"stateMutability":"view","type":"function"},{"inputs":[{"internalType":"address","name":"account","type":"address"}],"name":"getVotingPower","outputs":[{"internalType":"uint256","name":"","type":"uint256"}],"stateMutability":"view","type":"function"},{"inputs":[{"internalType":"address","name":"spender","type":"address"},{"internalType":"uint256","name":"addedValue","type":"uint256"}],"name":"increaseAllowance","outputs":[{"internalType":"bool","name":"","type":"bool"}],"stateMutability":"nonpayable","type":"function"},{"inputs":[{"internalType":"address","name":"to","type":"address"},{"internalType":"uint256","name":"amount","type":"uint256"},{"internalType":"string","name":"reason","type":"string"}],"name":"mint","outputs":[],"stateMutability":"nonpayable","type":"function"},{"inputs":[],"name":"name","outputs":[{"internalType":"string","name":"","type":"string"}],"stateMutability":"view","type":"function"},{"inputs":[],"name":"owner","outputs":[{"internalType":"address","name":"","type":"address"}],"stateMutability":"view","type":"function"},{"inputs":[],"name":"pause","outputs":[],"stateMutability":"nonpayable","type":"function"},{"inputs":[],"name":"paused","outputs":[{"internalType":"bool","name":"","type":"bool"}],"stateMutability":"view","type":"function"},{"inputs":[],"name":"processDailyRewards","outputs":[],"stateMutability":"nonpayable","type":"function"},{"inputs":[{"internalType":"address","name":"verifier","type":"address"},{"internalType":"address","name":"subject","type":"address"},{"internalType":"string","name":"credentialType","type":"string"}],"name":"processVerification","outputs":[],"stateMutability":"nonpayable","type":"function"},{"inputs":[],"name":"renounceOwnership","outputs":[],"stateMutability":"nonpayable","type":"function"},{"inputs":[{"internalType":"uint256","name":"amount","type":"uint256"},{"internalType":"uint256","name":"duration","type":"uint256"}],"name":"stake","outputs":[],"stateMutability":"nonpayable","type":"function"},{"inputs":[{"internalType":"address","name":"","type":"address"}],"name":"stakedBalances","outputs":[{"internalType":"uint256","name":"","type":"uint256"}],"stateMutability":"view","type":"function"},{"inputs":[],"name":"stats","outputs":[{"internalType":"uint256","name":"totalBurned","type":"uint256"},{"internalType":"uint256","name":"totalMinted","type":"uint256"},{"internalType":"uint256","name":"totalStaked","type":"uint256"},{"internalType":"uint256","name":"totalTransactions","type":"uint256"},{"internalType":"uint256","name":"totalVerifications","type":"uint256"},{"internalType":"uint256","name":"activeStakers","type":"uint256"},{"internalType":"uint256","name":"blockNumber","type":"uint256"}],"stateMutability":"view","type":"function"},{"inputs":[],"name":"symbol","outputs":[{"internalType":"string","name":"","type":"string"}],"stateMutability":"view","type":"function"},{"inputs":[],"name":"tokenomics","outputs":[{"internalType":"uint256","name":"transactionBurnRate","type":"uint256"},{"internalType":"uint256","name":"verificationBurnRate","type":"uint256"},{"internalType":"uint256","name":"stakingBurnRate","type":"uint256"},{"internalType":"uint256","name":"validatorRewardRate","type":"uint256"},{"internalType":"uint256","name":"loyaltyRewardRate","type":"uint256"},{"internalType":"uint256","name":"developmentFundRate","type":"uint256"},{"internalType":"uint256","name":"maxBurnPerBlock","type":"uint256"},{"internalType":"uint256","name":"maxMintPerBlock","type":"uint256"},{"internalType":"uint256","name":"burnToMintRatio","type":"uint256"},{"internalType":"uint256","name":"stakingAPY","type":"uint256"},{"internalType":"uint256","name":"minStakingAmount","type":"uint256"},{"internalType":"uint256","name":"stakingLockPeriod","type":"uint256"},{"internalType":"uint256","name":"proposalCost","type":"uint256"},{"internalType":"uint256","name":"votingPower","type":"uint256"}],"stateMutability":"view","type":"function"},{"inputs":[],"name":"totalSupply","outputs":[{"internalType":"uint256","name":"","type":"uint256"}],"stateMutability":"view","type":"function"},{"inputs":[{"internalType":"address","name":"to","type":"address"},{"internalType":"uint256","name":"amount","type":"uint256"}],"name":"transfer","outputs":[{"internalType":"bool","name":"","type":"bool"}],"stateMutability":"nonpayable","type":"function"},{"inputs":[{"internalType":"address","name":"from","type":"address"},{"internalType":"address","name":"to","type":"address"},{"internalType":"uint256","name":"amount","type":"uint256"}],"name":"transferFrom","outputs":[{"internalType":"bool","name":"","type":"bool"}],"stateMutability":"nonpayable","type":"function"},{"inputs":[{"internalType":"address","name":"newOwner","type":"address"}],"name":"transferOwnership","outputs":[],"stateMutability":"nonpayable","type":"function"},{"inputs":[],"name":"unpause","outputs":[],"stateMutability":"nonpayable","type":"function"},{"inputs":[{"internalType":"uint256","name":"stakeIndex","type":"uint256"}],"name":"unstake","outputs":[],"stateMutability":"nonpayable","type":"function"},{"inputs":[{"internalType":"string","name":"parameter","type":"string"},{"internalType":"uint256","name":"newValue","type":"uint256"}],"name":"updateTokenomics","outputs":[],"stateMutability":"nonpayable","type":"function"},{"inputs":[{"internalType":"string","name":"credentialType","type":"string"},{"internalType":"uint256","name":"newCost","type":"uint256"}],"name":"updateVerificationCost","outputs":[],"stateMutability":"nonpayable","type":"function"},{"inputs":[{"internalType":"address","name":"","type":"address"},{"internalType":"uint256","name":"","type":"uint256"}],"name":"userStakes","outputs":[{"internalType":"uint256","name":"amount","type":"uint256"},{"internalType":"uint256","name":"startTime","type":"uint256"},{"internalType":"uint256","name":"endTime","type":"uint256"},{"internalType":"uint256","name":"apy","type":"uint256"},{"internalType":"bool","name":"active","type":"bool"}],"stateMutability":"view","type":"function"},{"inputs":[{"internalType":"string","name":"","type":"string"}],"name":"verificationCosts","outputs":[{"internalType":"uint256","name":"","type":"uint256"}],"stateMutability":"view","type":"function"}],"evm":{"bytecode":{"linkReferences":{},"object":"60806040523480156200001157600080fd5b50604051806040016040528060098152602001682b32b934aa37b5b2b760b91b815250604051806040016040528060048152602001635645524960e01b815250816003908162000062919062000575565b50600462000071828262000575565b5050506200008e62000088620003b060201b60201c565b620003b4565b6005805460ff60a01b191690556001600655604080516101c0810182526064808252603260208301819052600a8385018190526014606085018190526080850182905260a0850182905269d3c21bcecceda100000060c086018190526969e10de76676d080000060e0870181905260c861010088018190526101f46101208901819052683635c9adc5dea000006101408a0181905262278d006101608b0181905269021e19e0c9bab24000006101808c0181905268056bc75e2d631000006101a0909c018c905260079a909a556008989098556009879055858755600b879055600c96909655600d93909355600e91909155600f556010556011919091556012919091556013919091558190559051601e90620001bf906d62617369635f6964656e7469747960901b8152600e0190565b90815260408051918290036020018220929092556a6b79635f6c6576656c5f3160a81b8152601e600b808301829052835192839003602b9081018420681b1ae4d6e2ef50000090556a35bcb1afb632bb32b62f9960a91b845283820183905284519384900381018420683635c9adc5dea0000090556a6b79635f6c6576656c5f3360a81b8452908301829052835192839003018220686c6b935b8bbd40000090557f627573696e6573735f766572696669636174696f6e00000000000000000000008252601582018190528251918290036035018220685150ae84a8cdf0000090557f70726f647563745f61757468656e7469636974790000000000000000000000008252601482018190528251918290036034018220681043561a882930000090556f3d35b82fbb32b934b334b1b0ba34b7b760811b825260108201529051908190036030019020680ad78ebc5ac6200000905560006200032f60056b033b2e3c9fd0803ce800000062000641565b90506200033d338262000406565b601681905560405133907f9d89e36eadf856db0ad9ffb5a569e07f95634dddd9501141ecf04820484ad0dc90620003a190848152604060208201819052601290820152713337bab73232b92fb0b63637b1b0ba34b7b760711b606082015260800190565b60405180910390a2506200068c565b3390565b600580546001600160a01b038381166001600160a01b0319831681179093556040519116919082907f8be0079c531659141344cd1fd0a4f28419497f9722a3daafe3b4186f6b6457e090600090a35050565b6001600160a01b038216620004615760405162461bcd60e51b815260206004820152601f60248201527f45524332303a206d696e7420746f20746865207a65726f206164647265737300604482015260640160405180910390fd5b806002600082825462000475919062000664565b90915550506001600160a01b038216600081815260208181526040808320805486019055518481527fddf252ad1be2c89b69c2b068fc378daa952ba7f163c4a11628f55a4df523b3ef910160405180910390a35050565b505050565b634e487b7160e01b600052604160045260246000fd5b600181811c90821680620004fc57607f821691505b6020821081036200051d57634e487b7160e01b600052602260045260246000fd5b50919050565b601f821115620004cc57600081815260208120601f850160051c810160208610156200054c5750805b601f850160051c820191505b818110156200056d5782815560010162000558565b505050505050565b81516001600160401b03811115620005915762000591620004d1565b620005a981620005a28454620004e7565b8462000523565b602080601f831160018114620005e15760008415620005c85750858301515b600019600386901b1c1916600185901b1785556200056d565b600085815260208120601f198616915b828110156200061257888601518255948401946001909101908401620005f1565b5085821015620006315787850151600019600388901b60f8161c191681555b5050505050600190811b01905550565b6000826200065f57634e487b7160e01b600052601260045260246000fd5b500490565b808201808211156200068657634e487b7160e01b600052601160045260246000fd5b92915050565b612b8a806200069c6000396000f3fe608060405234801561001057600080fd5b50600436106102695760003560e01c80635b8e82641161015157806398425171116100c3578063bb4d443611610087578063bb4d44361461064b578063d3fc98641461065e578063d80528ae14610671578063dd62ed3e146106c8578063f2fde38b146106db578063fbda31b0146106ee57600080fd5b806398425171146105cd5780639f3148a9146105d5578063a457c2d7146105e8578063a9059cbb146105fb578063b5d5b5fa1461060e57600080fd5b80637b0472f0116101155780637b0472f01461055c57806380b01b611461056f578063842e2981146105825780638456cb59146105a25780638da5cb5b146105aa57806395d89b41146105c557600080fd5b80635b8e8264146104db5780635c975abb1461050657806370a0823114610518578063715018a61461054157806379cc67901461054957600080fd5b80632ff2e9dc116101ea57806335917c64116101ae57806335917c64146103e257806339509351146103f45780633f4ba83a1461040757806342966c681461040f5780634ac7251d14610422578063558ee223146104c857600080fd5b80632ff2e9dc14610392578063313ce567146103a55780633194dc5e146103b457806332cb6b0c146103c757806333d2499d146103da57600080fd5b806318160ddd1161023157806318160ddd1461033e57806319086feb146103465780631b8d14011461035957806323b872dd1461036c5780632e17de781461037f57600080fd5b806306fdde031461026e57806308a415571461028c578063091273a7146102d8578063095ea7b3146102ed5780631460fa8714610310575b600080fd5b6102766106f6565b60405161028391906125af565b60405180910390f35b610294610788565b60408051998a5260208a0198909852968801959095526060870193909352608086019190915260a085015260c084015260e083015261010082015261012001610283565b6102eb6102e6366004612665565b6107e4565b005b6103006102fb3660046126c8565b6109a9565b6040519015158152602001610283565b61033061031e3660046126f2565b601d6020526000908152604090205481565b604051908152602001610283565b600254610330565b61033061035436600461270d565b6109c3565b61033061036736600461274a565b610a07565b61030061037a366004612776565b610a48565b6102eb61038d3660046127b2565b610a72565b6103306b033b2e3c9fd0803ce800000081565b60405160128152602001610283565b6102eb6103c23660046126c8565b610d59565b6103306b1027e72f1f1281308800000081565b601554610330565b6103306a52b7d2dcc80cd2e400000081565b6103006104023660046126c8565b610ea9565b6102eb610ecb565b6102eb61041d3660046127b2565b610edd565b600754600854600954600a54600b54600c54600d54600e54600f546010546011546012546013546014546104609d9c9b9a999897969594939291908e565b604080519e8f5260208f019d909d529b8d019a909a5260608c019890985260808b019690965260a08a019490945260c089019290925260e08801526101008701526101208601526101408501526101608401526101808301526101a08201526101c001610283565b6102eb6104d63660046127cb565b610ee7565b6103306104e936600461270d565b8051602081830181018051601e8252928201919093012091525481565b600554600160a01b900460ff16610300565b6103306105263660046126f2565b6001600160a01b031660009081526020819052604090205490565b6102eb61113f565b6102eb6105573660046126c8565b611151565b6102eb61056a366004612829565b61116a565b6102eb61057d36600461284b565b6113d5565b6105956105903660046126f2565b611582565b6040516102839190612890565b6102eb611628565b6005546040516001600160a01b039091168152602001610283565b610276611638565b6102eb611647565b6102eb6105e336600461284b565b61166d565b6103006105f63660046126c8565b6116ea565b6103006106093660046126c8565b611770565b61062161061c3660046126c8565b611785565b6040805195865260208601949094529284019190915260608301521515608082015260a001610283565b6103306106593660046126f2565b6117d6565b6102eb61066c366004612900565b611813565b601554601654601754601854601954601a54601b546106939695949392919087565b604080519788526020880196909652948601939093526060850191909152608084015260a083015260c082015260e001610283565b6103306106d6366004612941565b611b2e565b6102eb6106e93660046126f2565b611b59565b610330611bcf565b60606003805461070590612974565b80601f016020809104026020016040519081016040528092919081815260200182805461073190612974565b801561077e5780601f106107535761010080835404028352916020019161077e565b820191906000526020600020905b81548152906001019060200180831161076157829003601f168201915b5050505050905090565b600080600080600080600080600061079f60025490565b601554601654601754601854601954601a54959f6b1027e72f1f128130880000009f506a52b7d2dcc80cd2e40000009e50949c50929a50909850965094509092509050565b6107ec611d17565b600082116108415760405162461bcd60e51b815260206004820181905260248201527f416d6f756e74206d7573742062652067726561746572207468616e207a65726f60448201526064015b60405180910390fd5b336000908152602081905260409020548211156108975760405162461bcd60e51b8152602060048201526014602482015273496e73756666696369656e742062616c616e636560601b6044820152606401610838565b6a52b7d2dcc80cd2e4000000826108ad60025490565b6108b791906129c4565b10156109055760405162461bcd60e51b815260206004820181905260248201527f43616e6e6f74206275726e2062656c6f77206d696e696d756d20737570706c796044820152606401610838565b600d548211156109575760405162461bcd60e51b815260206004820152601c60248201527f45786365656473207065722d626c6f636b206275726e206c696d6974000000006044820152606401610838565b6109613383611d64565b816015600001600082825461097691906129d7565b90915550506040513390600080516020612b358339815191529061099d90859085906129ea565b60405180910390a25050565b6000336109b7818585611e97565b60019150505b92915050565b600080601e836040516109d69190612a03565b9081526020016040518091039020549050600081116109fe5768056bc75e2d63100000610a00565b805b9392505050565b600080612710610a178487612a1f565b610a219190612a36565b905060006301e13380610a348684612a1f565b610a3e9190612a36565b9695505050505050565b6000610a52611d17565b33610a5e858285611fb3565b610a69858585612027565b95945050505050565b610a7a612189565b610a82611d17565b336000908152601c60205260409020548110610ad65760405162461bcd60e51b8152602060048201526013602482015272092dcecc2d8d2c840e6e8c2d6ca40d2dcc8caf606b1b6044820152606401610838565b336000908152601c60205260408120805483908110610af757610af7612a58565b60009182526020909120600590910201600481015490915060ff16610b515760405162461bcd60e51b815260206004820152601060248201526f5374616b65206e6f742061637469766560801b6044820152606401610838565b8054600282015442818110159160009111610b7a576001840154610b7590426129c4565b610b8e565b83600101548460020154610b8e91906129c4565b90506000610ba184838760030154610a07565b9050600083610bb857610bb5601486612a36565b90505b6000610bc482876129c4565b60048801805460ff19169055336000908152601d6020526040812080549293508892909190610bf49084906129c4565b909155505060178054879190600090610c0e9084906129c4565b90915550610c1f90503033836121e2565b600083118015610c4e57506b1027e72f1f1281308800000083610c4160025490565b610c4b91906129d7565b11155b15610c7857610c5d338461230c565b8260156001016000828254610c7291906129d7565b90915550505b8115610d0257610c883083611d64565b8160156000016000828254610c9d91906129d7565b90915550506040513090600080516020612b3583398151915290610cf9908581526040602082018190526017908201527f6561726c795f756e7374616b696e675f70656e616c7479000000000000000000606082015260800190565b60405180910390a25b604080518281526020810185905290810183905233907fba28b0c1ecdb762c56c12f6843b89de0bd02ac5a10b2f1e5f0e4f2bf23d76a1c9060600160405180910390a250505050505050610d566001600655565b50565b610d616123cb565b6001600160a01b0382166000908152601c60205260409020548110610dbe5760405162461bcd60e51b8152602060048201526013602482015272092dcecc2d8d2c840e6e8c2d6ca40d2dcc8caf606b1b6044820152606401610838565b6001600160a01b0382166000908152601c60205260408120805483908110610de857610de8612a58565b60009182526020909120600590910201600481015490915060ff16610e425760405162461bcd60e51b815260206004820152601060248201526f5374616b65206e6f742061637469766560801b6044820152606401610838565b805460048201805460ff191690556001600160a01b0384166000908152601d602052604081208054839290610e789084906129c4565b909155505060178054829190600090610e929084906129c4565b90915550610ea390503085836121e2565b50505050565b6000336109b7818585610ebc8383611b2e565b610ec691906129d7565b611e97565b610ed36123cb565b610edb612425565b565b610d563382611d64565b610eef6123cb565b610ef7611d17565b6000610f02826109c3565b905080610f24856001600160a01b031660009081526020819052604090205490565b1015610f805760405162461bcd60e51b815260206004820152602560248201527f496e73756666696369656e742062616c616e636520666f72207665726966696360448201526430ba34b7b760d91b6064820152608401610838565b610f8a8482611d64565b8060156000016000828254610f9f91906129d7565b9091555050600a5460009061271090610fb89084612a1f565b610fc29190612a36565b90506b1027e72f1f1281308800000081610fdb60025490565b610fe591906129d7565b1161100f57610ff4858261230c565b806015600101600082825461100991906129d7565b90915550505b6019805490600061101f83612a6e565b9190505550836001600160a01b0316856001600160a01b03167f73af6d4c0d49c107d61057c2c8eadee429c2160bfc1acfaf3f454639fdd9e64185858560405161106b93929190612a87565b60405180910390a3846001600160a01b0316600080516020612b35833981519152836040516110c5918152604060208201819052601190820152703b32b934b334b1b0ba34b7b72fb13ab93760791b606082015260800190565b60405180910390a2846001600160a01b03167f9d89e36eadf856db0ad9ffb5a569e07f95634dddd9501141ecf04820484ad0dc826040516111309181526040602082018190526010908201526f1d985b1a59185d1bdc97dc995dd85c9960821b606082015260800190565b60405180910390a25050505050565b6111476123cb565b610edb600061247a565b61115c823383611fb3565b6111668282611d64565b5050565b611172612189565b61117a611d17565b6011548210156111cc5760405162461bcd60e51b815260206004820152601c60248201527f42656c6f77206d696e696d756d207374616b696e6720616d6f756e74000000006044820152606401610838565b336000908152602081905260409020548211156112225760405162461bcd60e51b8152602060048201526014602482015273496e73756666696369656e742062616c616e636560601b6044820152606401610838565b60125481101561127f5760405162461bcd60e51b815260206004820152602260248201527f4475726174696f6e2062656c6f77206d696e696d756d206c6f636b20706572696044820152611bd960f21b6064820152608401610838565b61128a3330846121e2565b60006040518060a0016040528084815260200142815260200183426112af91906129d7565b815260105460208083019190915260016040928301819052336000818152601c845284812080548085018255908252848220875160059092020190815586850151938101939093558585015160028401556060860151600384015560808601516004909301805460ff1916931515939093179092558152601d909152908120805492935085929091906113439084906129d7565b90915550506017805484919060009061135d9084906129d7565b9091555050336000908152601c602052604090205460010361138f57601a805490600061138983612a6e565b91905055505b604080518481526020810184905233917fdd2a19c3bdd089cbe77c04f5655f83de0504d6140d12c8667646f55d0557c4dc910160405180910390a2506111666001600655565b6113dd6123cb565b6040805180820190915260138152727472616e73616374696f6e4275726e5261746560681b6020918201528251908301206000907f4d6527e8084927457a37e2cbd096d1a66ba61ad2f14c0052ac37790c261d52cc0161144557506007805490829055611542565b60408051808201909152600a8152697374616b696e6741505960b01b6020918201528351908401207f02391613cb379bccae74089472d6b399303897ba5e215c6d1b49068db6dcf774016114a157506010805490829055611542565b60408051808201909152601381527219dbdd995c9b985b98d9551a1c995cda1bdb19606a1b6020918201528351908401207fa2c4e64a6997a78c11a08c9818160f3582501ee23b1a2eddaa84b5e5abc753870161150657506013805490829055611542565b60405162461bcd60e51b815260206004820152601160248201527024b73b30b634b2103830b930b6b2ba32b960791b6044820152606401610838565b7fbb13b39cdd51634b3a5263e84b984b0d4d5ceea41cdd6ca5a1f474f5bd1d9dfa83828460405161157593929190612a87565b60405180910390a1505050565b6001600160a01b0381166000908152601c60209081526040808320805482518185028101850190935280835260609492939192909184015b8282101561161d5760008481526020908190206040805160a081018252600586029092018054835260018082015484860152600282015492840192909252600381015460608401526004015460ff161515608083015290835290920191016115ba565b505050509050919050565b6116306123cb565b610edb6124cc565b60606004805461070590612974565b61164f6123cb565b6105a06015600601600082825461166691906129d7565b9091555050565b6116756123cb565b600081116116c55760405162461bcd60e51b815260206004820152601e60248201527f436f7374206d7573742062652067726561746572207468616e207a65726f00006044820152606401610838565b80601e836040516116d69190612a03565b908152604051908190036020019020555050565b600033816116f88286611b2e565b9050838110156117585760405162461bcd60e51b815260206004820152602560248201527f45524332303a2064656372656173656420616c6c6f77616e63652062656c6f77604482015264207a65726f60d81b6064820152608401610838565b6117658286868403611e97565b506001949350505050565b600061177a611d17565b610a00338484612027565b601c60205281600052604060002081815481106117a157600080fd5b600091825260209091206005909102018054600182015460028301546003840154600490940154929550909350919060ff1685565b6014546001600160a01b0382166000908152601d60209081526040808320549183905282205491929161180991906129d7565b6109bd9190612a36565b61181b6123cb565b611823611d17565b6001600160a01b0383166118795760405162461bcd60e51b815260206004820152601b60248201527f43616e6e6f74206d696e7420746f207a65726f206164647265737300000000006044820152606401610838565b600082116118c95760405162461bcd60e51b815260206004820181905260248201527f416d6f756e74206d7573742062652067726561746572207468616e207a65726f6044820152606401610838565b6b1027e72f1f12813088000000826118e060025490565b6118ea91906129d7565b11156119315760405162461bcd60e51b815260206004820152601660248201527545786365656473206d6178696d756d20737570706c7960501b6044820152606401610838565b600e548211156119835760405162461bcd60e51b815260206004820152601c60248201527f45786365656473207065722d626c6f636b206d696e74206c696d6974000000006044820152606401610838565b60408051808201909152601481527334b734ba34b0b62fb234b9ba3934b13aba34b7b760611b6020918201528151908201207fe83ed2c8271a1a572dc2c79c3fdccebc40fb99921f1bb5d3d6cf0f52fb35885614801590611a3357506040805180820190915260128152713337bab73232b92fb0b63637b1b0ba34b7b760711b6020918201528151908201207fde88975e8465a411eaa09825b399c34e071b80ed2eb3170f4e4af3d163fc91a114155b15611ac0576000611a4360155490565b600f54909150600090611a5883612710612a1f565b611a629190612a36565b90508084111580611a71575081155b611abd5760405162461bcd60e51b815260206004820152601a60248201527f45786365656473206275726e2d746f2d6d696e7420726174696f0000000000006044820152606401610838565b50505b611aca838361230c565b8160156001016000828254611adf91906129d7565b92505081905550826001600160a01b03167f9d89e36eadf856db0ad9ffb5a569e07f95634dddd9501141ecf04820484ad0dc8383604051611b219291906129ea565b60405180910390a2505050565b6001600160a01b03918216600090815260016020908152604080832093909416825291909152205490565b611b616123cb565b6001600160a01b038116611bc65760405162461bcd60e51b815260206004820152602660248201527f4f776e61626c653a206e6577206f776e657220697320746865207a65726f206160448201526564647265737360d01b6064820152608401610838565b610d568161247a565b6016546000908103611be15750603290565b60165460155460009190611bf6906064612a1f565b611c009190612a36565b90506000611c0d60025490565b601754611c1b906064612a1f565b611c259190612a36565b905060006b1027e72f1f12813088000000611c3f60025490565b611c4a906064612a1f565b611c549190612a36565b9050600060968411611c7c576096611c6d856064612a1f565b611c779190612a36565b611c7f565b60645b90506000601e8411611ca757601e611c98856064612a1f565b611ca29190612a36565b611caa565b60645b9050600060328410611cc657611cc18460646129c4565b611cc9565b60645b90506064611cd882601e612a1f565b611ce384601e612a1f565b611cee866028612a1f565b611cf891906129d7565b611d0291906129d7565b611d0c9190612a36565b965050505050505090565b600554600160a01b900460ff1615610edb5760405162461bcd60e51b815260206004820152601060248201526f14185d5cd8589b194e881c185d5cd95960821b6044820152606401610838565b6001600160a01b038216611dc45760405162461bcd60e51b815260206004820152602160248201527f45524332303a206275726e2066726f6d20746865207a65726f206164647265736044820152607360f81b6064820152608401610838565b6001600160a01b03821660009081526020819052604090205481811015611e385760405162461bcd60e51b815260206004820152602260248201527f45524332303a206275726e20616d6f756e7420657863656564732062616c616e604482015261636560f01b6064820152608401610838565b6001600160a01b0383166000818152602081815260408083208686039055600280548790039055518581529192917fddf252ad1be2c89b69c2b068fc378daa952ba7f163c4a11628f55a4df523b3ef91015b60405180910390a3505050565b6001600160a01b038316611ef95760405162461bcd60e51b8152602060048201526024808201527f45524332303a20617070726f76652066726f6d20746865207a65726f206164646044820152637265737360e01b6064820152608401610838565b6001600160a01b038216611f5a5760405162461bcd60e51b815260206004820152602260248201527f45524332303a20617070726f766520746f20746865207a65726f206164647265604482015261737360f01b6064820152608401610838565b6001600160a01b0383811660008181526001602090815260408083209487168084529482529182902085905590518481527f8c5be1e5ebec7d5bd14f71427d1e84f3dd0314c0f7b2291e5b200ac8c7c3b9259101611e8a565b6000611fbf8484611b2e565b90506000198114610ea3578181101561201a5760405162461bcd60e51b815260206004820152601d60248201527f45524332303a20696e73756666696369656e7420616c6c6f77616e63650000006044820152606401610838565b610ea38484848403611e97565b60006001600160a01b03841661204f5760405162461bcd60e51b815260040161083890612aac565b6001600160a01b0383166120755760405162461bcd60e51b815260040161083890612af1565b600754600090612710906120899085612a1f565b6120939190612a36565b905060006120a182856129c4565b90506000821180156120d157506a52b7d2dcc80cd2e4000000826120c460025490565b6120ce91906129c4565b10155b1561215a576120e08683611d64565b81601560000160008282546120f591906129d7565b92505081905550856001600160a01b0316600080516020612b358339815191528360405161214d9181526040602082018190526010908201526f3a3930b739b0b1ba34b7b72fb13ab93760811b606082015260800190565b60405180910390a261215d565b50825b6121688686836121e2565b6018805490600061217883612a6e565b909155506001979650505050505050565b6002600654036121db5760405162461bcd60e51b815260206004820152601f60248201527f5265656e7472616e637947756172643a207265656e7472616e742063616c6c006044820152606401610838565b6002600655565b6001600160a01b0383166122085760405162461bcd60e51b815260040161083890612aac565b6001600160a01b03821661222e5760405162461bcd60e51b815260040161083890612af1565b6001600160a01b038316600090815260208190526040902054818110156122a65760405162461bcd60e51b815260206004820152602660248201527f45524332303a207472616e7366657220616d6f756e7420657863656564732062604482015265616c616e636560d01b6064820152608401610838565b6001600160a01b03848116600081815260208181526040808320878703905593871680835291849020805487019055925185815290927fddf252ad1be2c89b69c2b068fc378daa952ba7f163c4a11628f55a4df523b3ef910160405180910390a3610ea3565b6001600160a01b0382166123625760405162461bcd60e51b815260206004820152601f60248201527f45524332303a206d696e7420746f20746865207a65726f2061646472657373006044820152606401610838565b806002600082825461237491906129d7565b90915550506001600160a01b038216600081815260208181526040808320805486019055518481527fddf252ad1be2c89b69c2b068fc378daa952ba7f163c4a11628f55a4df523b3ef910160405180910390a35050565b6005546001600160a01b03163314610edb5760405162461bcd60e51b815260206004820181905260248201527f4f776e61626c653a2063616c6c6572206973206e6f7420746865206f776e65726044820152606401610838565b61242d61250f565b6005805460ff60a01b191690557f5db9ee0a495bf2e6ff9c91a7834c1ba4fdd244a5e8aa4e537bd38aeae4b073aa335b6040516001600160a01b03909116815260200160405180910390a1565b600580546001600160a01b038381166001600160a01b0319831681179093556040519116919082907f8be0079c531659141344cd1fd0a4f28419497f9722a3daafe3b4186f6b6457e090600090a35050565b6124d4611d17565b6005805460ff60a01b1916600160a01b1790557f62e78cea01bee320cd4e420270b5ea74000d11b0c9f74754ebdbfc544b05a25861245d3390565b600554600160a01b900460ff16610edb5760405162461bcd60e51b815260206004820152601460248201527314185d5cd8589b194e881b9bdd081c185d5cd95960621b6044820152606401610838565b60005b8381101561257a578181015183820152602001612562565b50506000910152565b6000815180845261259b81602086016020860161255f565b601f01601f19169290920160200192915050565b602081526000610a006020830184612583565b634e487b7160e01b600052604160045260246000fd5b600082601f8301126125e957600080fd5b813567ffffffffffffffff80821115612604576126046125c2565b604051601f8301601f19908116603f0116810190828211818310171561262c5761262c6125c2565b8160405283815286602085880101111561264557600080fd5b836020870160208301376000602085830101528094505050505092915050565b6000806040838503121561267857600080fd5b82359150602083013567ffffffffffffffff81111561269657600080fd5b6126a2858286016125d8565b9150509250929050565b80356001600160a01b03811681146126c357600080fd5b919050565b600080604083850312156126db57600080fd5b6126e4836126ac565b946020939093013593505050565b60006020828403121561270457600080fd5b610a00826126ac565b60006020828403121561271f57600080fd5b813567ffffffffffffffff81111561273657600080fd5b612742848285016125d8565b949350505050565b60008060006060848603121561275f57600080fd5b505081359360208301359350604090920135919050565b60008060006060848603121561278b57600080fd5b612794846126ac565b92506127a2602085016126ac565b9150604084013590509250925092565b6000602082840312156127c457600080fd5b5035919050565b6000806000606084860312156127e057600080fd5b6127e9846126ac565b92506127f7602085016126ac565b9150604084013567ffffffffffffffff81111561281357600080fd5b61281f868287016125d8565b9150509250925092565b6000806040838503121561283c57600080fd5b50508035926020909101359150565b6000806040838503121561285e57600080fd5b823567ffffffffffffffff81111561287557600080fd5b612881858286016125d8565b95602094909401359450505050565b602080825282518282018190526000919060409081850190868401855b828110156128f357815180518552868101518786015285810151868601526060808201519086015260809081015115159085015260a090930192908501906001016128ad565b5091979650505050505050565b60008060006060848603121561291557600080fd5b61291e846126ac565b925060208401359150604084013567ffffffffffffffff81111561281357600080fd5b6000806040838503121561295457600080fd5b61295d836126ac565b915061296b602084016126ac565b90509250929050565b600181811c9082168061298857607f821691505b6020821081036129a857634e487b7160e01b600052602260045260246000fd5b50919050565b634e487b7160e01b600052601160045260246000fd5b818103818111156109bd576109bd6129ae565b808201808211156109bd576109bd6129ae565b8281526040602082015260006127426040830184612583565b60008251612a1581846020870161255f565b9190910192915050565b80820281158282048414176109bd576109bd6129ae565b600082612a5357634e487b7160e01b600052601260045260246000fd5b500490565b634e487b7160e01b600052603260045260246000fd5b600060018201612a8057612a806129ae565b5060010190565b606081526000612a9a6060830186612583565b60208301949094525060400152919050565b60208082526025908201527f45524332303a207472616e736665722066726f6d20746865207a65726f206164604082015264647265737360d81b606082015260800190565b60208082526023908201527f45524332303a207472616e7366657220746f20746865207a65726f206164647260408201526265737360e81b60608201526080019056fefad31924d655455395c87544c8aa1ffdb5a7505a22a3c2e03f28003b6556a75fa2646970667358221220d40c01fbec2d3d2c51e4a744ab93acc7163f90ca77070057fa1045be806b0c2364736f6c63430008130033","opcodes":"PUSH1 0x80 PUSH1 0x40 MSTORE CALLVALUE DUP1 ISZERO PUSH3 0x11 JUMPI PUSH1 0x0 DUP1 REVERT JUMPDEST POP PUSH1 0x40 MLOAD DUP1 PUSH1 0x40 ADD PUSH1 0x40 MSTORE DUP1 PUSH1 0x9 DUP2 MSTORE PUSH1 0x20 ADD PUSH9 0x2B32B934AA37B5B2B7 PUSH1 0xB9 SHL DUP2 MSTORE POP PUSH1 0x40 MLOAD DUP1 PUSH1 0x40 ADD PUSH1 0x40 MSTORE DUP1 PUSH1 0x4 DUP2 MSTORE PUSH1 0x20 ADD PUSH4 0x56455249 PUSH1 0xE0 SHL DUP2 MSTORE POP DUP2 PUSH1 0x3 SWAP1 DUP2 PUSH3 0x62 SWAP2 SWAP1 PUSH3 0x575 JUMP JUMPDEST POP PUSH1 0x4 PUSH3 0x71 DUP3 DUP3 PUSH3 0x575 JUMP JUMPDEST POP POP POP PUSH3 0x8E PUSH3 0x88 PUSH3 0x3B0 PUSH1 0x20 SHL PUSH1 0x20 SHR JUMP JUMPDEST PUSH3 0x3B4 JUMP JUMPDEST PUSH1 0x5 DUP1 SLOAD PUSH1 0xFF PUSH1 0xA0 SHL NOT AND SWAP1 SSTORE PUSH1 0x1 PUSH1 0x6 SSTORE PUSH1 0x40 DUP1 MLOAD PUSH2 0x1C0 DUP2 ADD DUP3 MSTORE PUSH1 0x64 DUP1 DUP3 MSTORE PUSH1 0x32 PUSH1 0x20 DUP4 ADD DUP2 SWAP1 MSTORE PUSH1 0xA DUP4 DUP6 ADD DUP2 SWAP1 MSTORE PUSH1 0x14 PUSH1 0x60 DUP6 ADD DUP2 SWAP1 MSTORE PUSH1 0x80 DUP6 ADD DUP3 SWAP1 MSTORE PUSH1 0xA0 DUP6 ADD DUP3 SWAP1 MSTORE PUSH10 0xD3C21BCECCEDA1000000 PUSH1 0xC0 DUP7 ADD DUP2 SWAP1 MSTORE PUSH10 0x69E10DE76676D0800000 PUSH1 0xE0 DUP8 ADD DUP2 SWAP1 MSTORE PUSH1 0xC8 PUSH2 0x100 DUP9 ADD DUP2 SWAP1 MSTORE PUSH2 0x1F4 PUSH2 0x120 DUP10 ADD DUP2 SWAP1 MSTORE PUSH9 0x3635C9ADC5DEA00000 PUSH2 0x140 DUP11 ADD DUP2 SWAP1 MSTORE PUSH3 0x278D00 PUSH2 0x160 DUP12 ADD DUP2 SWAP1 MSTORE PUSH10 0x21E19E0C9BAB2400000 PUSH2 0x180 DUP13 ADD DUP2 SWAP1 MSTORE PUSH9 0x56BC75E2D63100000 PUSH2 0x1A0 SWAP1 SWAP13 ADD DUP13 SWAP1 MSTORE PUSH1 0x7 SWAP11 SWAP1 SWAP11 SSTORE PUSH1 0x8 SWAP9 SWAP1 SWAP9 SSTORE PUSH1 0x9 DUP8 SWAP1 SSTORE DUP6 DUP8 SSTORE PUSH1 0xB DUP8 SWAP1 SSTORE PUSH1 0xC SWAP7 SWAP1 SWAP7 SSTORE PUSH1 0xD SWAP4 SWAP1 SWAP4 SSTORE PUSH1 0xE SWAP2 SWAP1 SWAP2 SSTORE PUSH1 0xF SSTORE PUSH1 0x10 SSTORE PUSH1 0x11 SWAP2 SWAP1 SWAP2 SSTORE PUSH1 0x12 SWAP2 SWAP1 SWAP2 SSTORE PUSH1 0x13 SWAP2 SWAP1 SWAP2 SSTORE DUP2 SWAP1 SSTORE SWAP1 MLOAD PUSH1 0x1E SWAP1 PUSH3 0x1BF SWAP1 PUSH14 0x62617369635F6964656E74697479 PUSH1 0x90 SHL DUP2 MSTORE PUSH1 0xE ADD SWAP1 JUMP JUMPDEST SWAP1 DUP2 MSTORE PUSH1 0x40 DUP1 MLOAD SWAP2 DUP3 SWAP1 SUB PUSH1 0x20 ADD DUP3 KECCAK256 SWAP3 SWAP1 SWAP3 SSTORE PUSH11 0x6B79635F6C6576656C5F31 PUSH1 0xA8 SHL DUP2 MSTORE PUSH1 0x1E PUSH1 0xB DUP1 DUP4 ADD DUP3 SWAP1 MSTORE DUP4 MLOAD SWAP3 DUP4 SWAP1 SUB PUSH1 0x2B SWAP1 DUP2 ADD DUP5 KECCAK256 PUSH9 0x1B1AE4D6E2EF500000 SWAP1 SSTORE PUSH11 0x35BCB1AFB632BB32B62F99 PUSH1 0xA9 SHL DUP5 MSTORE DUP4 DUP3 ADD DUP4 SWAP1 MSTORE DUP5 MLOAD SWAP4 DUP5 SWAP1 SUB DUP2 ADD DUP5 KECCAK256 PUSH9 0x3635C9ADC5DEA00000 SWAP1 SSTORE PUSH11 0x6B79635F6C6576656C5F33 PUSH1 0xA8 SHL DUP5 MSTORE SWAP1 DUP4 ADD DUP3 SWAP1 MSTORE DUP4 MLOAD SWAP3 DUP4 SWAP1 SUB ADD DUP3 KECCAK256 PUSH9 0x6C6B935B8BBD400000 SWAP1 SSTORE PUSH32 0x627573696E6573735F766572696669636174696F6E0000000000000000000000 DUP3 MSTORE PUSH1 0x15 DUP3 ADD DUP2 SWAP1 MSTORE DUP3 MLOAD SWAP2 DUP3 SWAP1 SUB PUSH1 0x35 ADD DUP3 KECCAK256 PUSH9 0x5150AE84A8CDF00000 SWAP1 SSTORE PUSH32 0x70726F647563745F61757468656E746963697479000000000000000000000000 DUP3 MSTORE PUSH1 0x14 DUP3 ADD DUP2 SWAP1 MSTORE DUP3 MLOAD SWAP2 DUP3 SWAP1 SUB PUSH1 0x34 ADD DUP3 KECCAK256 PUSH9 0x1043561A8829300000 SWAP1 SSTORE PUSH16 0x3D35B82FBB32B934B334B1B0BA34B7B7 PUSH1 0x81 SHL DUP3 MSTORE PUSH1 0x10 DUP3 ADD MSTORE SWAP1 MLOAD SWAP1 DUP2 SWAP1 SUB PUSH1 0x30 ADD SWAP1 KECCAK256 PUSH9 0xAD78EBC5AC6200000 SWAP1 SSTORE PUSH1 0x0 PUSH3 0x32F PUSH1 0x5 PUSH12 0x33B2E3C9FD0803CE8000000 PUSH3 0x641 JUMP JUMPDEST SWAP1 POP PUSH3 0x33D CALLER DUP3 PUSH3 0x406 JUMP JUMPDEST PUSH1 0x16 DUP2 SWAP1 SSTORE PUSH1 0x40 MLOAD CALLER SWAP1 PUSH32 0x9D89E36EADF856DB0AD9FFB5A569E07F95634DDDD9501141ECF04820484AD0DC SWAP1 PUSH3 0x3A1 SWAP1 DUP5 DUP2 MSTORE PUSH1 0x40 PUSH1 0x20 DUP3 ADD DUP2 SWAP1 MSTORE PUSH1 0x12 SWAP1 DUP3 ADD MSTORE PUSH18 0x3337BAB73232B92FB0B63637B1B0BA34B7B7 PUSH1 0x71 SHL PUSH1 0x60 DUP3 ADD MSTORE PUSH1 0x80 ADD SWAP1 JUMP JUMPDEST PUSH1 0x40 MLOAD DUP1 SWAP2 SUB SWAP1 LOG2 POP PUSH3 0x68C JUMP JUMPDEST CALLER SWAP1 JUMP JUMPDEST PUSH1 0x5 DUP1 SLOAD PUSH1 0x1 PUSH1 0x1 PUSH1 0xA0 SHL SUB DUP4 DUP2 AND PUSH1 0x1 PUSH1 0x1 PUSH1 0xA0 SHL SUB NOT DUP4 AND DUP2 OR SWAP1 SWAP4 SSTORE PUSH1 0x40 MLOAD SWAP2 AND SWAP2 SWAP1 DUP3 SWAP1 PUSH32 0x8BE0079C531659141344CD1FD0A4F28419497F9722A3DAAFE3B4186F6B6457E0 SWAP1 PUSH1 0x0 SWAP1 LOG3 POP POP JUMP JUMPDEST PUSH1 0x1 PUSH1 0x1 PUSH1 0xA0 SHL SUB DUP3 AND PUSH3 0x461 JUMPI PUSH1 0x40 MLOAD PUSH3 0x461BCD PUSH1 0xE5 SHL DUP2 MSTORE PUSH1 0x20 PUSH1 0x4 DUP3 ADD MSTORE PUSH1 0x1F PUSH1 0x24 DUP3 ADD MSTORE PUSH32 0x45524332303A206D696E7420746F20746865207A65726F206164647265737300 PUSH1 0x44 DUP3 ADD MSTORE PUSH1 0x64 ADD PUSH1 0x40 MLOAD DUP1 SWAP2 SUB SWAP1 REVERT JUMPDEST DUP1 PUSH1 0x2 PUSH1 0x0 DUP3 DUP3 SLOAD PUSH3 0x475 SWAP2 SWAP1 PUSH3 0x664 JUMP JUMPDEST SWAP1 SWAP2 SSTORE POP POP PUSH1 0x1 PUSH1 0x1 PUSH1 0xA0 SHL SUB DUP3 AND PUSH1 0x0 DUP2 DUP2 MSTORE PUSH1 0x20 DUP2 DUP2 MSTORE PUSH1 0x40 DUP1 DUP4 KECCAK256 DUP1 SLOAD DUP7 ADD SWAP1 SSTORE MLOAD DUP5 DUP2 MSTORE PUSH32 0xDDF252AD1BE2C89B69C2B068FC378DAA952BA7F163C4A11628F55A4DF523B3EF SWAP2 ADD PUSH1 0x40 MLOAD DUP1 SWAP2 SUB SWAP1 LOG3 POP POP JUMP JUMPDEST POP POP POP JUMP JUMPDEST PUSH4 0x4E487B71 PUSH1 0xE0 SHL PUSH1 0x0 MSTORE PUSH1 0x41 PUSH1 0x4 MSTORE PUSH1 0x24 PUSH1 0x0 REVERT JUMPDEST PUSH1 0x1 DUP2 DUP2 SHR SWAP1 DUP3 AND DUP1 PUSH3 0x4FC JUMPI PUSH1 0x7F DUP3 AND SWAP2 POP JUMPDEST PUSH1 0x20 DUP3 LT DUP2 SUB PUSH3 0x51D JUMPI PUSH4 0x4E487B71 PUSH1 0xE0 SHL PUSH1 0x0 MSTORE PUSH1 0x22 PUSH1 0x4 MSTORE PUSH1 0x24 PUSH1 0x0 REVERT JUMPDEST POP SWAP2 SWAP1 POP JUMP JUMPDEST PUSH1 0x1F DUP3 GT ISZERO PUSH3 0x4CC JUMPI PUSH1 0x0 DUP2 DUP2 MSTORE PUSH1 0x20 DUP2 KECCAK256 PUSH1 0x1F DUP6 ADD PUSH1 0x5 SHR DUP2 ADD PUSH1 0x20 DUP7 LT ISZERO PUSH3 0x54C JUMPI POP DUP1 JUMPDEST PUSH1 0x1F DUP6 ADD PUSH1 0x5 SHR DUP3 ADD SWAP2 POP JUMPDEST DUP2 DUP2 LT ISZERO PUSH3 0x56D JUMPI DUP3 DUP2 SSTORE PUSH1 0x1 ADD PUSH3 0x558 JUMP JUMPDEST POP POP POP POP POP POP JUMP JUMPDEST DUP2 MLOAD PUSH1 0x1 PUSH1 0x1 PUSH1 0x40 SHL SUB DUP2 GT ISZERO PUSH3 0x591 JUMPI PUSH3 0x591 PUSH3 0x4D1 JUMP JUMPDEST PUSH3 0x5A9 DUP2 PUSH3 0x5A2 DUP5 SLOAD PUSH3 0x4E7 JUMP JUMPDEST DUP5 PUSH3 0x523 JUMP JUMPDEST PUSH1 0x20 DUP1 PUSH1 0x1F DUP4 GT PUSH1 0x1 DUP2 EQ PUSH3 0x5E1 JUMPI PUSH1 0x0 DUP5 ISZERO PUSH3 0x5C8 JUMPI POP DUP6 DUP4 ADD MLOAD JUMPDEST PUSH1 0x0 NOT PUSH1 0x3 DUP7 SWAP1 SHL SHR NOT AND PUSH1 0x1 DUP6 SWAP1 SHL OR DUP6 SSTORE PUSH3 0x56D JUMP JUMPDEST PUSH1 0x0 DUP6 DUP2 MSTORE PUSH1 0x20 DUP2 KECCAK256 PUSH1 0x1F NOT DUP7 AND SWAP2 JUMPDEST DUP3 DUP2 LT ISZERO PUSH3 0x612 JUMPI DUP9 DUP7 ADD MLOAD DUP3 SSTORE SWAP5 DUP5 ADD SWAP5 PUSH1 0x1 SWAP1 SWAP2 ADD SWAP1 DUP5 ADD PUSH3 0x5F1 JUMP JUMPDEST POP DUP6 DUP3 LT ISZERO PUSH3 0x631 JUMPI DUP8 DUP6 ADD MLOAD PUSH1 0x0 NOT PUSH1 0x3 DUP9 SWAP1 SHL PUSH1 0xF8 AND SHR NOT AND DUP2 SSTORE JUMPDEST POP POP POP POP POP PUSH1 0x1 SWAP1 DUP2 SHL ADD SWAP1 SSTORE POP JUMP JUMPDEST PUSH1 0x0 DUP3 PUSH3 0x65F JUMPI PUSH4 0x4E487B71 PUSH1 0xE0 SHL PUSH1 0x0 MSTORE PUSH1 0x12 PUSH1 0x4 MSTORE PUSH1 0x24 PUSH1 0x0 REVERT JUMPDEST POP DIV SWAP1 JUMP JUMPDEST DUP1 DUP3 ADD DUP1 DUP3 GT ISZERO PUSH3 0x686 JUMPI PUSH4 0x4E487B71 PUSH1 0xE0 SHL PUSH1 0x0 MSTORE PUSH1 0x11 PUSH1 0x4 MSTORE PUSH1 0x24 PUSH1 0x0 REVERT JUMPDEST SWAP3 SWAP2 POP POP JUMP JUMPDEST PUSH2 0x2B8A DUP1 PUSH3 0x69C PUSH1 0x0 CODECOPY PUSH1 0x0 RETURN INVALID PUSH1 0x80 PUSH1 0x40 MSTORE CALLVALUE DUP1 ISZERO PUSH2 0x10 JUMPI PUSH1 0x0 DUP1 REVERT JUMPDEST POP PUSH1 0x4 CALLDATASIZE LT PUSH2 0x269 JUMPI PUSH1 0x0 CALLDATALOAD PUSH1 0xE0 SHR DUP1 PUSH4 0x5B8E8264 GT PUSH2 0x151 JUMPI DUP1 PUSH4 0x98425171 GT PUSH2 0xC3 JUMPI DUP1 PUSH4 0xBB4D4436 GT PUSH2 0x87 JUMPI DUP1 PUSH4 0xBB4D4436 EQ PUSH2 0x64B JUMPI DUP1 PUSH4 0xD3FC9864 EQ PUSH2 0x65E JUMPI DUP1 PUSH4 0xD80528AE EQ PUSH2 0x671 JUMPI DUP1 PUSH4 0xDD62ED3E EQ PUSH2 0x6C8 JUMPI DUP1 PUSH4 0xF2FDE38B EQ PUSH2 0x6DB JUMPI DUP1 PUSH4 0xFBDA31B0 EQ PUSH2 0x6EE JUMPI PUSH1 0x0 DUP1 REVERT JUMPDEST DUP1 PUSH4 0x98425171 EQ PUSH2 0x5CD JUMPI DUP1 PUSH4 0x9F3148A9 EQ PUSH2 0x5D5 JUMPI DUP1 PUSH4 0xA457C2D7 EQ PUSH2 0x5E8 JUMPI DUP1 PUSH4 0xA9059CBB EQ PUSH2 0x5FB JUMPI DUP1 PUSH4 0xB5D5B5FA EQ PUSH2 0x60E JUMPI PUSH1 0x0 DUP1 REVERT JUMPDEST DUP1 PUSH4 0x7B0472F0 GT PUSH2 0x115 JUMPI DUP1 PUSH4 0x7B0472F0 EQ PUSH2 0x55C JUMPI DUP1 PUSH4 0x80B01B61 EQ PUSH2 0x56F JUMPI DUP1 PUSH4 0x842E2981 EQ PUSH2 0x582 JUMPI DUP1 PUSH4 0x8456CB59 EQ PUSH2 0x5A2 JUMPI DUP1 PUSH4 0x8DA5CB5B EQ PUSH2 0x5AA JUMPI DUP1 PUSH4 0x95D89B41 EQ PUSH2 0x5C5 JUMPI PUSH1 0x0 DUP1 REVERT JUMPDEST DUP1 PUSH4 0x5B8E8264 EQ PUSH2 0x4DB JUMPI DUP1 PUSH4 0x5C975ABB EQ PUSH2 0x506 JUMPI DUP1 PUSH4 0x70A08231 EQ PUSH2 0x518 JUMPI DUP1 PUSH4 0x715018A6 EQ PUSH2 0x541 JUMPI DUP1 PUSH4 0x79CC6790 EQ PUSH2 0x549 JUMPI PUSH1 0x0 DUP1 REVERT JUMPDEST DUP1 PUSH4 0x2FF2E9DC GT PUSH2 0x1EA JUMPI DUP1 PUSH4 0x35917C64 GT PUSH2 0x1AE JUMPI DUP1 PUSH4 0x35917C64 EQ PUSH2 0x3E2 JUMPI DUP1 PUSH4 0x39509351 EQ PUSH2 0x3F4 JUMPI DUP1 PUSH4 0x3F4BA83A EQ PUSH2 0x407 JUMPI DUP1 PUSH4 0x42966C68 EQ PUSH2 0x40F JUMPI DUP1 PUSH4 0x4AC7251D EQ PUSH2 0x422 JUMPI DUP1 PUSH4 0x558EE223 EQ PUSH2 0x4C8 JUMPI PUSH1 0x0 DUP1 REVERT JUMPDEST DUP1 PUSH4 0x2FF2E9DC EQ PUSH2 0x392 JUMPI DUP1 PUSH4 0x313CE567 EQ PUSH2 0x3A5 JUMPI DUP1 PUSH4 0x3194DC5E EQ PUSH2 0x3B4 JUMPI DUP1 PUSH4 0x32CB6B0C EQ PUSH2 0x3C7 JUMPI DUP1 PUSH4 0x33D2499D EQ PUSH2 0x3DA JUMPI PUSH1 0x0 DUP1 REVERT JUMPDEST DUP1 PUSH4 0x18160DDD GT PUSH2 0x231 JUMPI DUP1 PUSH4 0x18160DDD EQ PUSH2 0x33E JUMPI DUP1 PUSH4 0x19086FEB EQ PUSH2 0x346 JUMPI DUP1 PUSH4 0x1B8D1401 EQ PUSH2 0x359 JUMPI DUP1 PUSH4 0x23B872DD EQ PUSH2 0x36C JUMPI DUP1 PUSH4 0x2E17DE78 EQ PUSH2 0x37F JUMPI PUSH1 0x0 DUP1 REVERT JUMPDEST DUP1 PUSH4 0x6FDDE03 EQ PUSH2 0x26E JUMPI DUP1 PUSH4 0x8A41557 EQ PUSH2 0x28C JUMPI DUP1 PUSH4 0x91273A7 EQ PUSH2 0x2D8 JUMPI DUP1 PUSH4 0x95EA7B3 EQ PUSH2 0x2ED JUMPI DUP1 PUSH4 0x1460FA87 EQ PUSH2 0x310 JUMPI JUMPDEST PUSH1 0x0 DUP1 REVERT JUMPDEST PUSH2 0x276 PUSH2 0x6F6 JUMP JUMPDEST PUSH1 0x40 MLOAD PUSH2 0x283 SWAP2 SWAP1 PUSH2 0x25AF JUMP JUMPDEST PUSH1 0x40 MLOAD DUP1 SWAP2 SUB SWAP1 RETURN JUMPDEST PUSH2 0x294 PUSH2 0x788 JUMP JUMPDEST PUSH1 0x40 DUP1 MLOAD SWAP10 DUP11 MSTORE PUSH1 0x20 DUP11 ADD SWAP9 SWAP1 SWAP9 MSTORE SWAP7 DUP9 ADD SWAP6 SWAP1 SWAP6 MSTORE PUSH1 0x60 DUP8 ADD SWAP4 SWAP1 SWAP4 MSTORE PUSH1 0x80 DUP7 ADD SWAP2 SWAP1 SWAP2 MSTORE PUSH1 0xA0 DUP6 ADD MSTORE PUSH1 0xC0 DUP5 ADD MSTORE PUSH1 0xE0 DUP4 ADD MSTORE PUSH2 0x100 DUP3 ADD MSTORE PUSH2 0x120 ADD PUSH2 0x283 JUMP JUMPDEST PUSH2 0x2EB PUSH2 0x2E6 CALLDATASIZE PUSH1 0x4 PUSH2 0x2665 JUMP JUMPDEST PUSH2 0x7E4 JUMP JUMPDEST STOP JUMPDEST PUSH2 0x300 PUSH2 0x2FB CALLDATASIZE PUSH1 0x4 PUSH2 0x26C8 JUMP JUMPDEST PUSH2 0x9A9 JUMP JUMPDEST PUSH1 0x40 MLOAD SWAP1 ISZERO ISZERO DUP2 MSTORE PUSH1 0x20 ADD PUSH2 0x283 JUMP JUMPDEST PUSH2 0x330 PUSH2 0x31E CALLDATASIZE PUSH1 0x4 PUSH2 0x26F2 JUMP JUMPDEST PUSH1 0x1D PUSH1 0x20 MSTORE PUSH1 0x0 SWAP1 DUP2 MSTORE PUSH1 0x40 SWAP1 KECCAK256 SLOAD DUP2 JUMP JUMPDEST PUSH1 0x40 MLOAD SWAP1 DUP2 MSTORE PUSH1 0x20 ADD PUSH2 0x283 JUMP JUMPDEST PUSH1 0x2 SLOAD PUSH2 0x330 JUMP JUMPDEST PUSH2 0x330 PUSH2 0x354 CALLDATASIZE PUSH1 0x4 PUSH2 0x270D JUMP JUMPDEST PUSH2 0x9C3 JUMP JUMPDEST PUSH2 0x330 PUSH2 0x367 CALLDATASIZE PUSH1 0x4 PUSH2 0x274A JUMP JUMPDEST PUSH2 0xA07 JUMP JUMPDEST PUSH2 0x300 PUSH2 0x37A CALLDATASIZE PUSH1 0x4 PUSH2 0x2776 JUMP JUMPDEST PUSH2 0xA48 JUMP JUMPDEST PUSH2 0x2EB PUSH2 0x38D CALLDATASIZE PUSH1 0x4 PUSH2 0x27B2 JUMP JUMPDEST PUSH2 0xA72 JUMP JUMPDEST PUSH2 0x330 PUSH12 0x33B2E3C9FD0803CE8000000 DUP2 JUMP JUMPDEST PUSH1 0x40 MLOAD PUSH1 0x12 DUP2 MSTORE PUSH1 0x20 ADD PUSH2 0x283 JUMP JUMPDEST PUSH2 0x2EB PUSH2 0x3C2 CALLDATASIZE PUSH1 0x4 PUSH2 0x26C8 JUMP JUMPDEST PUSH2 0xD59 JUMP JUMPDEST PUSH2 0x330 PUSH12 0x1027E72F1F12813088000000 DUP2 JUMP JUMPDEST PUSH1 0x15 SLOAD PUSH2 0x330 JUMP JUMPDEST PUSH2 0x330 PUSH11 0x52B7D2DCC80CD2E4000000 DUP2 JUMP JUMPDEST PUSH2 0x300 PUSH2 0x402 CALLDATASIZE PUSH1 0x4 PUSH2 0x26C8 JUMP JUMPDEST PUSH2 0xEA9 JUMP JUMPDEST PUSH2 0x2EB PUSH2 0xECB JUMP JUMPDEST PUSH2 0x2EB PUSH2 0x41D CALLDATASIZE PUSH1 0x4 PUSH2 0x27B2 JUMP JUMPDEST PUSH2 0xEDD JUMP JUMPDEST PUSH1 0x7 SLOAD PUSH1 0x8 SLOAD PUSH1 0x9 SLOAD PUSH1 0xA SLOAD PUSH1 0xB SLOAD PUSH1 0xC SLOAD PUSH1 0xD SLOAD PUSH1 0xE SLOAD PUSH1 0xF SLOAD PUSH1 0x10 SLOAD PUSH1 0x11 SLOAD PUSH1 0x12 SLOAD PUSH1 0x13 SLOAD PUSH1 0x14 SLOAD PUSH2 0x460 SWAP14 SWAP13 SWAP12 SWAP11 SWAP10 SWAP9 SWAP8 SWAP7 SWAP6 SWAP5 SWAP4 SWAP3 SWAP2 SWAP1 DUP15 JUMP JUMPDEST PUSH1 0x40 DUP1 MLOAD SWAP15 DUP16 MSTORE PUSH1 0x20 DUP16 ADD SWAP14 SWAP1 SWAP14 MSTORE SWAP12 DUP14 ADD SWAP11 SWAP1 SWAP11 MSTORE PUSH1 0x60 DUP13 ADD SWAP9 SWAP1 SWAP9 MSTORE PUSH1 0x80 DUP12 ADD SWAP7 SWAP1 SWAP7 MSTORE PUSH1 0xA0 DUP11 ADD SWAP5 SWAP1 SWAP5 MSTORE PUSH1 0xC0 DUP10 ADD SWAP3 SWAP1 SWAP3 MSTORE PUSH1 0xE0 DUP9 ADD MSTORE PUSH2 0x100 DUP8 ADD MSTORE PUSH2 0x120 DUP7 ADD MSTORE PUSH2 0x140 DUP6 ADD MSTORE PUSH2 0x160 DUP5 ADD MSTORE PUSH2 0x180 DUP4 ADD MSTORE PUSH2 0x1A0 DUP3 ADD MSTORE PUSH2 0x1C0 ADD PUSH2 0x283 JUMP JUMPDEST PUSH2 0x2EB PUSH2 0x4D6 CALLDATASIZE PUSH1 0x4 PUSH2 0x27CB JUMP JUMPDEST PUSH2 0xEE7 JUMP JUMPDEST PUSH2 0x330 PUSH2 0x4E9 CALLDATASIZE PUSH1 0x4 PUSH2 0x270D JUMP JUMPDEST DUP1 MLOAD PUSH1 0x20 DUP2 DUP4 ADD DUP2 ADD DUP1 MLOAD PUSH1 0x1E DUP3 MSTORE SWAP3 DUP3 ADD SWAP2 SWAP1 SWAP4 ADD KECCAK256 SWAP2 MSTORE SLOAD DUP2 JUMP JUMPDEST PUSH1 0x5 SLOAD PUSH1 0x1 PUSH1 0xA0 SHL SWAP1 DIV PUSH1 0xFF AND PUSH2 0x300 JUMP JUMPDEST PUSH2 0x330 PUSH2 0x526 CALLDATASIZE PUSH1 0x4 PUSH2 0x26F2 JUMP JUMPDEST PUSH1 0x1 PUSH1 0x1 PUSH1 0xA0 SHL SUB AND PUSH1 0x0 SWAP1 DUP2 MSTORE PUSH1 0x20 DUP2 SWAP1 MSTORE PUSH1 0x40 SWAP1 KECCAK256 SLOAD SWAP1 JUMP JUMPDEST PUSH2 0x2EB PUSH2 0x113F JUMP JUMPDEST PUSH2 0x2EB PUSH2 0x557 CALLDATASIZE PUSH1 0x4 PUSH2 0x26C8 JUMP JUMPDEST PUSH2 0x1151 JUMP JUMPDEST PUSH2 0x2EB PUSH2 0x56A CALLDATASIZE PUSH1 0x4 PUSH2 0x2829 JUMP JUMPDEST PUSH2 0x116A JUMP JUMPDEST PUSH2 0x2EB PUSH2 0x57D CALLDATASIZE PUSH1 0x4 PUSH2 0x284B JUMP JUMPDEST PUSH2 0x13D5 JUMP JUMPDEST PUSH2 0x595 PUSH2 0x590 CALLDATASIZE PUSH1 0x4 PUSH2 0x26F2 JUMP JUMPDEST PUSH2 0x1582 JUMP JUMPDEST PUSH1 0x40 MLOAD PUSH2 0x283 SWAP2 SWAP1 PUSH2 0x2890 JUMP JUMPDEST PUSH2 0x2EB PUSH2 0x1628 JUMP JUMPDEST PUSH1 0x5 SLOAD PUSH1 0x40 MLOAD PUSH1 0x1 PUSH1 0x1 PUSH1 0xA0 SHL SUB SWAP1 SWAP2 AND DUP2 MSTORE PUSH1 0x20 ADD PUSH2 0x283 JUMP JUMPDEST PUSH2 0x276 PUSH2 0x1638 JUMP JUMPDEST PUSH2 0x2EB PUSH2 0x1647 JUMP JUMPDEST PUSH2 0x2EB PUSH2 0x5E3 CALLDATASIZE PUSH1 0x4 PUSH2 0x284B JUMP JUMPDEST PUSH2 0x166D JUMP JUMPDEST PUSH2 0x300 PUSH2 0x5F6 CALLDATASIZE PUSH1 0x4 PUSH2 0x26C8 JUMP JUMPDEST PUSH2 0x16EA JUMP JUMPDEST PUSH2 0x300 PUSH2 0x609 CALLDATASIZE PUSH1 0x4 PUSH2 0x26C8 JUMP JUMPDEST PUSH2 0x1770 JUMP JUMPDEST PUSH2 0x621 PUSH2 0x61C CALLDATASIZE PUSH1 0x4 PUSH2 0x26C8 JUMP JUMPDEST PUSH2 0x1785 JUMP JUMPDEST PUSH1 0x40 DUP1 MLOAD SWAP6 DUP7 MSTORE PUSH1 0x20 DUP7 ADD SWAP5 SWAP1 SWAP5 MSTORE SWAP3 DUP5 ADD SWAP2 SWAP1 SWAP2 MSTORE PUSH1 0x60 DUP4 ADD MSTORE ISZERO ISZERO PUSH1 0x80 DUP3 ADD MSTORE PUSH1 0xA0 ADD PUSH2 0x283 JUMP JUMPDEST PUSH2 0x330 PUSH2 0x659 CALLDATASIZE PUSH1 0x4 PUSH2 0x26F2 JUMP JUMPDEST PUSH2 0x17D6 JUMP JUMPDEST PUSH2 0x2EB PUSH2 0x66C CALLDATASIZE PUSH1 0x4 PUSH2 0x2900 JUMP JUMPDEST PUSH2 0x1813 JUMP JUMPDEST PUSH1 0x15 SLOAD PUSH1 0x16 SLOAD PUSH1 0x17 SLOAD PUSH1 0x18 SLOAD PUSH1 0x19 SLOAD PUSH1 0x1A SLOAD PUSH1 0x1B SLOAD PUSH2 0x693 SWAP7 SWAP6 SWAP5 SWAP4 SWAP3 SWAP2 SWAP1 DUP8 JUMP JUMPDEST PUSH1 0x40 DUP1 MLOAD SWAP8 DUP9 MSTORE PUSH1 0x20 DUP9 ADD SWAP7 SWAP1 SWAP7 MSTORE SWAP5 DUP7 ADD SWAP4 SWAP1 SWAP4 MSTORE PUSH1 0x60 DUP6 ADD SWAP2 SWAP1 SWAP2 MSTORE PUSH1 0x80 DUP5 ADD MSTORE PUSH1 0xA0 DUP4 ADD MSTORE PUSH1 0xC0 DUP3 ADD MSTORE PUSH1 0xE0 ADD PUSH2 0x283 JUMP JUMPDEST PUSH2 0x330 PUSH2 0x6D6 CALLDATASIZE PUSH1 0x4 PUSH2 0x2941 JUMP JUMPDEST PUSH2 0x1B2E JUMP JUMPDEST PUSH2 0x2EB PUSH2 0x6E9 CALLDATASIZE PUSH1 0x4 PUSH2 0x26F2 JUMP JUMPDEST PUSH2 0x1B59 JUMP JUMPDEST PUSH2 0x330 PUSH2 0x1BCF JUMP JUMPDEST PUSH1 0x60 PUSH1 0x3 DUP1 SLOAD PUSH2 0x705 SWAP1 PUSH2 0x2974 JUMP JUMPDEST DUP1 PUSH1 0x1F ADD PUSH1 0x20 DUP1 SWAP2 DIV MUL PUSH1 0x20 ADD PUSH1 0x40 MLOAD SWAP1 DUP2 ADD PUSH1 0x40 MSTORE DUP1 SWAP3 SWAP2 SWAP1 DUP2 DUP2 MSTORE PUSH1 0x20 ADD DUP3 DUP1 SLOAD PUSH2 0x731 SWAP1 PUSH2 0x2974 JUMP JUMPDEST DUP1 ISZERO PUSH2 0x77E JUMPI DUP1 PUSH1 0x1F LT PUSH2 0x753 JUMPI PUSH2 0x100 DUP1 DUP4 SLOAD DIV MUL DUP4 MSTORE SWAP2 PUSH1 0x20 ADD SWAP2 PUSH2 0x77E JUMP JUMPDEST DUP3 ADD SWAP2 SWAP1 PUSH1 0x0 MSTORE PUSH1 0x20 PUSH1 0x0 KECCAK256 SWAP1 JUMPDEST DUP2 SLOAD DUP2 MSTORE SWAP1 PUSH1 0x1 ADD SWAP1 PUSH1 0x20 ADD DUP1 DUP4 GT PUSH2 0x761 JUMPI DUP3 SWAP1 SUB PUSH1 0x1F AND DUP3 ADD SWAP2 JUMPDEST POP POP POP POP POP SWAP1 POP SWAP1 JUMP JUMPDEST PUSH1 0x0 DUP1 PUSH1 0x0 DUP1 PUSH1 0x0 DUP1 PUSH1 0x0 DUP1 PUSH1 0x0 PUSH2 0x79F PUSH1 0x2 SLOAD SWAP1 JUMP JUMPDEST PUSH1 0x15 SLOAD PUSH1 0x16 SLOAD PUSH1 0x17 SLOAD PUSH1 0x18 SLOAD PUSH1 0x19 SLOAD PUSH1 0x1A SLOAD SWAP6 SWAP16 PUSH12 0x1027E72F1F12813088000000 SWAP16 POP PUSH11 0x52B7D2DCC80CD2E4000000 SWAP15 POP SWAP5 SWAP13 POP SWAP3 SWAP11 POP SWAP1 SWAP9 POP SWAP7 POP SWAP5 POP SWAP1 SWAP3 POP SWAP1 POP JUMP JUMPDEST PUSH2 0x7EC PUSH2 0x1D17 JUMP JUMPDEST PUSH1 0x0 DUP3 GT PUSH2 0x841 JUMPI PUSH1 0x40 MLOAD PUSH3 0x461BCD PUSH1 0xE5 SHL DUP2 MSTORE PUSH1 0x20 PUSH1 0x4 DUP3 ADD DUP2 SWAP1 MSTORE PUSH1 0x24 DUP3 ADD MSTORE PUSH32 0x416D6F756E74206D7573742062652067726561746572207468616E207A65726F PUSH1 0x44 DUP3 ADD MSTORE PUSH1 0x64 ADD JUMPDEST PUSH1 0x40 MLOAD DUP1 SWAP2 SUB SWAP1 REVERT JUMPDEST CALLER PUSH1 0x0 SWAP1 DUP2 MSTORE PUSH1 0x20 DUP2 SWAP1 MSTORE PUSH1 0x40 SWAP1 KECCAK256 SLOAD DUP3 GT ISZERO PUSH2 0x897 JUMPI PUSH1 0x40 MLOAD PUSH3 0x461BCD PUSH1 0xE5 SHL DUP2 MSTORE PUSH1 0x20 PUSH1 0x4 DUP3 ADD MSTORE PUSH1 0x14 PUSH1 0x24 DUP3 ADD MSTORE PUSH20 0x496E73756666696369656E742062616C616E6365 PUSH1 0x60 SHL PUSH1 0x44 DUP3 ADD MSTORE PUSH1 0x64 ADD PUSH2 0x838 JUMP JUMPDEST PUSH11 0x52B7D2DCC80CD2E4000000 DUP3 PUSH2 0x8AD PUSH1 0x2 SLOAD SWAP1 JUMP JUMPDEST PUSH2 0x8B7 SWAP2 SWAP1 PUSH2 0x29C4 JUMP JUMPDEST LT ISZERO PUSH2 0x905 JUMPI PUSH1 0x40 MLOAD PUSH3 0x461BCD PUSH1 0xE5 SHL DUP2 MSTORE PUSH1 0x20 PUSH1 0x4 DUP3 ADD DUP2 SWAP1 MSTORE PUSH1 0x24 DUP3 ADD MSTORE PUSH32 0x43616E6E6F74206275726E2062656C6F77206D696E696D756D20737570706C79 PUSH1 0x44 DUP3 ADD MSTORE PUSH1 0x64 ADD PUSH2 0x838 JUMP JUMPDEST PUSH1 0xD SLOAD DUP3 GT ISZERO PUSH2 0x957 JUMPI PUSH1 0x40 MLOAD PUSH3 0x461BCD PUSH1 0xE5 SHL DUP2 MSTORE PUSH1 0x20 PUSH1 0x4 DUP3 ADD MSTORE PUSH1 0x1C PUSH1 0x24 DUP3 ADD MSTORE PUSH32 0x45786365656473207065722D626C6F636B206275726E206C696D697400000000 PUSH1 0x44 DUP3 ADD MSTORE PUSH1 0x64 ADD PUSH2 0x838 JUMP JUMPDEST PUSH2 0x961 CALLER DUP4 PUSH2 0x1D64 JUMP JUMPDEST DUP2 PUSH1 0x15 PUSH1 0x0 ADD PUSH1 0x0 DUP3 DUP3 SLOAD PUSH2 0x976 SWAP2 SWAP1 PUSH2 0x29D7 JUMP JUMPDEST SWAP1 SWAP2 SSTORE POP POP PUSH1 0x40 MLOAD CALLER SWAP1 PUSH1 0x0 DUP1 MLOAD PUSH1 0x20 PUSH2 0x2B35 DUP4 CODECOPY DUP2 MLOAD SWAP2 MSTORE SWAP1 PUSH2 0x99D SWAP1 DUP6 SWAP1 DUP6 SWAP1 PUSH2 0x29EA JUMP JUMPDEST PUSH1 0x40 MLOAD DUP1 SWAP2 SUB SWAP1 LOG2 POP POP JUMP JUMPDEST PUSH1 0x0 CALLER PUSH2 0x9B7 DUP2 DUP6 DUP6 PUSH2 0x1E97 JUMP JUMPDEST PUSH1 0x1 SWAP2 POP POP JUMPDEST SWAP3 SWAP2 POP POP JUMP JUMPDEST PUSH1 0x0 DUP1 PUSH1 0x1E DUP4 PUSH1 0x40 MLOAD PUSH2 0x9D6 SWAP2 SWAP1 PUSH2 0x2A03 JUMP JUMPDEST SWAP1 DUP2 MSTORE PUSH1 0x20 ADD PUSH1 0x40 MLOAD DUP1 SWAP2 SUB SWAP1 KECCAK256 SLOAD SWAP1 POP PUSH1 0x0 DUP2 GT PUSH2 0x9FE JUMPI PUSH9 0x56BC75E2D63100000 PUSH2 0xA00 JUMP JUMPDEST DUP1 JUMPDEST SWAP4 SWAP3 POP POP POP JUMP JUMPDEST PUSH1 0x0 DUP1 PUSH2 0x2710 PUSH2 0xA17 DUP5 DUP8 PUSH2 0x2A1F JUMP JUMPDEST PUSH2 0xA21 SWAP2 SWAP1 PUSH2 0x2A36 JUMP JUMPDEST SWAP1 POP PUSH1 0x0 PUSH4 0x1E13380 PUSH2 0xA34 DUP7 DUP5 PUSH2 0x2A1F JUMP JUMPDEST PUSH2 0xA3E SWAP2 SWAP1 PUSH2 0x2A36 JUMP JUMPDEST SWAP7 SWAP6 POP POP POP POP POP POP JUMP JUMPDEST PUSH1 0x0 PUSH2 0xA52 PUSH2 0x1D17 JUMP JUMPDEST CALLER PUSH2 0xA5E DUP6 DUP3 DUP6 PUSH2 0x1FB3 JUMP JUMPDEST PUSH2 0xA69 DUP6 DUP6 DUP6 PUSH2 0x2027 JUMP JUMPDEST SWAP6 SWAP5 POP POP POP POP POP JUMP JUMPDEST PUSH2 0xA7A PUSH2 0x2189 JUMP JUMPDEST PUSH2 0xA82 PUSH2 0x1D17 JUMP JUMPDEST CALLER PUSH1 0x0 SWAP1 DUP2 MSTORE PUSH1 0x1C PUSH1 0x20 MSTORE PUSH1 0x40 SWAP1 KECCAK256 SLOAD DUP2 LT PUSH2 0xAD6 JUMPI PUSH1 0x40 MLOAD PUSH3 0x461BCD PUSH1 0xE5 SHL DUP2 MSTORE PUSH1 0x20 PUSH1 0x4 DUP3 ADD MSTORE PUSH1 0x13 PUSH1 0x24 DUP3 ADD MSTORE PUSH19 0x92DCECC2D8D2C840E6E8C2D6CA40D2DCC8CAF PUSH1 0x6B SHL PUSH1 0x44 DUP3 ADD MSTORE PUSH1 0x64 ADD PUSH2 0x838 JUMP JUMPDEST CALLER PUSH1 0x0 SWAP1 DUP2 MSTORE PUSH1 0x1C PUSH1 0x20 MSTORE PUSH1 0x40 DUP2 KECCAK256 DUP1 SLOAD DUP4 SWAP1 DUP2 LT PUSH2 0xAF7 JUMPI PUSH2 0xAF7 PUSH2 0x2A58 JUMP JUMPDEST PUSH1 0x0 SWAP2 DUP3 MSTORE PUSH1 0x20 SWAP1 SWAP2 KECCAK256 PUSH1 0x5 SWAP1 SWAP2 MUL ADD PUSH1 0x4 DUP2 ADD SLOAD SWAP1 SWAP2 POP PUSH1 0xFF AND PUSH2 0xB51 JUMPI PUSH1 0x40 MLOAD PUSH3 0x461BCD PUSH1 0xE5 SHL DUP2 MSTORE PUSH1 0x20 PUSH1 0x4 DUP3 ADD MSTORE PUSH1 0x10 PUSH1 0x24 DUP3 ADD MSTORE PUSH16 0x5374616B65206E6F7420616374697665 PUSH1 0x80 SHL PUSH1 0x44 DUP3 ADD MSTORE PUSH1 0x64 ADD PUSH2 0x838 JUMP JUMPDEST DUP1 SLOAD PUSH1 0x2 DUP3 ADD SLOAD TIMESTAMP DUP2 DUP2 LT ISZERO SWAP2 PUSH1 0x0 SWAP2 GT PUSH2 0xB7A JUMPI PUSH1 0x1 DUP5 ADD SLOAD PUSH2 0xB75 SWAP1 TIMESTAMP PUSH2 0x29C4 JUMP JUMPDEST PUSH2 0xB8E JUMP JUMPDEST DUP4 PUSH1 0x1 ADD SLOAD DUP5 PUSH1 0x2 ADD SLOAD PUSH2 0xB8E SWAP2 SWAP1 PUSH2 0x29C4 JUMP JUMPDEST SWAP1 POP PUSH1 0x0 PUSH2 0xBA1 DUP5 DUP4 DUP8 PUSH1 0x3 ADD SLOAD PUSH2 0xA07 JUMP JUMPDEST SWAP1 POP PUSH1 0x0 DUP4 PUSH2 0xBB8 JUMPI PUSH2 0xBB5 PUSH1 0x14 DUP7 PUSH2 0x2A36 JUMP JUMPDEST SWAP1 POP JUMPDEST PUSH1 0x0 PUSH2 0xBC4 DUP3 DUP8 PUSH2 0x29C4 JUMP JUMPDEST PUSH1 0x4 DUP9 ADD DUP1 SLOAD PUSH1 0xFF NOT AND SWAP1 SSTORE CALLER PUSH1 0x0 SWAP1 DUP2 MSTORE PUSH1 0x1D PUSH1 0x20 MSTORE PUSH1 0x40 DUP2 KECCAK256 DUP1 SLOAD SWAP3 SWAP4 POP DUP9 SWAP3 SWAP1 SWAP2 SWAP1 PUSH2 0xBF4 SWAP1 DUP5 SWAP1 PUSH2 0x29C4 JUMP JUMPDEST SWAP1 SWAP2 SSTORE POP POP PUSH1 0x17 DUP1 SLOAD DUP8 SWAP2 SWAP1 PUSH1 0x0 SWAP1 PUSH2 0xC0E SWAP1 DUP5 SWAP1 PUSH2 0x29C4 JUMP JUMPDEST SWAP1 SWAP2 SSTORE POP PUSH2 0xC1F SWAP1 POP ADDRESS CALLER DUP4 PUSH2 0x21E2 JUMP JUMPDEST PUSH1 0x0 DUP4 GT DUP1 ISZERO PUSH2 0xC4E JUMPI POP PUSH12 0x1027E72F1F12813088000000 DUP4 PUSH2 0xC41 PUSH1 0x2 SLOAD SWAP1 JUMP JUMPDEST PUSH2 0xC4B SWAP2 SWAP1 PUSH2 0x29D7 JUMP JUMPDEST GT ISZERO JUMPDEST ISZERO PUSH2 0xC78 JUMPI PUSH2 0xC5D CALLER DUP5 PUSH2 0x230C JUMP JUMPDEST DUP3 PUSH1 0x15 PUSH1 0x1 ADD PUSH1 0x0 DUP3 DUP3 SLOAD PUSH2 0xC72 SWAP2 SWAP1 PUSH2 0x29D7 JUMP JUMPDEST SWAP1 SWAP2 SSTORE POP POP JUMPDEST DUP2 ISZERO PUSH2 0xD02 JUMPI PUSH2 0xC88 ADDRESS DUP4 PUSH2 0x1D64 JUMP JUMPDEST DUP2 PUSH1 0x15 PUSH1 0x0 ADD PUSH1 0x0 DUP3 DUP3 SLOAD PUSH2 0xC9D SWAP2 SWAP1 PUSH2 0x29D7 JUMP JUMPDEST SWAP1 SWAP2 SSTORE POP POP PUSH1 0x40 MLOAD ADDRESS SWAP1 PUSH1 0x0 DUP1 MLOAD PUSH1 0x20 PUSH2 0x2B35 DUP4 CODECOPY DUP2 MLOAD SWAP2 MSTORE SWAP1 PUSH2 0xCF9 SWAP1 DUP6 DUP2 MSTORE PUSH1 0x40 PUSH1 0x20 DUP3 ADD DUP2 SWAP1 MSTORE PUSH1 0x17 SWAP1 DUP3 ADD MSTORE PUSH32 0x6561726C795F756E7374616B696E675F70656E616C7479000000000000000000 PUSH1 0x60 DUP3 ADD MSTORE PUSH1 0x80 ADD SWAP1 JUMP JUMPDEST PUSH1 0x40 MLOAD DUP1 SWAP2 SUB SWAP1 LOG2 JUMPDEST PUSH1 0x40 DUP1 MLOAD DUP3 DUP2 MSTORE PUSH1 0x20 DUP2 ADD DUP6 SWAP1 MSTORE SWAP1 DUP2 ADD DUP4 SWAP1 MSTORE CALLER SWAP1 PUSH32 0xBA28B0C1ECDB762C56C12F6843B89DE0BD02AC5A10B2F1E5F0E4F2BF23D76A1C SWAP1 PUSH1 0x60 ADD PUSH1 0x40 MLOAD DUP1 SWAP2 SUB SWAP1 LOG2 POP POP POP POP POP POP POP PUSH2 0xD56 PUSH1 0x1 PUSH1 0x6 SSTORE JUMP JUMPDEST POP JUMP JUMPDEST PUSH2 0xD61 PUSH2 0x23CB JUMP JUMPDEST PUSH1 0x1 PUSH1 0x1 PUSH1 0xA0 SHL SUB DUP3 AND PUSH1 0x0 SWAP1 DUP2 MSTORE PUSH1 0x1C PUSH1 0x20 MSTORE PUSH1 0x40 SWAP1 KECCAK256 SLOAD DUP2 LT PUSH2 0xDBE JUMPI PUSH1 0x40 MLOAD PUSH3 0x461BCD PUSH1 0xE5 SHL DUP2 MSTORE PUSH1 0x20 PUSH1 0x4 DUP3 ADD MSTORE PUSH1 0x13 PUSH1 0x24 DUP3 ADD MSTORE PUSH19 0x92DCECC2D8D2C840E6E8C2D6CA40D2DCC8CAF PUSH1 0x6B SHL PUSH1 0x44 DUP3 ADD MSTORE PUSH1 0x64 ADD PUSH2 0x838 JUMP JUMPDEST PUSH1 0x1 PUSH1 0x1 PUSH1 0xA0 SHL SUB DUP3 AND PUSH1 0x0 SWAP1 DUP2 MSTORE PUSH1 0x1C PUSH1 0x20 MSTORE PUSH1 0x40 DUP2 KECCAK256 DUP1 SLOAD DUP4 SWAP1 DUP2 LT PUSH2 0xDE8 JUMPI PUSH2 0xDE8 PUSH2 0x2A58 JUMP JUMPDEST PUSH1 0x0 SWAP2 DUP3 MSTORE PUSH1 0x20 SWAP1 SWAP2 KECCAK256 PUSH1 0x5 SWAP1 SWAP2 MUL ADD PUSH1 0x4 DUP2 ADD SLOAD SWAP1 SWAP2 POP PUSH1 0xFF AND PUSH2 0xE42 JUMPI PUSH1 0x40 MLOAD PUSH3 0x461BCD PUSH1 0xE5 SHL DUP2 MSTORE PUSH1 0x20 PUSH1 0x4 DUP3 ADD MSTORE PUSH1 0x10 PUSH1 0x24 DUP3 ADD MSTORE PUSH16 0x5374616B65206E6F7420616374697665 PUSH1 0x80 SHL PUSH1 0x44 DUP3 ADD MSTORE PUSH1 0x64 ADD PUSH2 0x838 JUMP JUMPDEST DUP1 SLOAD PUSH1 0x4 DUP3 ADD DUP1 SLOAD PUSH1 0xFF NOT AND SWAP1 SSTORE PUSH1 0x1 PUSH1 0x1 PUSH1 0xA0 SHL SUB DUP5 AND PUSH1 0x0 SWAP1 DUP2 MSTORE PUSH1 0x1D PUSH1 0x20 MSTORE PUSH1 0x40 DUP2 KECCAK256 DUP1 SLOAD DUP4 SWAP3 SWAP1 PUSH2 0xE78 SWAP1 DUP5 SWAP1 PUSH2 0x29C4 JUMP JUMPDEST SWAP1 SWAP2 SSTORE POP POP PUSH1 0x17 DUP1 SLOAD DUP3 SWAP2 SWAP1 PUSH1 0x0 SWAP1 PUSH2 0xE92 SWAP1 DUP5 SWAP1 PUSH2 0x29C4 JUMP JUMPDEST SWAP1 SWAP2 SSTORE POP PUSH2 0xEA3 SWAP1 POP ADDRESS DUP6 DUP4 PUSH2 0x21E2 JUMP JUMPDEST POP POP POP POP JUMP JUMPDEST PUSH1 0x0 CALLER PUSH2 0x9B7 DUP2 DUP6 DUP6 PUSH2 0xEBC DUP4 DUP4 PUSH2 0x1B2E JUMP JUMPDEST PUSH2 0xEC6 SWAP2 SWAP1 PUSH2 0x29D7 JUMP JUMPDEST PUSH2 0x1E97 JUMP JUMPDEST PUSH2 0xED3 PUSH2 0x23CB JUMP JUMPDEST PUSH2 0xEDB PUSH2 0x2425 JUMP JUMPDEST JUMP JUMPDEST PUSH2 0xD56 CALLER DUP3 PUSH2 0x1D64 JUMP JUMPDEST PUSH2 0xEEF PUSH2 0x23CB JUMP JUMPDEST PUSH2 0xEF7 PUSH2 0x1D17 JUMP JUMPDEST PUSH1 0x0 PUSH2 0xF02 DUP3 PUSH2 0x9C3 JUMP JUMPDEST SWAP1 POP DUP1 PUSH2 0xF24 DUP6 PUSH1 0x1 PUSH1 0x1 PUSH1 0xA0 SHL SUB AND PUSH1 0x0 SWAP1 DUP2 MSTORE PUSH1 0x20 DUP2 SWAP1 MSTORE PUSH1 0x40 SWAP1 KECCAK256 SLOAD SWAP1 JUMP JUMPDEST LT ISZERO PUSH2 0xF80 JUMPI PUSH1 0x40 MLOAD PUSH3 0x461BCD PUSH1 0xE5 SHL DUP2 MSTORE PUSH1 0x20 PUSH1 0x4 DUP3 ADD MSTORE PUSH1 0x25 PUSH1 0x24 DUP3 ADD MSTORE PUSH32 0x496E73756666696369656E742062616C616E636520666F722076657269666963 PUSH1 0x44 DUP3 ADD MSTORE PUSH5 0x30BA34B7B7 PUSH1 0xD9 SHL PUSH1 0x64 DUP3 ADD MSTORE PUSH1 0x84 ADD PUSH2 0x838 JUMP JUMPDEST PUSH2 0xF8A DUP5 DUP3 PUSH2 0x1D64 JUMP JUMPDEST DUP1 PUSH1 0x15 PUSH1 0x0 ADD PUSH1 0x0 DUP3 DUP3 SLOAD PUSH2 0xF9F SWAP2 SWAP1 PUSH2 0x29D7 JUMP JUMPDEST SWAP1 SWAP2 SSTORE POP POP PUSH1 0xA SLOAD PUSH1 0x0 SWAP1 PUSH2 0x2710 SWAP1 PUSH2 0xFB8 SWAP1 DUP5 PUSH2 0x2A1F JUMP JUMPDEST PUSH2 0xFC2 SWAP2 SWAP1 PUSH2 0x2A36 JUMP JUMPDEST SWAP1 POP PUSH12 0x1027E72F1F12813088000000 DUP2 PUSH2 0xFDB PUSH1 0x2 SLOAD SWAP1 JUMP JUMPDEST PUSH2 0xFE5 SWAP2 SWAP1 PUSH2 0x29D7 JUMP JUMPDEST GT PUSH2 0x100F JUMPI PUSH2 0xFF4 DUP6 DUP3 PUSH2 0x230C JUMP JUMPDEST DUP1 PUSH1 0x15 PUSH1 0x1 ADD PUSH1 0x0 DUP3 DUP3 SLOAD PUSH2 0x1009 SWAP2 SWAP1 PUSH2 0x29D7 JUMP JUMPDEST SWAP1 SWAP2 SSTORE POP POP JUMPDEST PUSH1 0x19 DUP1 SLOAD SWAP1 PUSH1 0x0 PUSH2 0x101F DUP4 PUSH2 0x2A6E JUMP JUMPDEST SWAP2 SWAP1 POP SSTORE POP DUP4 PUSH1 0x1 PUSH1 0x1 PUSH1 0xA0 SHL SUB AND DUP6 PUSH1 0x1 PUSH1 0x1 PUSH1 0xA0 SHL SUB AND PUSH32 0x73AF6D4C0D49C107D61057C2C8EADEE429C2160BFC1ACFAF3F454639FDD9E641 DUP6 DUP6 DUP6 PUSH1 0x40 MLOAD PUSH2 0x106B SWAP4 SWAP3 SWAP2 SWAP1 PUSH2 0x2A87 JUMP JUMPDEST PUSH1 0x40 MLOAD DUP1 SWAP2 SUB SWAP1 LOG3 DUP5 PUSH1 0x1 PUSH1 0x1 PUSH1 0xA0 SHL SUB AND PUSH1 0x0 DUP1 MLOAD PUSH1 0x20 PUSH2 0x2B35 DUP4 CODECOPY DUP2 MLOAD SWAP2 MSTORE DUP4 PUSH1 0x40 MLOAD PUSH2 0x10C5 SWAP2 DUP2 MSTORE PUSH1 0x40 PUSH1 0x20 DUP3 ADD DUP2 SWAP1 MSTORE PUSH1 0x11 SWAP1 DUP3 ADD MSTORE PUSH17 0x3B32B934B334B1B0BA34B7B72FB13AB937 PUSH1 0x79 SHL PUSH1 0x60 DUP3 ADD MSTORE PUSH1 0x80 ADD SWAP1 JUMP JUMPDEST PUSH1 0x40 MLOAD DUP1 SWAP2 SUB SWAP1 LOG2 DUP5 PUSH1 0x1 PUSH1 0x1 PUSH1 0xA0 SHL SUB AND PUSH32 0x9D89E36EADF856DB0AD9FFB5A569E07F95634DDDD9501141ECF04820484AD0DC DUP3 PUSH1 0x40 MLOAD PUSH2 0x1130 SWAP2 DUP2 MSTORE PUSH1 0x40 PUSH1 0x20 DUP3 ADD DUP2 SWAP1 MSTORE PUSH1 0x10 SWAP1 DUP3 ADD MSTORE PUSH16 0x1D985B1A59185D1BDC97DC995DD85C99 PUSH1 0x82 SHL PUSH1 0x60 DUP3 ADD MSTORE PUSH1 0x80 ADD SWAP1 JUMP JUMPDEST PUSH1 0x40 MLOAD DUP1 SWAP2 SUB SWAP1 LOG2 POP POP POP POP POP JUMP JUMPDEST PUSH2 0x1147 PUSH2 0x23CB JUMP JUMPDEST PUSH2 0xEDB PUSH1 0x0 PUSH2 0x247A JUMP JUMPDEST PUSH2 0x115C DUP3 CALLER DUP4 PUSH2 0x1FB3 JUMP JUMPDEST PUSH2 0x1166 DUP3 DUP3 PUSH2 0x1D64 JUMP JUMPDEST POP POP JUMP JUMPDEST PUSH2 0x1172 PUSH2 0x2189 JUMP JUMPDEST PUSH2 0x117A PUSH2 0x1D17 JUMP JUMPDEST PUSH1 0x11 SLOAD DUP3 LT ISZERO PUSH2 0x11CC JUMPI PUSH1 0x40 MLOAD PUSH3 0x461BCD PUSH1 0xE5 SHL DUP2 MSTORE PUSH1 0x20 PUSH1 0x4 DUP3 ADD MSTORE PUSH1 0x1C PUSH1 0x24 DUP3 ADD MSTORE PUSH32 0x42656C6F77206D696E696D756D207374616B696E6720616D6F756E7400000000 PUSH1 0x44 DUP3 ADD MSTORE PUSH1 0x64 ADD PUSH2 0x838 JUMP JUMPDEST CALLER PUSH1 0x0 SWAP1 DUP2 MSTORE PUSH1 0x20 DUP2 SWAP1 MSTORE PUSH1 0x40 SWAP1 KECCAK256 SLOAD DUP3 GT ISZERO PUSH2 0x1222 JUMPI PUSH1 0x40 MLOAD PUSH3 0x461BCD PUSH1 0xE5 SHL DUP2 MSTORE PUSH1 0x20 PUSH1 0x4 DUP3 ADD MSTORE PUSH1 0x14 PUSH1 0x24 DUP3 ADD MSTORE PUSH20 0x496E73756666696369656E742062616C616E6365 PUSH1 0x60 SHL PUSH1 0x44 DUP3 ADD MSTORE PUSH1 0x64 ADD PUSH2 0x838 JUMP JUMPDEST PUSH1 0x12 SLOAD DUP2 LT ISZERO PUSH2 0x127F JUMPI PUSH1 0x40 MLOAD PUSH3 0x461BCD PUSH1 0xE5 SHL DUP2 MSTORE PUSH1 0x20 PUSH1 0x4 DUP3 ADD MSTORE PUSH1 0x22 PUSH1 0x24 DUP3 ADD MSTORE PUSH32 0x4475726174696F6E2062656C6F77206D696E696D756D206C6F636B2070657269 PUSH1 0x44 DUP3 ADD MSTORE PUSH2 0x1BD9 PUSH1 0xF2 SHL PUSH1 0x64 DUP3 ADD MSTORE PUSH1 0x84 ADD PUSH2 0x838 JUMP JUMPDEST PUSH2 0x128A CALLER ADDRESS DUP5 PUSH2 0x21E2 JUMP JUMPDEST PUSH1 0x0 PUSH1 0x40 MLOAD DUP1 PUSH1 0xA0 ADD PUSH1 0x40 MSTORE DUP1 DUP5 DUP2 MSTORE PUSH1 0x20 ADD TIMESTAMP DUP2 MSTORE PUSH1 0x20 ADD DUP4 TIMESTAMP PUSH2 0x12AF SWAP2 SWAP1 PUSH2 0x29D7 JUMP JUMPDEST DUP2 MSTORE PUSH1 0x10 SLOAD PUSH1 0x20 DUP1 DUP4 ADD SWAP2 SWAP1 SWAP2 MSTORE PUSH1 0x1 PUSH1 0x40 SWAP3 DUP4 ADD DUP2 SWAP1 MSTORE CALLER PUSH1 0x0 DUP2 DUP2 MSTORE PUSH1 0x1C DUP5 MSTORE DUP5 DUP2 KECCAK256 DUP1 SLOAD DUP1 DUP6 ADD DUP3 SSTORE SWAP1 DUP3 MSTORE DUP5 DUP3 KECCAK256 DUP8 MLOAD PUSH1 0x5 SWAP1 SWAP3 MUL ADD SWAP1 DUP2 SSTORE DUP7 DUP6 ADD MLOAD SWAP4 DUP2 ADD SWAP4 SWAP1 SWAP4 SSTORE DUP6 DUP6 ADD MLOAD PUSH1 0x2 DUP5 ADD SSTORE PUSH1 0x60 DUP7 ADD MLOAD PUSH1 0x3 DUP5 ADD SSTORE PUSH1 0x80 DUP7 ADD MLOAD PUSH1 0x4 SWAP1 SWAP4 ADD DUP1 SLOAD PUSH1 0xFF NOT AND SWAP4 ISZERO ISZERO SWAP4 SWAP1 SWAP4 OR SWAP1 SWAP3 SSTORE DUP2 MSTORE PUSH1 0x1D SWAP1 SWAP2 MSTORE SWAP1 DUP2 KECCAK256 DUP1 SLOAD SWAP3 SWAP4 POP DUP6 SWAP3 SWAP1 SWAP2 SWAP1 PUSH2 0x1343 SWAP1 DUP5 SWAP1 PUSH2 0x29D7 JUMP JUMPDEST SWAP1 SWAP2 SSTORE POP POP PUSH1 0x17 DUP1 SLOAD DUP5 SWAP2 SWAP1 PUSH1 0x0 SWAP1 PUSH2 0x135D SWAP1 DUP5 SWAP1 PUSH2 0x29D7 JUMP JUMPDEST SWAP1 SWAP2 SSTORE POP POP CALLER PUSH1 0x0 SWAP1 DUP2 MSTORE PUSH1 0x1C PUSH1 0x20 MSTORE PUSH1 0x40 SWAP1 KECCAK256 SLOAD PUSH1 0x1 SUB PUSH2 0x138F JUMPI PUSH1 0x1A DUP1 SLOAD SWAP1 PUSH1 0x0 PUSH2 0x1389 DUP4 PUSH2 0x2A6E JUMP JUMPDEST SWAP2 SWAP1 POP SSTORE POP JUMPDEST PUSH1 0x40 DUP1 MLOAD DUP5 DUP2 MSTORE PUSH1 0x20 DUP2 ADD DUP5 SWAP1 MSTORE CALLER SWAP2 PUSH32 0xDD2A19C3BDD089CBE77C04F5655F83DE0504D6140D12C8667646F55D0557C4DC SWAP2 ADD PUSH1 0x40 MLOAD DUP1 SWAP2 SUB SWAP1 LOG2 POP PUSH2 0x1166 PUSH1 0x1 PUSH1 0x6 SSTORE JUMP JUMPDEST PUSH2 0x13DD PUSH2 0x23CB JUMP JUMPDEST PUSH1 0x40 DUP1 MLOAD DUP1 DUP3 ADD SWAP1 SWAP2 MSTORE PUSH1 0x13 DUP2 MSTORE PUSH19 0x7472616E73616374696F6E4275726E52617465 PUSH1 0x68 SHL PUSH1 0x20 SWAP2 DUP3 ADD MSTORE DUP3 MLOAD SWAP1 DUP4 ADD KECCAK256 PUSH1 0x0 SWAP1 PUSH32 0x4D6527E8084927457A37E2CBD096D1A66BA61AD2F14C0052AC37790C261D52CC ADD PUSH2 0x1445 JUMPI POP PUSH1 0x7 DUP1 SLOAD SWAP1 DUP3 SWAP1 SSTORE PUSH2 0x1542 JUMP JUMPDEST PUSH1 0x40 DUP1 MLOAD DUP1 DUP3 ADD SWAP1 SWAP2 MSTORE PUSH1 0xA DUP2 MSTORE PUSH10 0x7374616B696E67415059 PUSH1 0xB0 SHL PUSH1 0x20 SWAP2 DUP3 ADD MSTORE DUP4 MLOAD SWAP1 DUP5 ADD KECCAK256 PUSH32 0x2391613CB379BCCAE74089472D6B399303897BA5E215C6D1B49068DB6DCF774 ADD PUSH2 0x14A1 JUMPI POP PUSH1 0x10 DUP1 SLOAD SWAP1 DUP3 SWAP1 SSTORE PUSH2 0x1542 JUMP JUMPDEST PUSH1 0x40 DUP1 MLOAD DUP1 DUP3 ADD SWAP1 SWAP2 MSTORE PUSH1 0x13 DUP2 MSTORE PUSH19 0x19DBDD995C9B985B98D9551A1C995CDA1BDB19 PUSH1 0x6A SHL PUSH1 0x20 SWAP2 DUP3 ADD MSTORE DUP4 MLOAD SWAP1 DUP5 ADD KECCAK256 PUSH32 0xA2C4E64A6997A78C11A08C9818160F3582501EE23B1A2EDDAA84B5E5ABC75387 ADD PUSH2 0x1506 JUMPI POP PUSH1 0x13 DUP1 SLOAD SWAP1 DUP3 SWAP1 SSTORE PUSH2 0x1542 JUMP JUMPDEST PUSH1 0x40 MLOAD PUSH3 0x461BCD PUSH1 0xE5 SHL DUP2 MSTORE PUSH1 0x20 PUSH1 0x4 DUP3 ADD MSTORE PUSH1 0x11 PUSH1 0x24 DUP3 ADD MSTORE PUSH17 0x24B73B30B634B2103830B930B6B2BA32B9 PUSH1 0x79 SHL PUSH1 0x44 DUP3 ADD MSTORE PUSH1 0x64 ADD PUSH2 0x838 JUMP JUMPDEST PUSH32 0xBB13B39CDD51634B3A5263E84B984B0D4D5CEEA41CDD6CA5A1F474F5BD1D9DFA DUP4 DUP3 DUP5 PUSH1 0x40 MLOAD PUSH2 0x1575 SWAP4 SWAP3 SWAP2 SWAP1 PUSH2 0x2A87 JUMP JUMPDEST PUSH1 0x40 MLOAD DUP1 SWAP2 SUB SWAP1 LOG1 POP POP POP JUMP JUMPDEST PUSH1 0x1 PUSH1 0x1 PUSH1 0xA0 SHL SUB DUP2 AND PUSH1 0x0 SWAP1 DUP2 MSTORE PUSH1 0x1C PUSH1 0x20 SWAP1 DUP2 MSTORE PUSH1 0x40 DUP1 DUP4 KECCAK256 DUP1 SLOAD DUP3 MLOAD DUP2 DUP6 MUL DUP2 ADD DUP6 ADD SWAP1 SWAP4 MSTORE DUP1 DUP4 MSTORE PUSH1 0x60 SWAP5 SWAP3 SWAP4 SWAP2 SWAP3 SWAP1 SWAP2 DUP5 ADD JUMPDEST DUP3 DUP3 LT ISZERO PUSH2 0x161D JUMPI PUSH1 0x0 DUP5 DUP2 MSTORE PUSH1 0x20 SWAP1 DUP2 SWAP1 KECCAK256 PUSH1 0x40 DUP1 MLOAD PUSH1 0xA0 DUP2 ADD DUP3 MSTORE PUSH1 0x5 DUP7 MUL SWAP1 SWAP3 ADD DUP1 SLOAD DUP4 MSTORE PUSH1 0x1 DUP1 DUP3 ADD SLOAD DUP5 DUP7 ADD MSTORE PUSH1 0x2 DUP3 ADD SLOAD SWAP3 DUP5 ADD SWAP3 SWAP1 SWAP3 MSTORE PUSH1 0x3 DUP2 ADD SLOAD PUSH1 0x60 DUP5 ADD MSTORE PUSH1 0x4 ADD SLOAD PUSH1 0xFF AND ISZERO ISZERO PUSH1 0x80 DUP4 ADD MSTORE SWAP1 DUP4 MSTORE SWAP1 SWAP3 ADD SWAP2 ADD PUSH2 0x15BA JUMP JUMPDEST POP POP POP POP SWAP1 POP SWAP2 SWAP1 POP JUMP JUMPDEST PUSH2 0x1630 PUSH2 0x23CB JUMP JUMPDEST PUSH2 0xEDB PUSH2 0x24CC JUMP JUMPDEST PUSH1 0x60 PUSH1 0x4 DUP1 SLOAD PUSH2 0x705 SWAP1 PUSH2 0x2974 JUMP JUMPDEST PUSH2 0x164F PUSH2 0x23CB JUMP JUMPDEST PUSH2 0x5A0 PUSH1 0x15 PUSH1 0x6 ADD PUSH1 0x0 DUP3 DUP3 SLOAD PUSH2 0x1666 SWAP2 SWAP1 PUSH2 0x29D7 JUMP JUMPDEST SWAP1 SWAP2 SSTORE POP POP JUMP JUMPDEST PUSH2 0x1675 PUSH2 0x23CB JUMP JUMPDEST PUSH1 0x0 DUP2 GT PUSH2 0x16C5 JUMPI PUSH1 0x40 MLOAD PUSH3 0x461BCD PUSH1 0xE5 SHL DUP2 MSTORE PUSH1 0x20 PUSH1 0x4 DUP3 ADD MSTORE PUSH1 0x1E PUSH1 0x24 DUP3 ADD MSTORE PUSH32 0x436F7374206D7573742062652067726561746572207468616E207A65726F0000 PUSH1 0x44 DUP3 ADD MSTORE PUSH1 0x64 ADD PUSH2 0x838 JUMP JUMPDEST DUP1 PUSH1 0x1E DUP4 PUSH1 0x40 MLOAD PUSH2 0x16D6 SWAP2 SWAP1 PUSH2 0x2A03 JUMP JUMPDEST SWAP1 DUP2 MSTORE PUSH1 0x40 MLOAD SWAP1 DUP2 SWAP1 SUB PUSH1 0x20 ADD SWAP1 KECCAK256 SSTORE POP POP JUMP JUMPDEST PUSH1 0x0 CALLER DUP2 PUSH2 0x16F8 DUP3 DUP7 PUSH2 0x1B2E JUMP JUMPDEST SWAP1 POP DUP4 DUP2 LT ISZERO PUSH2 0x1758 JUMPI PUSH1 0x40 MLOAD PUSH3 0x461BCD PUSH1 0xE5 SHL DUP2 MSTORE PUSH1 0x20 PUSH1 0x4 DUP3 ADD MSTORE PUSH1 0x25 PUSH1 0x24 DUP3 ADD MSTORE PUSH32 0x45524332303A2064656372656173656420616C6C6F77616E63652062656C6F77 PUSH1 0x44 DUP3 ADD MSTORE PUSH5 0x207A65726F PUSH1 0xD8 SHL PUSH1 0x64 DUP3 ADD MSTORE PUSH1 0x84 ADD PUSH2 0x838 JUMP JUMPDEST PUSH2 0x1765 DUP3 DUP7 DUP7 DUP5 SUB PUSH2 0x1E97 JUMP JUMPDEST POP PUSH1 0x1 SWAP5 SWAP4 POP POP POP POP JUMP JUMPDEST PUSH1 0x0 PUSH2 0x177A PUSH2 0x1D17 JUMP JUMPDEST PUSH2 0xA00 CALLER DUP5 DUP5 PUSH2 0x2027 JUMP JUMPDEST PUSH1 0x1C PUSH1 0x20 MSTORE DUP2 PUSH1 0x0 MSTORE PUSH1 0x40 PUSH1 0x0 KECCAK256 DUP2 DUP2 SLOAD DUP2 LT PUSH2 0x17A1 JUMPI PUSH1 0x0 DUP1 REVERT JUMPDEST PUSH1 0x0 SWAP2 DUP3 MSTORE PUSH1 0x20 SWAP1 SWAP2 KECCAK256 PUSH1 0x5 SWAP1 SWAP2 MUL ADD DUP1 SLOAD PUSH1 0x1 DUP3 ADD SLOAD PUSH1 0x2 DUP4 ADD SLOAD PUSH1 0x3 DUP5 ADD SLOAD PUSH1 0x4 SWAP1 SWAP5 ADD SLOAD SWAP3 SWAP6 POP SWAP1 SWAP4 POP SWAP2 SWAP1 PUSH1 0xFF AND DUP6 JUMP JUMPDEST PUSH1 0x14 SLOAD PUSH1 0x1 PUSH1 0x1 PUSH1 0xA0 SHL SUB DUP3 AND PUSH1 0x0 SWAP1 DUP2 MSTORE PUSH1 0x1D PUSH1 0x20 SWAP1 DUP2 MSTORE PUSH1 0x40 DUP1 DUP4 KECCAK256 SLOAD SWAP2 DUP4 SWAP1 MSTORE DUP3 KECCAK256 SLOAD SWAP2 SWAP3 SWAP2 PUSH2 0x1809 SWAP2 SWAP1 PUSH2 0x29D7 JUMP JUMPDEST PUSH2 0x9BD SWAP2 SWAP1 PUSH2 0x2A36 JUMP JUMPDEST PUSH2 0x181B PUSH2 0x23CB JUMP JUMPDEST PUSH2 0x1823 PUSH2 0x1D17 JUMP JUMPDEST PUSH1 0x1 PUSH1 0x1 PUSH1 0xA0 SHL SUB DUP4 AND PUSH2 0x1879 JUMPI PUSH1 0x40 MLOAD PUSH3 0x461BCD PUSH1 0xE5 SHL DUP2 MSTORE PUSH1 0x20 PUSH1 0x4 DUP3 ADD MSTORE PUSH1 0x1B PUSH1 0x24 DUP3 ADD MSTORE PUSH32 0x43616E6E6F74206D696E7420746F207A65726F20616464726573730000000000 PUSH1 0x44 DUP3 ADD MSTORE PUSH1 0x64 ADD PUSH2 0x838 JUMP JUMPDEST PUSH1 0x0 DUP3 GT PUSH2 0x18C9 JUMPI PUSH1 0x40 MLOAD PUSH3 0x461BCD PUSH1 0xE5 SHL DUP2 MSTORE PUSH1 0x20 PUSH1 0x4 DUP3 ADD DUP2 SWAP1 MSTORE PUSH1 0x24 DUP3 ADD MSTORE PUSH32 0x416D6F756E74206D7573742062652067726561746572207468616E207A65726F PUSH1 0x44 DUP3 ADD MSTORE PUSH1 0x64 ADD PUSH2 0x838 JUMP JUMPDEST PUSH12 0x1027E72F1F12813088000000 DUP3 PUSH2 0x18E0 PUSH1 0x2 SLOAD SWAP1 JUMP JUMPDEST PUSH2 0x18EA SWAP2 SWAP1 PUSH2 0x29D7 JUMP JUMPDEST GT ISZERO PUSH2 0x1931 JUMPI PUSH1 0x40 MLOAD PUSH3 0x461BCD PUSH1 0xE5 SHL DUP2 MSTORE PUSH1 0x20 PUSH1 0x4 DUP3 ADD MSTORE PUSH1 0x16 PUSH1 0x24 DUP3 ADD MSTORE PUSH22 0x45786365656473206D6178696D756D20737570706C79 PUSH1 0x50 SHL PUSH1 0x44 DUP3 ADD MSTORE PUSH1 0x64 ADD PUSH2 0x838 JUMP JUMPDEST PUSH1 0xE SLOAD DUP3 GT ISZERO PUSH2 0x1983 JUMPI PUSH1 0x40 MLOAD PUSH3 0x461BCD PUSH1 0xE5 SHL DUP2 MSTORE PUSH1 0x20 PUSH1 0x4 DUP3 ADD MSTORE PUSH1 0x1C PUSH1 0x24 DUP3 ADD MSTORE PUSH32 0x45786365656473207065722D626C6F636B206D696E74206C696D697400000000 PUSH1 0x44 DUP3 ADD MSTORE PUSH1 0x64 ADD PUSH2 0x838 JUMP JUMPDEST PUSH1 0x40 DUP1 MLOAD DUP1 DUP3 ADD SWAP1 SWAP2 MSTORE PUSH1 0x14 DUP2 MSTORE PUSH20 0x34B734BA34B0B62FB234B9BA3934B13ABA34B7B7 PUSH1 0x61 SHL PUSH1 0x20 SWAP2 DUP3 ADD MSTORE DUP2 MLOAD SWAP1 DUP3 ADD KECCAK256 PUSH32 0xE83ED2C8271A1A572DC2C79C3FDCCEBC40FB99921F1BB5D3D6CF0F52FB358856 EQ DUP1 ISZERO SWAP1 PUSH2 0x1A33 JUMPI POP PUSH1 0x40 DUP1 MLOAD DUP1 DUP3 ADD SWAP1 SWAP2 MSTORE PUSH1 0x12 DUP2 MSTORE PUSH18 0x3337BAB73232B92FB0B63637B1B0BA34B7B7 PUSH1 0x71 SHL PUSH1 0x20 SWAP2 DUP3 ADD MSTORE DUP2 MLOAD SWAP1 DUP3 ADD KECCAK256 PUSH32 0xDE88975E8465A411EAA09825B399C34E071B80ED2EB3170F4E4AF3D163FC91A1 EQ ISZERO JUMPDEST ISZERO PUSH2 0x1AC0 JUMPI PUSH1 0x0 PUSH2 0x1A43 PUSH1 0x15 SLOAD SWAP1 JUMP JUMPDEST PUSH1 0xF SLOAD SWAP1 SWAP2 POP PUSH1 0x0 SWAP1 PUSH2 0x1A58 DUP4 PUSH2 0x2710 PUSH2 0x2A1F JUMP JUMPDEST PUSH2 0x1A62 SWAP2 SWAP1 PUSH2 0x2A36 JUMP JUMPDEST SWAP1 POP DUP1 DUP5 GT ISZERO DUP1 PUSH2 0x1A71 JUMPI POP DUP2 ISZERO JUMPDEST PUSH2 0x1ABD JUMPI PUSH1 0x40 MLOAD PUSH3 0x461BCD PUSH1 0xE5 SHL DUP2 MSTORE PUSH1 0x20 PUSH1 0x4 DUP3 ADD MSTORE PUSH1 0x1A PUSH1 0x24 DUP3 ADD MSTORE PUSH32 0x45786365656473206275726E2D746F2D6D696E7420726174696F000000000000 PUSH1 0x44 DUP3 ADD MSTORE PUSH1 0x64 ADD PUSH2 0x838 JUMP JUMPDEST POP POP JUMPDEST PUSH2 0x1ACA DUP4 DUP4 PUSH2 0x230C JUMP JUMPDEST DUP2 PUSH1 0x15 PUSH1 0x1 ADD PUSH1 0x0 DUP3 DUP3 SLOAD PUSH2 0x1ADF SWAP2 SWAP1 PUSH2 0x29D7 JUMP JUMPDEST SWAP3 POP POP DUP2 SWAP1 SSTORE POP DUP3 PUSH1 0x1 PUSH1 0x1 PUSH1 0xA0 SHL SUB AND PUSH32 0x9D89E36EADF856DB0AD9FFB5A569E07F95634DDDD9501141ECF04820484AD0DC DUP4 DUP4 PUSH1 0x40 MLOAD PUSH2 0x1B21 SWAP3 SWAP2 SWAP1 PUSH2 0x29EA JUMP JUMPDEST PUSH1 0x40 MLOAD DUP1 SWAP2 SUB SWAP1 LOG2 POP POP POP JUMP JUMPDEST PUSH1 0x1 PUSH1 0x1 PUSH1 0xA0 SHL SUB SWAP2 DUP3 AND PUSH1 0x0 SWAP1 DUP2 MSTORE PUSH1 0x1 PUSH1 0x20 SWAP1 DUP2 MSTORE PUSH1 0x40 DUP1 DUP4 KECCAK256 SWAP4 SWAP1 SWAP5 AND DUP3 MSTORE SWAP2 SWAP1 SWAP2 MSTORE KECCAK256 SLOAD SWAP1 JUMP JUMPDEST PUSH2 0x1B61 PUSH2 0x23CB JUMP JUMPDEST PUSH1 0x1 PUSH1 0x1 PUSH1 0xA0 SHL SUB DUP2 AND PUSH2 0x1BC6 JUMPI PUSH1 0x40 MLOAD PUSH3 0x461BCD PUSH1 0xE5 SHL DUP2 MSTORE PUSH1 0x20 PUSH1 0x4 DUP3 ADD MSTORE PUSH1 0x26 PUSH1 0x24 DUP3 ADD MSTORE PUSH32 0x4F776E61626C653A206E6577206F776E657220697320746865207A65726F2061 PUSH1 0x44 DUP3 ADD MSTORE PUSH6 0x646472657373 PUSH1 0xD0 SHL PUSH1 0x64 DUP3 ADD MSTORE PUSH1 0x84 ADD PUSH2 0x838 JUMP JUMPDEST PUSH2 0xD56 DUP2 PUSH2 0x247A JUMP JUMPDEST PUSH1 0x16 SLOAD PUSH1 0x0 SWAP1 DUP2 SUB PUSH2 0x1BE1 JUMPI POP PUSH1 0x32 SWAP1 JUMP JUMPDEST PUSH1 0x16 SLOAD PUSH1 0x15 SLOAD PUSH1 0x0 SWAP2 SWAP1 PUSH2 0x1BF6 SWAP1 PUSH1 0x64 PUSH2 0x2A1F JUMP JUMPDEST PUSH2 0x1C00 SWAP2 SWAP1 PUSH2 0x2A36 JUMP JUMPDEST SWAP1 POP PUSH1 0x0 PUSH2 0x1C0D PUSH1 0x2 SLOAD SWAP1 JUMP JUMPDEST PUSH1 0x17 SLOAD PUSH2 0x1C1B SWAP1 PUSH1 0x64 PUSH2 0x2A1F JUMP JUMPDEST PUSH2 0x1C25 SWAP2 SWAP1 PUSH2 0x2A36 JUMP JUMPDEST SWAP1 POP PUSH1 0x0 PUSH12 0x1027E72F1F12813088000000 PUSH2 0x1C3F PUSH1 0x2 SLOAD SWAP1 JUMP JUMPDEST PUSH2 0x1C4A SWAP1 PUSH1 0x64 PUSH2 0x2A1F JUMP JUMPDEST PUSH2 0x1C54 SWAP2 SWAP1 PUSH2 0x2A36 JUMP JUMPDEST SWAP1 POP PUSH1 0x0 PUSH1 0x96 DUP5 GT PUSH2 0x1C7C JUMPI PUSH1 0x96 PUSH2 0x1C6D DUP6 PUSH1 0x64 PUSH2 0x2A1F JUMP JUMPDEST PUSH2 0x1C77 SWAP2 SWAP1 PUSH2 0x2A36 JUMP JUMPDEST PUSH2 0x1C7F JUMP JUMPDEST PUSH1 0x64 JUMPDEST SWAP1 POP PUSH1 0x0 PUSH1 0x1E DUP5 GT PUSH2 0x1CA7 JUMPI PUSH1 0x1E PUSH2 0x1C98 DUP6 PUSH1 0x64 PUSH2 0x2A1F JUMP JUMPDEST PUSH2 0x1CA2 SWAP2 SWAP1 PUSH2 0x2A36 JUMP JUMPDEST PUSH2 0x1CAA JUMP JUMPDEST PUSH1 0x64 JUMPDEST SWAP1 POP PUSH1 0x0 PUSH1 0x32 DUP5 LT PUSH2 0x1CC6 JUMPI PUSH2 0x1CC1 DUP5 PUSH1 0x64 PUSH2 0x29C4 JUMP JUMPDEST PUSH2 0x1CC9 JUMP JUMPDEST PUSH1 0x64 JUMPDEST SWAP1 POP PUSH1 0x64 PUSH2 0x1CD8 DUP3 PUSH1 0x1E PUSH2 0x2A1F JUMP JUMPDEST PUSH2 0x1CE3 DUP5 PUSH1 0x1E PUSH2 0x2A1F JUMP JUMPDEST PUSH2 0x1CEE DUP7 PUSH1 0x28 PUSH2 0x2A1F JUMP JUMPDEST PUSH2 0x1CF8 SWAP2 SWAP1 PUSH2 0x29D7 JUMP JUMPDEST PUSH2 0x1D02 SWAP2 SWAP1 PUSH2 0x29D7 JUMP JUMPDEST PUSH2 0x1D0C SWAP2 SWAP1 PUSH2 0x2A36 JUMP JUMPDEST SWAP7 POP POP POP POP POP POP POP SWAP1 JUMP JUMPDEST PUSH1 0x5 SLOAD PUSH1 0x1 PUSH1 0xA0 SHL SWAP1 DIV PUSH1 0xFF AND ISZERO PUSH2 0xEDB JUMPI PUSH1 0x40 MLOAD PUSH3 0x461BCD PUSH1 0xE5 SHL DUP2 MSTORE PUSH1 0x20 PUSH1 0x4 DUP3 ADD MSTORE PUSH1 0x10 PUSH1 0x24 DUP3 ADD MSTORE PUSH16 0x14185D5CD8589B194E881C185D5CD959 PUSH1 0x82 SHL PUSH1 0x44 DUP3 ADD MSTORE PUSH1 0x64 ADD PUSH2 0x838 JUMP JUMPDEST PUSH1 0x1 PUSH1 0x1 PUSH1 0xA0 SHL SUB DUP3 AND PUSH2 0x1DC4 JUMPI PUSH1 0x40 MLOAD PUSH3 0x461BCD PUSH1 0xE5 SHL DUP2 MSTORE PUSH1 0x20 PUSH1 0x4 DUP3 ADD MSTORE PUSH1 0x21 PUSH1 0x24 DUP3 ADD MSTORE PUSH32 0x45524332303A206275726E2066726F6D20746865207A65726F20616464726573 PUSH1 0x44 DUP3 ADD MSTORE PUSH1 0x73 PUSH1 0xF8 SHL PUSH1 0x64 DUP3 ADD MSTORE PUSH1 0x84 ADD PUSH2 0x838 JUMP JUMPDEST PUSH1 0x1 PUSH1 0x1 PUSH1 0xA0 SHL SUB DUP3 AND PUSH1 0x0 SWAP1 DUP2 MSTORE PUSH1 0x20 DUP2 SWAP1 MSTORE PUSH1 0x40 SWAP1 KECCAK256 SLOAD DUP2 DUP2 LT ISZERO PUSH2 0x1E38 JUMPI PUSH1 0x40 MLOAD PUSH3 0x461BCD PUSH1 0xE5 SHL DUP2 MSTORE PUSH1 0x20 PUSH1 0x4 DUP3 ADD MSTORE PUSH1 0x22 PUSH1 0x24 DUP3 ADD MSTORE PUSH32 0x45524332303A206275726E20616D6F756E7420657863656564732062616C616E PUSH1 0x44 DUP3 ADD MSTORE PUSH2 0x6365 PUSH1 0xF0 SHL PUSH1 0x64 DUP3 ADD MSTORE PUSH1 0x84 ADD PUSH2 0x838 JUMP JUMPDEST PUSH1 0x1 PUSH1 0x1 PUSH1 0xA0 SHL SUB DUP4 AND PUSH1 0x0 DUP2 DUP2 MSTORE PUSH1 0x20 DUP2 DUP2 MSTORE PUSH1 0x40 DUP1 DUP4 KECCAK256 DUP7 DUP7 SUB SWAP1 SSTORE PUSH1 0x2 DUP1 SLOAD DUP8 SWAP1 SUB SWAP1 SSTORE MLOAD DUP6 DUP2 MSTORE SWAP2 SWAP3 SWAP2 PUSH32 0xDDF252AD1BE2C89B69C2B068FC378DAA952BA7F163C4A11628F55A4DF523B3EF SWAP2 ADD JUMPDEST PUSH1 0x40 MLOAD DUP1 SWAP2 SUB SWAP1 LOG3 POP POP POP JUMP JUMPDEST PUSH1 0x1 PUSH1 0x1 PUSH1 0xA0 SHL SUB DUP4 AND PUSH2 0x1EF9 JUMPI PUSH1 0x40 MLOAD PUSH3 0x461BCD PUSH1 0xE5 SHL DUP2 MSTORE PUSH1 0x20 PUSH1 0x4 DUP3 ADD MSTORE PUSH1 0x24 DUP1 DUP3 ADD MSTORE PUSH32 0x45524332303A20617070726F76652066726F6D20746865207A65726F20616464 PUSH1 0x44 DUP3 ADD MSTORE PUSH4 0x72657373 PUSH1 0xE0 SHL PUSH1 0x64 DUP3 ADD MSTORE PUSH1 0x84 ADD PUSH2 0x838 JUMP JUMPDEST PUSH1 0x1 PUSH1 0x1 PUSH1 0xA0 SHL SUB DUP3 AND PUSH2 0x1F5A JUMPI PUSH1 0x40 MLOAD PUSH3 0x461BCD PUSH1 0xE5 SHL DUP2 MSTORE PUSH1 0x20 PUSH1 0x4 DUP3 ADD MSTORE PUSH1 0x22 PUSH1 0x24 DUP3 ADD MSTORE PUSH32 0x45524332303A20617070726F766520746F20746865207A65726F206164647265 PUSH1 0x44 DUP3 ADD MSTORE PUSH2 0x7373 PUSH1 0xF0 SHL PUSH1 0x64 DUP3 ADD MSTORE PUSH1 0x84 ADD PUSH2 0x838 JUMP JUMPDEST PUSH1 0x1 PUSH1 0x1 PUSH1 0xA0 SHL SUB DUP4 DUP2 AND PUSH1 0x0 DUP2 DUP2 MSTORE PUSH1 0x1 PUSH1 0x20 SWAP1 DUP2 MSTORE PUSH1 0x40 DUP1 DUP4 KECCAK256 SWAP5 DUP8 AND DUP1 DUP5 MSTORE SWAP5 DUP3 MSTORE SWAP2 DUP3 SWAP1 KECCAK256 DUP6 SWAP1 SSTORE SWAP1 MLOAD DUP5 DUP2 MSTORE PUSH32 0x8C5BE1E5EBEC7D5BD14F71427D1E84F3DD0314C0F7B2291E5B200AC8C7C3B925 SWAP2 ADD PUSH2 0x1E8A JUMP JUMPDEST PUSH1 0x0 PUSH2 0x1FBF DUP5 DUP5 PUSH2 0x1B2E JUMP JUMPDEST SWAP1 POP PUSH1 0x0 NOT DUP2 EQ PUSH2 0xEA3 JUMPI DUP2 DUP2 LT ISZERO PUSH2 0x201A JUMPI PUSH1 0x40 MLOAD PUSH3 0x461BCD PUSH1 0xE5 SHL DUP2 MSTORE PUSH1 0x20 PUSH1 0x4 DUP3 ADD MSTORE PUSH1 0x1D PUSH1 0x24 DUP3 ADD MSTORE PUSH32 0x45524332303A20696E73756666696369656E7420616C6C6F77616E6365000000 PUSH1 0x44 DUP3 ADD MSTORE PUSH1 0x64 ADD PUSH2 0x838 JUMP JUMPDEST PUSH2 0xEA3 DUP5 DUP5 DUP5 DUP5 SUB PUSH2 0x1E97 JUMP JUMPDEST PUSH1 0x0 PUSH1 0x1 PUSH1 0x1 PUSH1 0xA0 SHL SUB DUP5 AND PUSH2 0x204F JUMPI PUSH1 0x40 MLOAD PUSH3 0x461BCD PUSH1 0xE5 SHL DUP2 MSTORE PUSH1 0x4 ADD PUSH2 0x838 SWAP1 PUSH2 0x2AAC JUMP JUMPDEST PUSH1 0x1 PUSH1 0x1 PUSH1 0xA0 SHL SUB DUP4 AND PUSH2 0x2075 JUMPI PUSH1 0x40 MLOAD PUSH3 0x461BCD PUSH1 0xE5 SHL DUP2 MSTORE PUSH1 0x4 ADD PUSH2 0x838 SWAP1 PUSH2 0x2AF1 JUMP JUMPDEST PUSH1 0x7 SLOAD PUSH1 0x0 SWAP1 PUSH2 0x2710 SWAP1 PUSH2 0x2089 SWAP1 DUP6 PUSH2 0x2A1F JUMP JUMPDEST PUSH2 0x2093 SWAP2 SWAP1 PUSH2 0x2A36 JUMP JUMPDEST SWAP1 POP PUSH1 0x0 PUSH2 0x20A1 DUP3 DUP6 PUSH2 0x29C4 JUMP JUMPDEST SWAP1 POP PUSH1 0x0 DUP3 GT DUP1 ISZERO PUSH2 0x20D1 JUMPI POP PUSH11 0x52B7D2DCC80CD2E4000000 DUP3 PUSH2 0x20C4 PUSH1 0x2 SLOAD SWAP1 JUMP JUMPDEST PUSH2 0x20CE SWAP2 SWAP1 PUSH2 0x29C4 JUMP JUMPDEST LT ISZERO JUMPDEST ISZERO PUSH2 0x215A JUMPI PUSH2 0x20E0 DUP7 DUP4 PUSH2 0x1D64 JUMP JUMPDEST DUP2 PUSH1 0x15 PUSH1 0x0 ADD PUSH1 0x0 DUP3 DUP3 SLOAD PUSH2 0x20F5 SWAP2 SWAP1 PUSH2 0x29D7 JUMP JUMPDEST SWAP3 POP POP DUP2 SWAP1 SSTORE POP DUP6 PUSH1 0x1 PUSH1 0x1 PUSH1 0xA0 SHL SUB AND PUSH1 0x0 DUP1 MLOAD PUSH1 0x20 PUSH2 0x2B35 DUP4 CODECOPY DUP2 MLOAD SWAP2 MSTORE DUP4 PUSH1 0x40 MLOAD PUSH2 0x214D SWAP2 DUP2 MSTORE PUSH1 0x40 PUSH1 0x20 DUP3 ADD DUP2 SWAP1 MSTORE PUSH1 0x10 SWAP1 DUP3 ADD MSTORE PUSH16 0x3A3930B739B0B1BA34B7B72FB13AB937 PUSH1 0x81 SHL PUSH1 0x60 DUP3 ADD MSTORE PUSH1 0x80 ADD SWAP1 JUMP JUMPDEST PUSH1 0x40 MLOAD DUP1 SWAP2 SUB SWAP1 LOG2 PUSH2 0x215D JUMP JUMPDEST POP DUP3 JUMPDEST PUSH2 0x2168 DUP7 DUP7 DUP4 PUSH2 0x21E2 JUMP JUMPDEST PUSH1 0x18 DUP1 SLOAD SWAP1 PUSH1 0x0 PUSH2 0x2178 DUP4 PUSH2 0x2A6E JUMP JUMPDEST SWAP1 SWAP2 SSTORE POP PUSH1 0x1 SWAP8 SWAP7 POP POP POP POP POP POP POP JUMP JUMPDEST PUSH1 0x2 PUSH1 0x6 SLOAD SUB PUSH2 0x21DB JUMPI PUSH1 0x40 MLOAD PUSH3 0x461BCD PUSH1 0xE5 SHL DUP2 MSTORE PUSH1 0x20 PUSH1 0x4 DUP3 ADD MSTORE PUSH1 0x1F PUSH1 0x24 DUP3 ADD MSTORE PUSH32 0x5265656E7472616E637947756172643A207265656E7472616E742063616C6C00 PUSH1 0x44 DUP3 ADD MSTORE PUSH1 0x64 ADD PUSH2 0x838 JUMP JUMPDEST PUSH1 0x2 PUSH1 0x6 SSTORE JUMP JUMPDEST PUSH1 0x1 PUSH1 0x1 PUSH1 0xA0 SHL SUB DUP4 AND PUSH2 0x2208 JUMPI PUSH1 0x40 MLOAD PUSH3 0x461BCD PUSH1 0xE5 SHL DUP2 MSTORE PUSH1 0x4 ADD PUSH2 0x838 SWAP1 PUSH2 0x2AAC JUMP JUMPDEST PUSH1 0x1 PUSH1 0x1 PUSH1 0xA0 SHL SUB DUP3 AND PUSH2 0x222E JUMPI PUSH1 0x40 MLOAD PUSH3 0x461BCD PUSH1 0xE5 SHL DUP2 MSTORE PUSH1 0x4 ADD PUSH2 0x838 SWAP1 PUSH2 0x2AF1 JUMP JUMPDEST PUSH1 0x1 PUSH1 0x1 PUSH1 0xA0 SHL SUB DUP4 AND PUSH1 0x0 SWAP1 DUP2 MSTORE PUSH1 0x20 DUP2 SWAP1 MSTORE PUSH1 0x40 SWAP1 KECCAK256 SLOAD DUP2 DUP2 LT ISZERO PUSH2 0x22A6 JUMPI PUSH1 0x40 MLOAD PUSH3 0x461BCD PUSH1 0xE5 SHL DUP2 MSTORE PUSH1 0x20 PUSH1 0x4 DUP3 ADD MSTORE PUSH1 0x26 PUSH1 0x24 DUP3 ADD MSTORE PUSH32 0x45524332303A207472616E7366657220616D6F756E7420657863656564732062 PUSH1 0x44 DUP3 ADD MSTORE PUSH6 0x616C616E6365 PUSH1 0xD0 SHL PUSH1 0x64 DUP3 ADD MSTORE PUSH1 0x84 ADD PUSH2 0x838 JUMP JUMPDEST PUSH1 0x1 PUSH1 0x1 PUSH1 0xA0 SHL SUB DUP5 DUP2 AND PUSH1 0x0 DUP2 DUP2 MSTORE PUSH1 0x20 DUP2 DUP2 MSTORE PUSH1 0x40 DUP1 DUP4 KECCAK256 DUP8 DUP8 SUB SWAP1 SSTORE SWAP4 DUP8 AND DUP1 DUP4 MSTORE SWAP2 DUP5 SWAP1 KECCAK256 DUP1 SLOAD DUP8 ADD SWAP1 SSTORE SWAP3 MLOAD DUP6 DUP2 MSTORE SWAP1 SWAP3 PUSH32 0xDDF252AD1BE2C89B69C2B068FC378DAA952BA7F163C4A11628F55A4DF523B3EF SWAP2 ADD PUSH1 0x40 MLOAD DUP1 SWAP2 SUB SWAP1 LOG3 PUSH2 0xEA3 JUMP JUMPDEST PUSH1 0x1 PUSH1 0x1 PUSH1 0xA0 SHL SUB DUP3 AND PUSH2 0x2362 JUMPI PUSH1 0x40 MLOAD PUSH3 0x461BCD PUSH1 0xE5 SHL DUP2 MSTORE PUSH1 0x20 PUSH1 0x4 DUP3 ADD MSTORE PUSH1 0x1F PUSH1 0x24 DUP3 ADD MSTORE PUSH32 0x45524332303A206D696E7420746F20746865207A65726F206164647265737300 PUSH1 0x44 DUP3 ADD MSTORE PUSH1 0x64 ADD PUSH2 0x838 JUMP JUMPDEST DUP1 PUSH1 0x2 PUSH1 0x0 DUP3 DUP3 SLOAD PUSH2 0x2374 SWAP2 SWAP1 PUSH2 0x29D7 JUMP JUMPDEST SWAP1 SWAP2 SSTORE POP POP PUSH1 0x1 PUSH1 0x1 PUSH1 0xA0 SHL SUB DUP3 AND PUSH1 0x0 DUP2 DUP2 MSTORE PUSH1 0x20 DUP2 DUP2 MSTORE PUSH1 0x40 DUP1 DUP4 KECCAK256 DUP1 SLOAD DUP7 ADD SWAP1 SSTORE MLOAD DUP5 DUP2 MSTORE PUSH32 0xDDF252AD1BE2C89B69C2B068FC378DAA952BA7F163C4A11628F55A4DF523B3EF SWAP2 ADD PUSH1 0x40 MLOAD DUP1 SWAP2 SUB SWAP1 LOG3 POP POP JUMP JUMPDEST PUSH1 0x5 SLOAD PUSH1 0x1 PUSH1 0x1 PUSH1 0xA0 SHL SUB AND CALLER EQ PUSH2 0xEDB JUMPI PUSH1 0x40 MLOAD PUSH3 0x461BCD PUSH1 0xE5 SHL DUP2 MSTORE PUSH1 0x20 PUSH1 0x4 DUP3 ADD DUP2 SWAP1 MSTORE PUSH1 0x24 DUP3 ADD MSTORE PUSH32 0x4F776E61626C653A2063616C6C6572206973206E6F7420746865206F776E6572 PUSH1 0x44 DUP3 ADD MSTORE PUSH1 0x64 ADD PUSH2 0x838 JUMP JUMPDEST PUSH2 0x242D PUSH2 0x250F JUMP JUMPDEST PUSH1 0x5 DUP1 SLOAD PUSH1 0xFF PUSH1 0xA0 SHL NOT AND SWAP1 SSTORE PUSH32 0x5DB9EE0A495BF2E6FF9C91A7834C1BA4FDD244A5E8AA4E537BD38AEAE4B073AA CALLER JUMPDEST PUSH1 0x40 MLOAD PUSH1 0x1 PUSH1 0x1 PUSH1 0xA0 SHL SUB SWAP1 SWAP2 AND DUP2 MSTORE PUSH1 0x20 ADD PUSH1 0x40 MLOAD DUP1 SWAP2 SUB SWAP1 LOG1 JUMP JUMPDEST PUSH1 0x5 DUP1 SLOAD PUSH1 0x1 PUSH1 0x1 PUSH1 0xA0 SHL SUB DUP4 DUP2 AND PUSH1 0x1 PUSH1 0x1 PUSH1 0xA0 SHL SUB NOT DUP4 AND DUP2 OR SWAP1 SWAP4 SSTORE PUSH1 0x40 MLOAD SWAP2 AND SWAP2 SWAP1 DUP3 SWAP1 PUSH32 0x8BE0079C531659141344CD1FD0A4F28419497F9722A3DAAFE3B4186F6B6457E0 SWAP1 PUSH1 0x0 SWAP1 LOG3 POP POP JUMP JUMPDEST PUSH2 0x24D4 PUSH2 0x1D17 JUMP JUMPDEST PUSH1 0x5 DUP1 SLOAD PUSH1 0xFF PUSH1 0xA0 SHL NOT AND PUSH1 0x1 PUSH1 0xA0 SHL OR SWAP1 SSTORE PUSH32 0x62E78CEA01BEE320CD4E420270B5EA74000D11B0C9F74754EBDBFC544B05A258 PUSH2 0x245D CALLER SWAP1 JUMP JUMPDEST PUSH1 0x5 SLOAD PUSH1 0x1 PUSH1 0xA0 SHL SWAP1 DIV PUSH1 0xFF AND PUSH2 0xEDB JUMPI PUSH1 0x40 MLOAD PUSH3 0x461BCD PUSH1 0xE5 SHL DUP2 MSTORE PUSH1 0x20 PUSH1 0x4 DUP3 ADD MSTORE PUSH1 0x14 PUSH1 0x24 DUP3 ADD MSTORE PUSH20 0x14185D5CD8589B194E881B9BDD081C185D5CD959 PUSH1 0x62 SHL PUSH1 0x44 DUP3 ADD MSTORE PUSH1 0x64 ADD PUSH2 0x838 JUMP JUMPDEST PUSH1 0x0 JUMPDEST DUP4 DUP2 LT ISZERO PUSH2 0x257A JUMPI DUP2 DUP2 ADD MLOAD DUP4 DUP3 ADD MSTORE PUSH1 0x20 ADD PUSH2 0x2562 JUMP JUMPDEST POP POP PUSH1 0x0 SWAP2 ADD MSTORE JUMP JUMPDEST PUSH1 0x0 DUP2 MLOAD DUP1 DUP5 MSTORE PUSH2 0x259B DUP2 PUSH1 0x20 DUP7 ADD PUSH1 0x20 DUP7 ADD PUSH2 0x255F JUMP JUMPDEST PUSH1 0x1F ADD PUSH1 0x1F NOT AND SWAP3 SWAP1 SWAP3 ADD PUSH1 0x20 ADD SWAP3 SWAP2 POP POP JUMP JUMPDEST PUSH1 0x20 DUP2 MSTORE PUSH1 0x0 PUSH2 0xA00 PUSH1 0x20 DUP4 ADD DUP5 PUSH2 0x2583 JUMP JUMPDEST PUSH4 0x4E487B71 PUSH1 0xE0 SHL PUSH1 0x0 MSTORE PUSH1 0x41 PUSH1 0x4 MSTORE PUSH1 0x24 PUSH1 0x0 REVERT JUMPDEST PUSH1 0x0 DUP3 PUSH1 0x1F DUP4 ADD SLT PUSH2 0x25E9 JUMPI PUSH1 0x0 DUP1 REVERT JUMPDEST DUP2 CALLDATALOAD PUSH8 0xFFFFFFFFFFFFFFFF DUP1 DUP3 GT ISZERO PUSH2 0x2604 JUMPI PUSH2 0x2604 PUSH2 0x25C2 JUMP JUMPDEST PUSH1 0x40 MLOAD PUSH1 0x1F DUP4 ADD PUSH1 0x1F NOT SWAP1 DUP2 AND PUSH1 0x3F ADD AND DUP2 ADD SWAP1 DUP3 DUP3 GT DUP2 DUP4 LT OR ISZERO PUSH2 0x262C JUMPI PUSH2 0x262C PUSH2 0x25C2 JUMP JUMPDEST DUP2 PUSH1 0x40 MSTORE DUP4 DUP2 MSTORE DUP7 PUSH1 0x20 DUP6 DUP9 ADD ADD GT ISZERO PUSH2 0x2645 JUMPI PUSH1 0x0 DUP1 REVERT JUMPDEST DUP4 PUSH1 0x20 DUP8 ADD PUSH1 0x20 DUP4 ADD CALLDATACOPY PUSH1 0x0 PUSH1 0x20 DUP6 DUP4 ADD ADD MSTORE DUP1 SWAP5 POP POP POP POP POP SWAP3 SWAP2 POP POP JUMP JUMPDEST PUSH1 0x0 DUP1 PUSH1 0x40 DUP4 DUP6 SUB SLT ISZERO PUSH2 0x2678 JUMPI PUSH1 0x0 DUP1 REVERT JUMPDEST DUP3 CALLDATALOAD SWAP2 POP PUSH1 0x20 DUP4 ADD CALLDATALOAD PUSH8 0xFFFFFFFFFFFFFFFF DUP2 GT ISZERO PUSH2 0x2696 JUMPI PUSH1 0x0 DUP1 REVERT JUMPDEST PUSH2 0x26A2 DUP6 DUP3 DUP7 ADD PUSH2 0x25D8 JUMP JUMPDEST SWAP2 POP POP SWAP3 POP SWAP3 SWAP1 POP JUMP JUMPDEST DUP1 CALLDATALOAD PUSH1 0x1 PUSH1 0x1 PUSH1 0xA0 SHL SUB DUP2 AND DUP2 EQ PUSH2 0x26C3 JUMPI PUSH1 0x0 DUP1 REVERT JUMPDEST SWAP2 SWAP1 POP JUMP JUMPDEST PUSH1 0x0 DUP1 PUSH1 0x40 DUP4 DUP6 SUB SLT ISZERO PUSH2 0x26DB JUMPI PUSH1 0x0 DUP1 REVERT JUMPDEST PUSH2 0x26E4 DUP4 PUSH2 0x26AC JUMP JUMPDEST SWAP5 PUSH1 0x20 SWAP4 SWAP1 SWAP4 ADD CALLDATALOAD SWAP4 POP POP POP JUMP JUMPDEST PUSH1 0x0 PUSH1 0x20 DUP3 DUP5 SUB SLT ISZERO PUSH2 0x2704 JUMPI PUSH1 0x0 DUP1 REVERT JUMPDEST PUSH2 0xA00 DUP3 PUSH2 0x26AC JUMP JUMPDEST PUSH1 0x0 PUSH1 0x20 DUP3 DUP5 SUB SLT ISZERO PUSH2 0x271F JUMPI PUSH1 0x0 DUP1 REVERT JUMPDEST DUP2 CALLDATALOAD PUSH8 0xFFFFFFFFFFFFFFFF DUP2 GT ISZERO PUSH2 0x2736 JUMPI PUSH1 0x0 DUP1 REVERT JUMPDEST PUSH2 0x2742 DUP5 DUP3 DUP6 ADD PUSH2 0x25D8 JUMP JUMPDEST SWAP5 SWAP4 POP POP POP POP JUMP JUMPDEST PUSH1 0x0 DUP1 PUSH1 0x0 PUSH1 0x60 DUP5 DUP7 SUB SLT ISZERO PUSH2 0x275F JUMPI PUSH1 0x0 DUP1 REVERT JUMPDEST POP POP DUP2 CALLDATALOAD SWAP4 PUSH1 0x20 DUP4 ADD CALLDATALOAD SWAP4 POP PUSH1 0x40 SWAP1 SWAP3 ADD CALLDATALOAD SWAP2 SWAP1 POP JUMP JUMPDEST PUSH1 0x0 DUP1 PUSH1 0x0 PUSH1 0x60 DUP5 DUP7 SUB SLT ISZERO PUSH2 0x278B JUMPI PUSH1 0x0 DUP1 REVERT JUMPDEST PUSH2 0x2794 DUP5 PUSH2 0x26AC JUMP JUMPDEST SWAP3 POP PUSH2 0x27A2 PUSH1 0x20 DUP6 ADD PUSH2 0x26AC JUMP JUMPDEST SWAP2 POP PUSH1 0x40 DUP5 ADD CALLDATALOAD SWAP1 POP SWAP3 POP SWAP3 POP SWAP3 JUMP JUMPDEST PUSH1 0x0 PUSH1 0x20 DUP3 DUP5 SUB SLT ISZERO PUSH2 0x27C4 JUMPI PUSH1 0x0 DUP1 REVERT JUMPDEST POP CALLDATALOAD SWAP2 SWAP1 POP JUMP JUMPDEST PUSH1 0x0 DUP1 PUSH1 0x0 PUSH1 0x60 DUP5 DUP7 SUB SLT ISZERO PUSH2 0x27E0 JUMPI PUSH1 0x0 DUP1 REVERT JUMPDEST PUSH2 0x27E9 DUP5 PUSH2 0x26AC JUMP JUMPDEST SWAP3 POP PUSH2 0x27F7 PUSH1 0x20 DUP6 ADD PUSH2 0x26AC JUMP JUMPDEST SWAP2 POP PUSH1 0x40 DUP5 ADD CALLDATALOAD PUSH8 0xFFFFFFFFFFFFFFFF DUP2 GT ISZERO PUSH2 0x2813 JUMPI PUSH1 0x0 DUP1 REVERT JUMPDEST PUSH2 0x281F DUP7 DUP3 DUP8 ADD PUSH2 0x25D8 JUMP JUMPDEST SWAP2 POP POP SWAP3 POP SWAP3 POP SWAP3 JUMP JUMPDEST PUSH1 0x0 DUP1 PUSH1 0x40 DUP4 DUP6 SUB SLT ISZERO PUSH2 0x283C JUMPI PUSH1 0x0 DUP1 REVERT JUMPDEST POP POP DUP1 CALLDATALOAD SWAP3 PUSH1 0x20 SWAP1 SWAP2 ADD CALLDATALOAD SWAP2 POP JUMP JUMPDEST PUSH1 0x0 DUP1 PUSH1 0x40 DUP4 DUP6 SUB SLT ISZERO PUSH2 0x285E JUMPI PUSH1 0x0 DUP1 REVERT JUMPDEST DUP3 CALLDATALOAD PUSH8 0xFFFFFFFFFFFFFFFF DUP2 GT ISZERO PUSH2 0x2875 JUMPI PUSH1 0x0 DUP1 REVERT JUMPDEST PUSH2 0x2881 DUP6 DUP3 DUP7 ADD PUSH2 0x25D8 JUMP JUMPDEST SWAP6 PUSH1 0x20 SWAP5 SWAP1 SWAP5 ADD CALLDATALOAD SWAP5 POP POP POP POP JUMP JUMPDEST PUSH1 0x20 DUP1 DUP3 MSTORE DUP3 MLOAD DUP3 DUP3 ADD DUP2 SWAP1 MSTORE PUSH1 0x0 SWAP2 SWAP1 PUSH1 0x40 SWAP1 DUP2 DUP6 ADD SWAP1 DUP7 DUP5 ADD DUP6 JUMPDEST DUP3 DUP2 LT ISZERO PUSH2 0x28F3 JUMPI DUP2 MLOAD DUP1 MLOAD DUP6 MSTORE DUP7 DUP2 ADD MLOAD DUP8 DUP7 ADD MSTORE DUP6 DUP2 ADD MLOAD DUP7 DUP7 ADD MSTORE PUSH1 0x60 DUP1 DUP3 ADD MLOAD SWAP1 DUP7 ADD MSTORE PUSH1 0x80 SWAP1 DUP2 ADD MLOAD ISZERO ISZERO SWAP1 DUP6 ADD MSTORE PUSH1 0xA0 SWAP1 SWAP4 ADD SWAP3 SWAP1 DUP6 ADD SWAP1 PUSH1 0x1 ADD PUSH2 0x28AD JUMP JUMPDEST POP SWAP2 SWAP8 SWAP7 POP POP POP POP POP POP POP JUMP JUMPDEST PUSH1 0x0 DUP1 PUSH1 0x0 PUSH1 0x60 DUP5 DUP7 SUB SLT ISZERO PUSH2 0x2915 JUMPI PUSH1 0x0 DUP1 REVERT JUMPDEST PUSH2 0x291E DUP5 PUSH2 0x26AC JUMP JUMPDEST SWAP3 POP PUSH1 0x20 DUP5 ADD CALLDATALOAD SWAP2 POP PUSH1 0x40 DUP5 ADD CALLDATALOAD PUSH8 0xFFFFFFFFFFFFFFFF DUP2 GT ISZERO PUSH2 0x2813 JUMPI PUSH1 0x0 DUP1 REVERT JUMPDEST PUSH1 0x0 DUP1 PUSH1 0x40 DUP4 DUP6 SUB SLT ISZERO PUSH2 0x2954 JUMPI PUSH1 0x0 DUP1 REVERT JUMPDEST PUSH2 0x295D DUP4 PUSH2 0x26AC JUMP JUMPDEST SWAP2 POP PUSH2 0x296B PUSH1 0x20 DUP5 ADD PUSH2 0x26AC JUMP JUMPDEST SWAP1 POP SWAP3 POP SWAP3 SWAP1 POP JUMP JUMPDEST PUSH1 0x1 DUP2 DUP2 SHR SWAP1 DUP3 AND DUP1 PUSH2 0x2988 JUMPI PUSH1 0x7F DUP3 AND SWAP2 POP JUMPDEST PUSH1 0x20 DUP3 LT DUP2 SUB PUSH2 0x29A8 JUMPI PUSH4 0x4E487B71 PUSH1 0xE0 SHL PUSH1 0x0 MSTORE PUSH1 0x22 PUSH1 0x4 MSTORE PUSH1 0x24 PUSH1 0x0 REVERT JUMPDEST POP SWAP2 SWAP1 POP JUMP JUMPDEST PUSH4 0x4E487B71 PUSH1 0xE0 SHL PUSH1 0x0 MSTORE PUSH1 0x11 PUSH1 0x4 MSTORE PUSH1 0x24 PUSH1 0x0 REVERT JUMPDEST DUP2 DUP2 SUB DUP2 DUP2 GT ISZERO PUSH2 0x9BD JUMPI PUSH2 0x9BD PUSH2 0x29AE JUMP JUMPDEST DUP1 DUP3 ADD DUP1 DUP3 GT ISZERO PUSH2 0x9BD JUMPI PUSH2 0x9BD PUSH2 0x29AE JUMP JUMPDEST DUP3 DUP2 MSTORE PUSH1 0x40 PUSH1 0x20 DUP3 ADD MSTORE PUSH1 0x0 PUSH2 0x2742 PUSH1 0x40 DUP4 ADD DUP5 PUSH2 0x2583 JUMP JUMPDEST PUSH1 0x0 DUP3 MLOAD PUSH2 0x2A15 DUP2 DUP5 PUSH1 0x20 DUP8 ADD PUSH2 0x255F JUMP JUMPDEST SWAP2 SWAP1 SWAP2 ADD SWAP3 SWAP2 POP POP JUMP JUMPDEST DUP1 DUP3 MUL DUP2 ISZERO DUP3 DUP3 DIV DUP5 EQ OR PUSH2 0x9BD JUMPI PUSH2 0x9BD PUSH2 0x29AE JUMP JUMPDEST PUSH1 0x0 DUP3 PUSH2 0x2A53 JUMPI PUSH4 0x4E487B71 PUSH1 0xE0 SHL PUSH1 0x0 MSTORE PUSH1 0x12 PUSH1 0x4 MSTORE PUSH1 0x24 PUSH1 0x0 REVERT JUMPDEST POP DIV SWAP1 JUMP JUMPDEST PUSH4 0x4E487B71 PUSH1 0xE0 SHL PUSH1 0x0 MSTORE PUSH1 0x32 PUSH1 0x4 MSTORE PUSH1 0x24 PUSH1 0x0 REVERT JUMPDEST PUSH1 0x0 PUSH1 0x1 DUP3 ADD PUSH2 0x2A80 JUMPI PUSH2 0x2A80 PUSH2 0x29AE JUMP JUMPDEST POP PUSH1 0x1 ADD SWAP1 JUMP JUMPDEST PUSH1 0x60 DUP2 MSTORE PUSH1 0x0 PUSH2 0x2A9A PUSH1 0x60 DUP4 ADD DUP7 PUSH2 0x2583 JUMP JUMPDEST PUSH1 0x20 DUP4 ADD SWAP5 SWAP1 SWAP5 MSTORE POP PUSH1 0x40 ADD MSTORE SWAP2 SWAP1 POP JUMP JUMPDEST PUSH1 0x20 DUP1 DUP3 MSTORE PUSH1 0x25 SWAP1 DUP3 ADD MSTORE PUSH32 0x45524332303A207472616E736665722066726F6D20746865207A65726F206164 PUSH1 0x40 DUP3 ADD MSTORE PUSH5 0x6472657373 PUSH1 0xD8 SHL PUSH1 0x60 DUP3 ADD MSTORE PUSH1 0x80 ADD SWAP1 JUMP JUMPDEST PUSH1 0x20 DUP1 DUP3 MSTORE PUSH1 0x23 SWAP1 DUP3 ADD MSTORE PUSH32 0x45524332303A207472616E7366657220746F20746865207A65726F2061646472 PUSH1 0x40 DUP3 ADD MSTORE PUSH3 0x657373 PUSH1 0xE8 SHL PUSH1 0x60 DUP3 ADD MSTORE PUSH1 0x80 ADD SWAP1 JUMP INVALID STATICCALL 0xD3 NOT 0x24 0xD6 SSTORE GASLIMIT MSTORE8 SWAP6 0xC8 PUSH22 0x44C8AA1FFDB5A7505A22A3C2E03F28003B6556A75FA2 PUSH5 0x6970667358 0x22 SLT KECCAK256 0xD4 0xC ADD 0xFB 0xEC 0x2D RETURNDATASIZE 0x2C MLOAD 0xE4 0xA7 PREVRANDAO 0xAB SWAP4 0xAC 0xC7 AND EXTCODEHASH SWAP1 0xCA PUSH24 0x70057FA1045BE806B0C2364736F6C634300081300330000 "},"methodIdentifiers":{"INITIAL_SUPPLY()":"2ff2e9dc","MAX_SUPPLY()":"32cb6b0c","MIN_SUPPLY()":"35917c64","allowance(address,address)":"dd62ed3e","approve(address,uint256)":"095ea7b3","balanceOf(address)":"70a08231","burn(uint256)":"42966c68","burnFrom(address,uint256)":"79cc6790","burnWithReason(uint256,string)":"091273a7","calculateHealthScore()":"fbda31b0","calculateStakingReward(uint256,uint256,uint256)":"1b8d1401","decimals()":"313ce567","decreaseAllowance(address,uint256)":"a457c2d7","emergencyWithdrawStake(address,uint256)":"3194dc5e","getRecentBurnAmount()":"33d2499d","getTokenStatistics()":"08a41557","getUserStakes(address)":"842e2981","getVerificationCost(string)":"19086feb","getVotingPower(address)":"bb4d4436","increaseAllowance(address,uint256)":"39509351","mint(address,uint256,string)":"d3fc9864","name()":"06fdde03","owner()":"8da5cb5b","pause()":"8456cb59","paused()":"5c975abb","processDailyRewards()":"98425171","processVerification(address,address,string)":"558ee223","renounceOwnership()":"715018a6","stake(uint256,uint256)":"7b0472f0","stakedBalances(address)":"1460fa87","stats()":"d80528ae","symbol()":"95d89b41","tokenomics()":"4ac7251d","totalSupply()":"18160ddd","transfer(address,uint256)":"a9059cbb","transferFrom(address,address,uint256)":"23b872dd","transferOwnership(address)":"f2fde38b","unpause()":"3f4ba83a","unstake(uint256)":"2e17de78","updateTokenomics(string,uint256)":"80b01b61","updateVerificationCost(string,uint256)":"9f3148a9","userStakes(address,uint256)":"b5d5b5fa","verificationCosts(string)":"5b8e8264"}}}}}